:020000040800F2
:1000000088040020450100084D0100084F01000848
:1000100051010008530100085501000800000000CC
:100020000000000000000000000000005701000870
:1000300059010008000000005B0100085D01000894
:100040005F0100085F0100085F0100085F01000810
:100050005F0100085F0100085F0100085F01000800
:100060005F0100085F0100085F0100085F010008F0
:100070005F0100085F0100085F0100085F010008E0
:100080005F0100085F0100085F0100085F010008D0
:100090005F0100085F0100085F0100085F010008C0
:1000A0005F0100085F0100085F0100085F010008B0
:1000B0005F0100085F0100085F0100085F010008A0
:1000C0005F0100085F0100085F0100085F01000890
:1000D0005F0100085F0100085F0100085F01000880
:1000E0005F0100085F0100085F0100085F01000870
:1000F0005F0100085F0100085F0100085F01000860
:100100005F0100085F0100085F0100085F0100084F
:100110005F0100085F0100085F0100085F0100083F
:100120005F0100085F0100085F0100085F0100082F
:10013000DFF80CD000F07AF800480047710B000897
:10014000880400200648804706480047FEE7FEE78F
:10015000FEE7FEE7FEE7FEE7FEE7FEE7FEE7FEE777
:10016000DD070008310100082DE9F0410024061BDD
:10017000254671F1000605DA01240027D0EB0700BF
:1001800067EB0101161E73F1000605DA0027D2EBBA
:100190000702012567EB030300F017F886460E46B9
:1001A00017469C46AC4204D00025D0EB050E65EB0B
:1001B000010624B10020D2EB000760EB030C70466F
:1001C00031463A466346BDE8F0812DE9F05F0546C9
:1001D000002092469B4688460646814640241BE006
:1001E000284641464746224600F041F853465A46C3
:1001F000C01A914110D311461846224600F028F843
:100200002D1A67EB01084F4622460120002100F01D
:100210001FF817EB00094E41201EA4F10104DFDC9A
:10022000484631462A464346BDE8F09F064C074DF6
:1002300006E0E06840F0010394E8070098471034B6
:10024000AC42F6D3FFF778FFF00B0008100C000863
:10025000202A04DB203A00FA02F100207047914086
:10026000C2F1200320FA03F3194390407047202A7B
:1002700004DB203A21FA02F00021704721FA02F350
:10028000D040C2F120029140084319467047000057
:1002900010B54FF480511E4800F0F6F94FF400718C
:1002A0001B4800F0F1F94FF48061194800F0ECF9B7
:1002B0004FF40061164800F0E9F90A2000F0A0F8B8
:1002C0004FF40061124800F0DFF90421114800F0FA
:1002D000DBF94FF480710E4800F0D6F9072000F0EA
:1002E00057F8002000F054F80A2000F051F80020E0
:1002F00000F04EF8602000F04BF84FF480610448A5
:1003000000F0C4F94FF48061014800F0BDF910BD60
:1003100000100140000801402DE9F04107460C465D
:100320000026384600F0AAF806250CE016B902208F
:1003300000F02EF8691EC9B20D46134A505C00F059
:1003400027F8701CC6B2002DF0DC082000F020F861
:10035000201200F01DF8E0B200F01AF8092000F0B9
:1003600017F8201200F014F8E0B200F011F84FF482
:100370008061064800F08AF94FF48061034800F07C
:1003800083F9BDE8F08100008100002000100140E9
:1003900070B50446082519E004F0800020B1012161
:1003A0000C4800F073F903E001210A4800F06CF9F1
:1003B0006006040E4FF40071074800F065F94FF431
:1003C0000071054800F062F9681EC5B2002DE3DC3B
:1003D00070BD0000000801400010014010B5402031
:1003E00000F02CFA002405E00449085D00F03EFA14
:1003F000601CC4B2402CF7DB10BD000000000020E0
:1004000000BF072100BF0B2200BF531E9BB21A1E64
:10041000FBD14B1E9BB2191EF5D1431EDBB2181E39
:10042000EFD1704700BF772100BF432200BF531EAA
:100430009BB21A1EFBD14B1E9BB2191EF5D1431E57
:10044000DBB2181EEFD1704700BF4FF47A7100BFC6
:1004500040F2012200BF531E9BB21A1EFBD14B1E5D
:100460009BB2191EF4D1431EDBB2181EEDD17047AA
:1004700000BF411EC9B2081EFBD1704718B5014626
:10048000144ACBB28DF800300B0A8DF801300B0CFA
:100490008DF802300B0E8DF803309DF8003003FB11
:1004A00002F00D4C2070000A9DF8013002FB0300A1
:1004B0006070000A9DF8023002FB0300A070000A81
:1004C0009DF8033002FB0300E070000A2071030A6C
:1004D000637118BD0A510E008100002008B501218A
:1004E000142000F0F7F80720ADF8000003208DF885
:1004F000020010208DF803006946094800F014F846
:100500004FF4FE40ADF8000003208DF802001020EB
:100510008DF803006946034800F006F808BD0000A6
:1005200000080140001001402DE9F041024600257D
:100530000026002000230024002791F803C00CF0BF
:100540000F0591F803C00CF0100CBCF1000F03D0A4
:1005500091F802C04CEA050591F800C0BCF1000F0B
:1005600031D0146800202BE04FF0010C0CFA00F39E
:10057000B1F800C00CEA03069E4220D183004FF080
:100580000F0C0CFA03F7BC4305FA03FC4CEA040415
:1005900091F803C0BCF1280F06D14FF0010C0CFA02
:1005A00000FCC2F814C00AE091F803C0BCF1480F87
:1005B00005D14FF0010C0CFA00FCC2F810C0401C31
:1005C0000828D1D31460B1F800C0BCF1FF0F34DDAE
:1005D000546800202EE000F1080C4FF0010808FAE2
:1005E0000CF3B1F800C00CEA03069E4221D183004F
:1005F0004FF00F0C0CFA03F7BC4305FA03FC4CEA6E
:10060000040491F803C0BCF1280F05D100F1080CD7
:1006100008FA0CF8C2F8148091F803C0BCF1480F36
:1006200007D100F1080C4FF0010808FA0CF8C2F8E5
:100630001080401C0828CED35460BDE8F081000033
:1006400008B50121042000F045F80121202000F028
:1006500041F8F320ADF8000003208DF802001020CF
:100660008DF8030069460648FFF75EFF4FF480707F
:10067000ADF8000069460348FFF756FF08BD0000CB
:10068000001401400008014041617047016170475A
:1006900010B50A20FFF7D8FEFFF7D2FF052404E0CB
:1006A000282000F0CBF8601EC4B2002CF8DC01203A
:1006B00000F0C4F8062000F0C1F80F2000F0BEF8EA
:1006C0000C2000F0BBF8FFF789FE10BD10B5FFF756
:1006D000DFFF10BD29B1064A92690243044B9A61BB
:1006E00004E0034A92698243014B9A61704700001B
:1006F0000010024010B500F001F810BD0CB500204C
:10070000019000903348006840F48030314908601F
:1007100000BF3048006800F4003000900198401C91
:100720000190009818B90198B0F5A06FF1D129484F
:10073000006800F4003010B10120009001E00020BA
:1007400000900098012843D12348006840F0100031
:10075000214908600846006820F003000860084648
:10076000006840F0020008601A4840681949486073
:100770000846406848600846406840F48060486029
:100780000846406820F47C1048600846406840F401
:10079000E81048600846006840F08070086000BFBC
:1007A0000C48006800F000700028F9D00948406843
:1007B00020F00300074948600846406840F0020006
:1007C000486000BF0348406800F00C000828F9D1D9
:1007D0000CBD0000001002400020024010B513487C
:1007E000006840F00100114908600846406810495F
:1007F00008400E494860084600680E4908400B4909
:1008000008600846006820F48020086008464068B8
:1008100020F4FE0048604FF41F008860FFF76AFF75
:100820004FF000600449086010BD00000010024055
:100830000000FFF8FFFFF6FE08ED00E010B50446EB
:10084000074804700748047001210748FFF71CFFA0
:1008500002210548FFF718FF00F0F2F810BD000074
:100860007F000020800000200014014010B50446E5
:10087000074804700748047001210748FFF706FF86
:1008800002210548FFF700FF00F0DAF810BD000074
:100890007F00002080000020001401402DE9FE4F61
:1008A00081460E4614465DA207CA8DE807004FF048
:1008B000000AB9F1010F05D106F17F01C8B2FFF7B7
:1008C000BDFF04E006F1BF01C8B2FFF7B7FF002C7F
:1008D0007DD0554A022320460021FFF745FC1746EC
:1008E0001946524A00233846FFF73EFC3030C0B26A
:1008F0008DF800004D48B4FBF0F100FB11404C496D
:10090000B0FBF1F000F13000C0B28DF801000846F4
:10091000B4FBF0F100FB11404649B0FBF1F000F1EF
:100920003000C0B28DF802000846B4FBF0F100FBC5
:1009300011404149B0FBF1F000F13000C0B28DF838
:1009400003000846B4FBF0F100FB11403B49B0FB4B
:10095000F1F000F13000C0B28DF804000846B4FB9D
:10096000F0F100FB114042F21071B0FBF1F000F128
:100970003000C0B28DF805000846B4FBF0F100FB72
:1009800011404FF47A71B0FBF1F000F13000C0B2C9
:100990008DF806000846B4FBF0F100FB11404FF063
:1009A0006401B0FBF1F000F13000C0B28DF8070037
:1009B0000846B4FBF0F100FB11404FF00A01B0FB18
:1009C000F1F000F130008DF80800084600E01FE06B
:1009D000B4FBF0F100FB114000F130008DF809008C
:1009E0004FF0000511E01DF80500302804D0BAF1E1
:1009F000000F01D14FF0010ABAF1010F03D11DF828
:100A00000500FFF733FF681CC5B20A2DEBDB02E0DF
:100A10003020FFF72BFFBDE8FE8F000020202020B4
:100A2000202020202020200000E40B5400CA9A3B04
:100A300000E1F5058096980040420F00A086010075
:100A400010B5324800684FF60F7108402F49086012
:100A50002F48007800F0F0002D4908702B480068FE
:100A600009780843294908602A4800684FF6FF6161
:100A70000840284908600120FFF7FAFC4FF4807114
:100A800024480C38FFF702FE0120FFF7F1FC4FF479
:100A9000807120480C38FFF7F7FD0120FFF7E8FCD4
:100AA0001A4800684FF60F710840184908601A4844
:100AB000007800F00F001849087008460078000719
:100AC000000E087011480068097808430F49086053
:100AD000104800684FF6FF6108400E490860012089
:100AE000FFF7C6FC4FF480710A480C38FFF7CEFDC3
:100AF0000120FFF7BDFC4FF4807106480C38FFF76A
:100B0000C3FD0520FFF78EFC10BD00000C14014052
:100B10007F0000200C0801408000002070B50646D0
:100B20000D461446012E05D105F17F01C8B2FFF72D
:100B300085FE04E005F1BF01C8B2FFF77FFE03E0C8
:100B40002078FFF793FE641C20780028F8D170BD50
:100B500002E008C8121F08C1002AFAD17047704786
:100B6000002001E001C1121F002AFBD170470000E4
:100B70006420FFF757FCFFF7A9FDFFF7AFFC052046
:100B8000FFF750FC0620FFF759FE0FA2012108468F
:100B9000FFF7C4FF11A201210220FFF7BFFFFFF7FB
:100BA00077FB4FF47A741148844200D904462246F8
:100BB00006210220FFF772FE40F6FF712046FFF784
:100BC000ABFB00BFFEE7000020204144393835343C
:100BD0002054455354212020000000004672653AFD
:100BE000202020202020202020487A00FFE0F5054A
:100BF000100C00080000002088000000500B0008C6
:100C0000980C00088800002000040000600B000819
:100C1000080F120F0A1F02020F090F090F09110016
:100C20001F11111F11111F00110A041F041F0400BE
:100C30000E001F0A0A0A1300181807080808070000
:100C40000F0F0F0A0F12071F00000E00001F0000F9
:100C500057656C636F6D6520746F20757365212017
:100C600054656C3A31333931323334353637384D97
:100C700044442D312020033335382E3030042032C7
:100C800030313400320130370220543D3135050017
:080C900000000000000000005C
:0400000508000131BD
:00000001FF
