:040C780000DFFD227A
:100BD7007E017D0900000000000000000000000009
:0E0BE7000000000000000000DDEADEE6DFE2B4
:010BF50022DD
:100C12007E047DFB00000000000000000000DDF407
:040C2200DEF0DFEC35
:010C260022AB
:1005EE00202041443938353420544553542120209D
:1005FE00004B313A202053656C6563742057617649
:10060E0065002020202020202020202020202020B7
:10061E0020202000202020202053494E452020203D
:10062E00202020202000202020202046534B202058
:10063E002020202020202000202020202042505347
:10064E004B2020202020202020002020202020525F
:10065E0046534B2020202020202020002020202028
:10066E00202041204D20202020202020200020204E
:10067E00202020204F534B202020202020202000FF
:10068E002020202020434849525020202020202086
:03069E0020200019
:10022D00E4900000F0A3F0120C5A7F06120C3A7BFA
:10023D00FF7A0579EE7D017F011209A77BFF7A0513
:10024D0079FF02034512087A900000EFF0BF01F527
:10025D00A3E004F07BFF7A0679107D017F0212097D
:10026D00A7900001E014B4070050DA90028675F0F3
:10027D0003A4C58325F0C5837302029B0202BC0251
:10028D0002DC0202F102032502033702034F120AB8
:10029D0029900006740FF0A374D2F07F407E427D4A
:1002AD000F7C001209657BFF7A0679220203451245
:1002BD000AB5900006120437000186A07F107E2734
:1002CD007D007C001207AC7BFF7A067934806912C1
:1002DD000B3C7D007C20E4FFFE12072D7BFF7A0690
:1002ED0079468054120A5890000612043702625A59
:1002FD000090000A120437000186A090000E12042F
:10030D0037000800007F407E427D0F7C001204689C
:10031D007BFF7A06795880201208CD7FA07E0F12C0
:10032D000BB27BFF7A06796A800E120AE27F6412A5
:10033D00081B7BFF7A06797C7D017F021209A702DB
:10034D000252120B0F900006120437000186A09086
:10035D00000A120437000800007F407E427D0F7CAA
:10036D00001205367BFF7A06798E7D017F02120918
:09037D00A7E4900001F002025215
:0F0C5A0075FFDE75FFAD120C27120BF6020A872D
:100C270075A4FF75A5FF75A6FF75A78775B50C7524
:030C3700E3402275
:100BF60075B167E4FFFE0FBF00010EE4B507F7EE1F
:0B0C0600B401F3E5B130E7FB75B288E4
:010C110022C0
:10087A00E4900002F030B30930B40630B50320B674
:10088A00377F0A120C1220B3099000027401F0306B
:10089A00B3FD20B4099000027402F030B4FD20B513
:1008AA00099000027403F030B5FD20B610900002E2
:1008BA007404F020B60780FBE4900002F090000276
:0208CA00E0FF4D
:0108CC002209
:0E0C69004400310011E54C440027498F2A63F6
:100B8D00E0FF04F01C742B2CF582E43400F583E0B7
:010B9D00FD5A
:100B9E00E5A054C0FEEF543F4EF590AF058FA0C2B6
:040BAE0086D2862243
:100A2900D286D287C285D284C284D280D282E4FDA2
:100A39007F1D120B9E7D087F1E120B9EE4FD7F1FFA
:0F0A4900120B9E7D607F20120B9ED285C28522EC
:0B000300E0FCA3E0FDA3E0FEA3E0FF93
:06000E0090001712042B04
:10001400900031E0FCA3E0FDA3E0FEA3E0FF90002C
:100024001F12042B900017A3A3A3E0900023F090C9
:100034000017E0FCA3E0FDA3E0FEA3E0FF780812B4
:100044000417900024EFF0900017E0FCA3E0FDA358
:10005400E0FEA3E0FF7810120417900025EFF09063
:100064000017E0FCA3E0FDA3E0FEA3E0FF78181274
:100074000417900026EFF0900023E0FFE4FCFDFE5F
:1000840090001FE0F8A3E0F9A3E0FAA3E0FB120359
:10009400B590001B12042B90001BA3A3A3E09000B7
:1000A4002BF090001BE0FCA3E0FDA3E0FEA3E0FF27
:1000B400780812040490001B12042B90001BE0F833
:1000C400A3E0F9A3E0FAA3E0FBC000C001C002C0B2
:1000D40003900024E0FFE4FCFDFE90001FE0F8A381
:1000E400E0F9A3E0FAA3E0FB1203B5D003D002D0F9
:1000F40001D000EB2FFFEA3EFEE93DFDE83CFC9019
:10010400001B12042B90001BA3A3A3E090002CF06F
:1001140090001BE0FCA3E0FDA3E0FEA3E0FF780851
:1001240012040490001B12042B90001BE0F8A3E0BF
:10013400F9A3E0FAA3E0FBC000C001C002C0039031
:100144000025E0FFE4FCFDFE90001FE0F8A3E0F9C9
:10015400A3E0FAA3E0FB1203B5D003D002D001D090
:1001640000EB2FFFEA3EFEE93DFDE83CFC90001B5E
:1001740012042B90001BA3A3A3E090002DF0900089
:100184001BE0FCA3E0FDA3E0FEA3E0FF780812045B
:100194000490001B12042B90001BE0F8A3E0F9A3C9
:1001A400E0FAA3E0FBC000C001C002C00390002637
:1001B400E0FFE4FCFDFE90001FE0F8A3E0F9A3E0FB
:1001C400FAA3E0FB1203B5D003D002D001D000EBB8
:1001D4002FFFEA3EFEE93DFDE83CFC90001B1204C3
:1001E4002B90001BA3A3A3E090002EF090001BE033
:1001F400FCA3E0FDA3E0FEA3E0FF78081204049052
:10020400001B12042B90001BA3A3A3E090002FF06B
:1002140090001BE0FCA3E0FDA3E0FEA3E0FF780850
:08022400120404900030EFF019
:01022C0022AF
:100965009000087404F012000E7C06ECD39400404D
:1009750008900008120B8D80F2900006E0FD7F21A3
:10098500120B9EA3E0FD7F22120B9E900006E0FD58
:100995007F23120B9EA3E0FD7F24120B9ED285C2FE
:0109A50085CC
:0109A600222E
:100AB500D286D287C285D284C284D2807D107F1D22
:100AC500120B9E7D087F1E120B9E7D027F1F120B4F
:0D0AD5009E7D607F20120B9ED285C285227F
:0607AC0090000212042B74
:1007B20090000C740FF0A374A0F090000A7404F07F
:1007C200A3740AF09000021200037C06ECD394009A
:1007D200400890000A120B8D80F29000061200036E
:1007E2007C06ECD39400400890000B120B8D80F233
:1007F20090000CE0FD7F21120B9EA3E0FD7F2212F0
:100802000B9E90000CE0FD7F23120B9EA3E0FD7F68
:0808120024120B9ED285C28561
:01081A0022BB
:100B3C00D286D287C285D284C284D2807D107F1D9A
:100B4C00120B9E7D087F1E120B9E7F1F120B9E7D2B
:0B0B5C00607F20120B9ED285C2852214
:0C072D00900002EEF0A3EFF0AB05AA0470
:10073900A31204370000EA60900008740FF0A37454
:10074900A0F0A37404F0900002E0FDE4FF120B9EF8
:10075900A3E0FD7F01120B9EEAFD7F02120B9EEBC7
:10076900FD7F03120B9EA31200037C06ECD39400B9
:10077900400890000A120B8D80F2900008E0FD7F7E
:1007890021120B9EA3E0FD7F22120B9E900008E030
:10079900FD7F23120B9EA3E0FD7F24120B9ED285C1
:0207A900C28507
:0107AB00222B
:100AE200D286D287C285D284C284D2807D107F1DF5
:100AF200120B9E7D087F1E120B9EE4FD7F1F120BC0
:0D0B02009E7D707F20120B9ED285C2852241
:05081B00900002EFF067
:100820007F607EEA7D007C00A3740FF0A374A0F0CB
:10083000A37404F012000E7C06ECD39400400890E0
:100840000005120B8D80F2900003E0FD7F21120B5A
:100850009EA3E0FD7F22120B9E900003E0FD7F230C
:10086000120B9EA3E0FD7F24120B9E900002E0FD80
:090870007F25120B9ED285C28582
:01087900225C
:1008CD009000021204370000EA609000067404F0F4
:1008DD00D286C287C285D284C284D2807D107F1D0C
:1008ED00120B9E7D087F1E120B9EE4FD7F1F120BC7
:1008FD009E7D607F20120B9E9000021200037C06ED
:10090D00ECD394004008900006120B8D80F2D28536
:02091D00C28591
:01091F0022B5
:100BB200AB07AA06EAFD7F21120B9EEBFD7F2212F4
:100BC2000B9EEAFD7F23120B9EEBFD7F24120B9EF0
:050BD200D285C285225E
:100A5800D286D287C285D284C284D280C2827D10D7
:100A68007F1D120B9E7D087F1E120B9E7D247F1F0B
:0F0A7800120B9E7D607F20120B9ED285C28522BD
:0604680090000212042BBB
:10046E00900015740EF0A37410F09000127404F046
:10047E00A3740AF0A37410F09000021200037C061D
:10048E00ECD394004008900012120B8D80F2900075
:10049E00061200037C06ECD3940040089000131261
:1004AE000B8D80F290000A1200037C06ECD39400B0
:1004BE004008900014120B8D80F290000EE0FCA309
:1004CE00E0FDA3E0FEA3E0FF7810120404EF540F4A
:1004DE00FFAD077F1A120B9E90000EE0FCA3E0FD0D
:1004EE00A3E0FEA3E0FF7808120404AD077F1B1201
:1004FE000B9E90000EA3A3A3E0FD7F1C120B9E90FB
:10050E000015E0FD7F21120B9EA3E0FD7F22120B52
:10051E009E900015E0FD7F23120B9EA3E0FD7F242D
:07052E00120B9ED285C2856D
:0105350022A3
:100B0F00D286D287C285D284C284D2807D107F1DC7
:100B1F00120B9E7D087F1E120B9E7D267F1F120BD0
:0D0B2F009E7D607F20120B9ED285C2852224
:0605360090000212042BEC
:10053C00900011740FF0A374A0F090000E7404F0EE
:10054C00A3740AF0A37410F09000021200037C064E
:10055C00ECD39400400890000E120B8D80F29000AA
:10056C00061200037C06ECD3940040089000101295
:10057C000B8D80F290000AE0FCA3E0FDA3E0FEA34B
:10058C00E0FF7810120404EF540FFFAD077F1A122E
:10059C000B9E90000AE0FCA3E0FDA3E0FEA3E0FFAD
:1005AC007808120404AD077F1B120B9E90000AA35F
:1005BC00A3A3E0FD7F1C120B9E900011E0FD7F2198
:1005CC00120B9EA3E0FD7F22120B9E900011E0FD0A
:1005DC007F23120B9EA3E0FD7F24120B9ED285C2BB
:0105EC008589
:0105ED0022EB
:1009E900080F120F0A1F02020F090F090F09110040
:1009F9001F11111F11111F00110A041F041F0400E8
:100A09000E001F0A0A0A1300181807080808070029
:100A19000F0F0F0A0F12071F00000E00001F000022
:100A87009000027405F07F28120C3A900002E014DF
:100A9700F0E0D3940050EF7F01120C3A7F06120C5E
:0E0AA7003A7F0F120C3A7F0C120C3A020B67CA
:100C3A00900035EFF0A3F05385FD5385FB020920A0
:100C4A00900035EFF0A3F04385025385FB0209209B
:1009A700900002EDF0A3EBF0A3EAF0A3E9F0EF90DB
:1009B7000002B40105E0247F8003E024BFFF120C8E
:1009C7003A900003E0FBA3E0FAA3E0F9120386FFE5
:1009D700600F120C4A900004E475F00112039F8027
:0209E700E0220C
:1009200053850F900035E054F0F042854385080070
:100930007F02120C785385F7007F02120C785385E2
:100940000F900036E0C454F0900035F054F0F042BF
:1009500085438508007F02120C785385F75385F78D
:050960007FC8020BD767
:100B67007F40120C3AE4900003F0900003E0FFC3CB
:100B770094405011EF9009E993FF120C4A9000033B
:050B8700E004F080E530
:010B8C002246
:030000000206A154
:0C06A100787FE4F6D8FD7581070206E8BA
:10038600BB010689828A83E0225002E722BBFE0275
:09039600E32289828A83E49322A8
:10039F00C5F0F8A3E028F0C5F0F8E58215827002E9
:0603AF001583E038F02286
:1003B500E88FF0A4CC8BF0A42CFCE98EF0A42CFCE7
:1003C5008AF0EDA42CFCEA8EF0A4CDA8F08BF0A465
:1003D5002DCC3825F0FDE98FF0A42CCD35F0FCEBC4
:1003E5008EF0A4FEA9F0EB8FF0A4CFC5F02ECD3989
:0F03F500FEE43CFCEAA42DCE35F0FDE43CFC22F6
:10040400E8600FECC313FCED13FDEE13FEEF13FFD6
:03041400D8F122FA
:10041700E86010ECA2E713FCED13FDEE13FEEF13FB
:04042700FFD8F022E8
:0C042B00ECF0A3EDF0A3EEF0A3EFF02244
:10043700A8828583F0D083D08212044E12044E1214
:10044700044E12044EE473E493A3C583C5F0C58339
:10045700C8C582C8F0A3C583C5F0C583C8C582C80F
:010467002272
:1006AD0002022DE493A3F8E493A34003F68001F234
:1006BD0008DFF48029E493A3F85407240CC8C3334E
:1006CD00C4540F4420C8834004F456800146F6DF1D
:1006DD00E4800B0102040810204080900C69E47E38
:1006ED00019360BCA3FF543F30E509541FFEE49312
:1006FD00A360010ECF54C025E060A840B8E493A3D9
:10070D00FAE493A3F8E493A3C8C582C8CAC583CA03
:10071D00F0A3C8C582C8CAC583CADFE9DEE780BEBB
:010C7700007C
:00000001FF
