:10003700C292C290E4FDEE33929100D29000C2903A
:10004700EF25E0FFEE33FE0DBD10EBD29200C2921A
:010057002286
:100058008E098F0AC292C290E4FDEE33929100D2CB
:0F0068009000C290EF25E0FFEE33FE0DBD0BEBD5
:010077002266
:100078008F09E4FEEF33929100D29000C290EF25F1
:0B008800E0FF0EBE08EED29200C29214
:01009300224A
:0700AC007F617E890200372D
:04000300AD07AC0693
:10000700E4FBF508FFEDAE047807CEC313CE13D893
:10001700F9FFED547FFBEF7807C333CE33CED8F922
:10002700FFEB25E0FB5303FE120058AF03020078F5
:0C0094001200AC7FA07E0F12000380FE63
:030000000200A05B
:0C00A000787FE4F6D8FD75810A02009418
:00000001FF
