:020000040800F2
:1000000028070024AD020008D1210008031F0008C2
:10001000CD210008650B00087927000800000000CA
:100020000000000000000000000000007124000833
:10003000690B0008000000006F240008FD24000880
:10004000C7020008C7020008C7020008C70200086C
:10005000C7020008C7020008C7020008C70200085C
:10006000C7020008C7020008C7020008C70200084C
:10007000C7020008C7020008C7020008C70200083C
:10008000C7020008C7020008C7020008C70200082C
:10009000C7020008C7020008C7020008C70200081C
:1000A000C7020008C7020008C7020008C70200080C
:1000B000C702000871260008C7020008C70200082E
:1000C000C7020008C7020008C7020008C7020008EC
:1000D000C7020008C7020008C7020008C7020008DC
:1000E000C7020008C702000800000000C70200089D
:1000F000C7020008C7020008C7020008C7020008BC
:10010000C7020008C7020008C7020008C7020008AB
:10011000C7020008C7020008C7020008C70200089B
:10012000C7020008C7020008C7020008C70200088B
:10013000C7020008C7020008C7020008C70200087B
:1001400000000000000000000000000000000000AF
:10015000C7020008C7020008C7020008C70200085B
:10016000C7020008C7020008C7020008C70200084B
:10017000C7020008C7020008C7020008C70200083B
:10018000C7020008C7020008C7020008C70200082B
:10019000C7020008C7020008C7020008C70200081B
:1001A000C7020008C7020008C7020008C70200080B
:1001B000C7020008C7020008C7020008C7020008FB
:1001C000C7020008C7020008C7020008C7020008EB
:1001D000C7020008C7020008C7020008C7020008DB
:1001E000C7020008C7020008C7020008C7020008CB
:1001F000C7020008C7020008C7020008C7020008BB
:10020000C7020008C7020008C7020008C7020008AA
:10021000C7020008C7020008C7020008C70200089A
:10022000C7020008C7020008C7020008000000005B
:10023000C7020008C702000800000000C70200084B
:10024000C7020008C7020008C7020008C70200086A
:10025000C7020008C7020008C7020008C70200085A
:10026000C7020008C7020008C7020008C70200084A
:10027000C7020008C7020008C7020008000000000B
:10028000C702000800000000C702000800000000CC
:1002900000000000C7020008DFF80CD000F07AF878
:1002A00000480047E52A0008280700240648804740
:1002B00006480047FEE7FEE7FEE7FEE7FEE7FEE74B
:1002C000FEE7FEE7FEE7FEE7DD25000899020008ED
:1002D0002DE9F05F0546002092469B46884606467B
:1002E000814640241BE0284641464746224600F00E
:1002F00041F853465A46C01A914110D31146184648
:10030000224600F028F82D1A67EB01084F462246D6
:100310000120002100F01FF817EB00094E41201EBC
:10032000A4F10104DFDC484631462A464346BDE8D5
:10033000F09FD2B201E000F8012B491EFBD27047BA
:100340000022F6E710B513460A4604461946FFF7A1
:10035000F0FF204610BD202A04DB203A00FA02F10B
:10036000002070479140C2F1200320FA03F31943A3
:1003700090407047202A04DB203A21FA02F0002145
:10038000704721FA02F3D040C2F1200291400843A5
:1003900019467047064C074D06E0E06840F001033F
:1003A00094E8070098471034AC42F6D3FFF778FF83
:1003B000383800085838000870B58C1810F8015B00
:1003C00015F0070301D110F8013B2A1106D110F8EE
:1003D000012B03E010F8016B01F8016B5B1EF9D1F2
:1003E0002B0705D40023521E0DD401F8013BFAE778
:1003F00010F8013BCB1A921C03E013F8015B01F8E3
:10040000015B521EF9D5A142D8D3002070BD000077
:1004100010B5012251021A4800F04EFD01221102CE
:10042000174800F049FD01221103154800F044FD72
:1004300000224FF40061124800F03EFD642002F0FB
:100440002DFB0122D1020E4800F036FD642002F09F
:1004500025FB00224FF40061094800F02DFD00212A
:100460001D2000F0BDFA4A211E2000F0B9FA01213A
:100470001F2000F0B5FA6021202000F0B1FA10BD75
:100480000004025810B510211D2000F0A9FA4A21DD
:100490001E2000F0A5FA01211F2000F0A1FA602122
:1004A000202000F09DFA10BD10B510211D2000F095
:1004B00097FA4A211E2000F093FA08211F2000F02D
:1004C0008FFA6021202000F08BFA10BD10B51021AA
:1004D0001D2000F085FA4A211E2000F081FA262115
:1004E0001F2000F07DFA6021202000F079FA10BD75
:1004F00010B510211D2000F073FA4A211E2000F0D3
:100500006FFA02211F2000F06BFA6021202000F01A
:1005100067FA00224FF480410D4800F0CDFC0A201C
:1005200002F087FA01229102094800F0C5FC4FF45D
:10053000C87002F07EFA00224FF48061044800F097
:10054000BBFC01229103024800F0B6FC10BD000084
:100550000004025810B510211D2000F041FA4A2174
:100560001E2000F03DFA00211F2000F039FA702112
:10057000202000F035FA10BD10B510211D2000F02C
:100580002FFA4A211E2000F02BFA24211F2000F010
:1005900027FA6021202000F023FA10BD2DE9F04158
:1005A00006460C460427304600F0E0FA062509E02E
:1005B0006A1ED2B21546134B995C38467B1CDFB2DB
:1005C00000F00EFA002DF3DC2112212000F008FAD1
:1005D000E1B2222000F004FA2112232000F000FAF8
:1005E000E1B2242000F0FCF901229102064800F05B
:1005F00063FC00224FF48061034800F05DFCBDE81D
:10060000F08100002C020024000402582DE9F0477C
:1006100004460D464EF660284FF47A6904272112ED
:10062000002000F0DDF9E1B2012000F0D9F9291233
:10063000022000F0D5F9E9B2032000F0D1F94046DC
:1006400000F094FA062609E0721ED2B21646134B49
:10065000995C38467B1CDFB200F0C2F9002EF3DC57
:100660000F21212000F0BCF9A021222000F0B8F9D0
:100670000F21232000F0B4F9A021242000F0B0F9CC
:1006800001229102064800F017FC00224FF480611D
:10069000034800F011FCBDE8F08700002C020024A4
:1006A000000402582DE9F04707460E461446062579
:1006B0004FF47A6A4FF004084FF01009384600F002
:1006C00055FA00BF0AE06A1ED2B21546234B995C68
:1006D0004046431C03F0FF0800F082F9002DF2DCD5
:1006E000304600F043FA06250AE06A1ED2B21546EB
:1006F0001A4B995C4846431C03F0FF0900F070F95F
:10070000002DF2DCC4F303411A2000F069F9C4F3B0
:1007100007211B2000F064F9E1B21C2000F060F911
:100720000F21212000F05CF9A021222000F058F9CF
:100730000F21232000F054F9A021242000F050F9CB
:1007400001229102064800F0B7FB00224FF48061BD
:10075000034800F0B1FBBDE8F08700002C02002444
:10076000000402582DE9F04706460D4606244FF4D2
:100770007A6904274FF00A08304600F0F7F900BF05
:1007800009E0621ED2B214461D4B995C38467B1CB0
:10079000DFB200F025F9002CF3DC284600F0E6F982
:1007A00006240AE0621ED2B21446154B995C4046FC
:1007B000431C03F0FF0800F013F9002CF2DC0F21BA
:1007C000212000F00DF9A021222000F009F90F21CD
:1007D000232000F005F9A021242000F001F90122D6
:1007E0009102084800F068FB4FF4C87002F021F94C
:1007F00000224FF48061034800F05EFBBDE8F08703
:100800002C020024000402582DE9F04104464EF663
:1008100060274FF47A680426384600F0A7F90625C9
:1008200009E06A1ED2B21546144B995C3046731C1F
:10083000DEB200F0D5F8002DF3DC0F21212000F00E
:10084000CFF8A021222000F0CBF80F21232000F0C8
:10085000C7F8A021242000F0C3F82146252000F08D
:10086000BFF801229102064800F026FB00224FF457
:100870008061034800F020FBBDE8F0812C020024D9
:10088000000402582DE9F84F80460E4617461D46D3
:1008900006244FF4616000904FF004094FF00A0AFB
:1008A0004FF0100B404600F061F900BF0AE0621EF5
:1008B000D2B214462C4B995C4846431C03F0FF0906
:1008C00000F08EF8002CF2DC304600F04FF90624E0
:1008D0000AE0621ED2B21446234B995C5046431C78
:1008E00003F0FF0A00F07CF8002CF2DC384600F040
:1008F0003DF906240AE0621ED2B214461A4B995CF6
:100900005846431C03F0FF0B00F06AF8002CF2DCA1
:10091000C5F303411A2000F063F8C5F307211B203B
:1009200000F05EF8E9B21C2000F05AF80E212120F8
:1009300000F056F81021222000F052F80E2123205A
:1009400000F04EF81021242000F04AF80122910214
:10095000064800F0B1FA00224FF48061034800F02D
:10096000ABFABDE8F88F00002C0200240004025806
:100970002DE9F04106460C460427304600F0F6F813
:10098000062509E06A1ED2B21546134B995C38461B
:100990007B1CDFB200F024F8002DF3DC210A2120BB
:1009A00000F01EF8E1B2222000F01AF8210A2320FC
:1009B00000F016F8E1B2242000F012F801229102B2
:1009C000064800F079FA00224FF48061034800F0F5
:1009D00073FABDE8F08100002C02002400040258E4
:1009E0002DE9F04706460F460025B046B9460024DB
:1009F0000CE04FF6FF7000EA4505284830F8141067
:100A0000274800F051FA0546601CC4B2062CF0DB02
:100A1000002411E0FE2305EA030008F00103184357
:100A2000C2B21E4830F814101D4800F045FA4FEAD3
:100A300068086D10601CC4B2062CEBDB00240CE0CF
:100A40004FF6FF7000EA4505164830F814101648B6
:100A500000F02AFA0546601CC4B2082CF0DB002422
:100A60000CE009F001020F4830F814100E4800F0B5
:100A700023FA4FEA69096D10601CC4B2082CF0DB40
:100A800000224FF40071064800F016FA01225102CC
:100A9000034800F011FABDE8F0870000400200248E
:100AA000000402584C0200240008025810B586B019
:100AB000044600BF6CB900BF2748006840F0100032
:100AC000254908600846006800F01000009000BF4B
:100AD0002FE0012C0DD100BF1F48006840F010002E
:100AE0001D4908600846006800F01000009000BF33
:100AF0001FE0012C0DD100BF1748006840F0100026
:100B0000154908600846006800F01000009000BF1A
:100B10000FE0022C0DD100BF0F48006840F010001C
:100B20000D4908600846006800F01000009000BF02
:100B300000BF00BF094830F8140001900020029067
:100B40000120039003200490054951F8240001A9D5
:100B500000F084F806B010BDE0440258E82F000809
:100B60001802002400BFFEE77047000018B50146D8
:100B7000144ACBB28DF800300B0A8DF801300B0C03
:100B80008DF802300B0E8DF803309DF8003003FB1A
:100B900002F00D4C2070000A9DF8013002FB0300AA
:100BA0006070000A9DF8023002FB0300A070000A8A
:100BB0009DF8033002FB0300E070000A2071030A75
:100BC000637118BD0A510E002C02002400B587B0D5
:100BD00000BF1F48006840F004001D490860084637
:100BE000006800F00400019000BF00BF00BF08468D
:100BF000006840F0020008600846006800F002004B
:100C0000019000BF00BF3F2002900120039004909C
:100C10000220059002A90F4800F020F84FF47F5001
:100C200002900120039004900220059002A90A4836
:100C300000F014F84FF4FE4002900120039004905D
:100C40000220059002A9034800F008F807B000BD93
:100C5000E04402580004025800080258F8B5024661
:100C60000B460021002600240020824D00BFFCE03E
:100C7000012707FA01F61F6807EA0604B4427CD18F
:100C80005F68022F02D05F68122F1AD14FEAD10C91
:100C900002F1200757F82C004F074FEAD76C0F27B7
:100CA00007FA0CF7B8434FEA417C4FEADC6C1F6946
:100CB00007FA0CF738434FEAD10C02F1200747F846
:100CC0002C0010684FEA410C032707FA0CF7B843D1
:100CD0001F7907F003074FEA410C07FA0CF7384376
:100CE00010605F68012F08D05F68022F05D05F6831
:100CF000112F02D05F68122F17D190684FEA410C74
:100D0000032707FA0CF7B8434FEA410CDF6807FAEC
:100D10000CF738439060506801278F40B8431F7923
:100D2000C7F300178F4038435060D0684FEA410C3A
:100D3000032707FA0CF7B8434FEA410C9F6807FAFC
:100D40000CF73843D0605F6807F08057B7F1805FD9
:100D500095D100BF484F3F6847F00207DFF818C140
:100D6000CCF8007067463F6807F00207009700BFA5
:100D700000BF424F4FEA910C00E075E057F82C009D
:100D80008F074FEA177C0F2707FA0CF7B8433C4F41
:100D9000BA4201D100272DE03A4FBA4201D10127D2
:100DA00028E0394FBA4201D1022723E0374FBA4237
:100DB00001D103271EE0364FBA4201D1042719E0C2
:100DC000344FBA4201D1052714E0334FBA4201D162
:100DD00006270FE0314FBA4201D107270AE0304F12
:100DE000BA4201D1082705E02E4FBA4201D10927A6
:100DF00000E00A274FEA817C4FEA1C7C07FA0CF7D7
:100E000038431E4F4FEA910C47F82C002868A04346
:100E10005F6807F48037B7F5803F00D12043286032
:100E20006868A0435F6807F40037B7F5003F00D15A
:100E3000204368604FF0B0473868A0435F6807F40C
:100E40008017B7F5801F00D120434FF0B0473860BE
:100E50007868A0435F6807F40017B7F5001F00D15A
:100E600020434FF0B0477860491C1029FFF400AFD1
:100E7000F8BD000080000058F444025808040058EF
:100E8000000002580004025800080258000C0258E2
:100E9000001002580014025800180258001C025892
:100EA0000020025800240258024613690B400BB17F
:100EB000012000E0002070470AB1018300E0418377
:100EC0007047000001480068704700005C02002481
:100ED00003480068034909780844014908607047DD
:100EE0005C0200246402002410B5032000F0E2F844
:100EF0000F2000F007F808B1012010BD00F08CF8B9
:100F00000020FAE770B504460E4800784FF47A7175
:100F1000B1FBF0F00C490968B1FBF0F5284600F090
:100F20009DFE08B1012070BD102C07D20022214681
:100F3000501E00F082F80548046001E00120F2E74D
:100F40000020F0E7640200240C0200246002002468
:100F50004178154A11600178F9B1121D416811609C
:100F6000017B0907C27A41EA0261827A41EAC24101
:100F7000427B41EA8241827B41EA4241C27B41EAB3
:100F80000241427A41EA0221027A41EA42010278B0
:100F90001143054A0832116005E00021024A121D82
:100FA0001160121D1160704798ED00E000BF00BF96
:100FB00000BFBFF35F8F00BF00BF00BF05480068E0
:100FC00020F4803003490860002002497031086035
:100FD0007047000024ED00E040F001010D4A11606F
:100FE0000C497039096841F480310A4A703A11603D
:100FF00000BF00BF00BFBFF34F8F00BF00BF00BFE7
:1010000000BF00BF00BFBFF36F8F00BF00BF00BFB6
:101010007047000094ED00E0704701460846002844
:1010200009DB00F01F0301229A4043099B0003F1F2
:10103000E023C3F8002100BF70472DE9F05F804630
:101040000D46164601F0AEFB074639462A463346A2
:1010500001F00700C0F1070ABAF1040F02D94FF0FE
:10106000040A01E0C0F1070AD14600F1040ABAF10E
:10107000070F02D24FF0000A01E0A0F1030AD446A4
:101080004FF0010A0AFA09FAAAF1010A0AEA020A69
:101090000AFA0CFA4FF0010B0BFA0CFBABF1010B47
:1010A0000BEA030B4AEA0B042146404601F082FB9F
:1010B000BDE8F09F00BF00F00702064B19684FF62D
:1010C000FF031940044B0B4343EA0221014B196013
:1010D00000BF70470CED00E00000FA0570B5044653
:1010E0000D4600268D48006800F00700A8420ED289
:1010F0008A48006820F007002843884908600846AD
:10110000006800F00700A84201D0012070BD2078DF
:1011100000F00200022807D18148006820F00F008B
:10112000E16808437E490860207800F0010000284B
:1011300051D07B48006820F47060A168084378496A
:1011400008606068022807D1754818380068C0F345
:101150004040F8B90120D9E76068032807D17048FA
:1011600018380068C0F34060A0B90120CEE760687D
:10117000012807D16A4818380068C0F3002048B930
:101180000120C3E7664818380068C0F3800008B93A
:101190000120BBE762480838006820F0070061685A
:1011A00008435F4908390860FFF78CFE064660680F
:1011B000022811D108E0FFF785FE801B41F288313B
:1011C000884201D90320A1E755480838006800F09B
:1011D00038001028EFD13AE06068032811D108E008
:1011E000FFF770FE801B41F28831884201D903204D
:1011F0008CE74B480838006800F038001828EFD119
:1012000025E06068012811D108E0FFF75BFE801B34
:1012100041F28831884201D9032077E740480838F5
:10122000006800F038000828EFD110E008E0FFF770
:1012300049FE801B41F28831884201D9032065E7CD
:1012400037480838006800F038000028EFD13348EC
:10125000006800F00700A8420ED93048006820F06E
:10126000070028432D4908600846006800F0070081
:10127000A84201D0012049E7207800F004000428AA
:1012800007D12748006820F07000216908432449ED
:101290000860207800F00800082809D12048001DC7
:1012A000006820F07000616908431D49091D08604D
:1012B000207800F01000102809D11948001D00689E
:1012C00020F4E060A16908431549091D08602078F1
:1012D00000F02000202809D111480830006820F0D3
:1012E0007000E16908430E490831086000F01EF8FB
:1012F0000B49096801F470614FF4807292FAA2F20E
:10130000B2FA82F2D140074A515CC84006490860EF
:101310000F20FFF7F7FD0020F8E600000020005244
:1013200018440258A82F00080C02002470B50125AB
:1013300000EE905A0022012100230024DFED861ADE
:10134000B0EE610ADFED841AB0EE611A0020834D21
:101350002D6805F0380535B1082D15D0102D15D0A4
:10136000182D7CD114E07D4D103D2D68C5F340153E
:1013700045B17A4D103D2D68C5F3C106784D25FA6B
:1013800006F000E07648E5E07648E3E07648E1E004
:10139000724D18352D6805F00302704D18352D6813
:1013A000C5F305116D4D1C352D6805F001036B4D1E
:1013B00024352D68C5F3CC0515FB03F501EE905AD5
:1013C000F8EE611AB0EE610A22B1012A4FD0022A6A
:1013D0007DD16BE0614D103D2D68C5F340152DB3F7
:1013E0005E4D103D2D68C5F3C1065D4D25FA06F42E
:1013F000B4FBF1F501EE905AB8EE612ADFED5B1A0D
:10140000C0EE212A554D20352D68C5F3080501EEA3
:10141000905AF8EE611A72EEA11AF7EE002A71EEF8
:10142000A21A62EE211AB0EE611A1FE04C4DB5FB14
:10143000F1F501EE905AB8EE612ADFED4C1AC0EEDC
:10144000212A464D20352D68C5F3080501EE905A36
:10145000F8EE611A72EEA11AF7EE002A00E077E0CA
:1014600071EEA21A62EE211AB0EE611A5EE03D4DF5
:10147000B5FBF1F501EE905AB8EE612ADFED3B1AAB
:10148000C0EE212A354D20352D68C5F3080501EE43
:10149000905AF8EE611A72EEA11AF7EE002A71EE78
:1014A000A21A62EE211AB0EE611A3FE02E4DB5FB92
:1014B000F1F501EE905AB8EE612ADFED2C1AC0EE7C
:1014C000212A264D20352D68C5F3080500E00EE0E1
:1014D00001EE905AF8EE611A72EEA11AF7EE002AA8
:1014E00071EEA21A62EE211AB0EE611A1EE01D4DD5
:1014F000B5FBF1F501EE905AF8EE612ADFED1B1A0B
:1015000080EE212A154D20352D68C5F3080501EE22
:10151000905AF8EE611A72EE211AB7EE002A71EEB7
:10152000821A62EEA11AB0EE611A00BF00BF0B4D25
:1015300020352D68C5F346256D1C00EE905AF8EE57
:10154000601A81EE212AFCEEC21A11EE900A01E027
:10155000044800BF00BF70BD0000000010440258E6
:101560000090D00300093D0040787D010000004656
:1015700070B504460025207800F00100002872D0E4
:10158000F948006800F0380010280CD0F6480068D0
:1015900000F03800182812D1F3481830006800F025
:1015A000030002280BD1F04810380068C0F3404017
:1015B00000286DD0606800286AD1012070BD00BF8E
:1015C0006068B0F5803F08D1E7481038006840F403
:1015D0008030E549103908602EE0606868B9E2485B
:1015E0001038006820F48030DF4910390860084660
:1015F000006820F4802008601EE06068B0F5A02F2D
:101600000DD1D9481038006840F48020D6491039EF
:1016100008600846006840F4803008600CE0D2485A
:101620001038006820F48030CF491039086008462F
:10163000006820F48020086000BF6068A0B1FFF758
:1016400041FC054608E0FFF73DFC401B41F28831B4
:10165000884201D90320B1E7C34810380068C0F3BD
:1016600040400028EFD013E0FFF72CFC054608E0CF
:10167000FFF728FC401B41F28831884201D9032042
:101680009CE7B94810380068C0F340400028EFD10B
:10169000207800F00200022847D1B348006800F02B
:1016A000380058B1B048006800F0380018283ED122
:1016B000AD481830006800F00300B8BBAA481038E5
:1016C0000068C0F3800018B1E06808B9012075E730
:1016D000A5481038006820F01900E1680843A249C5
:1016E00010390860FFF7EEFB054606E0FFF7EAFB5E
:1016F000401B022801D9032060E79B48103800688E
:10170000C0F380000028F1D097480C38006820F41E
:101710007C304FF47C3292FAA2F2B2FA82F2216962
:101720009140084390490C3908604AE0FFE7E068BF
:1017300068B38D481038006820F01900E16808434C
:10174000894910390860FFF7BDFB054606E0FFF741
:10175000B9FB401B022801D903202FE7824810382B
:101760000068C0F380000028F1D07F480C38006882
:1017700020F47C304FF47C3292FAA2F2B2FA82F278
:1017800021699140084378490C39086019E076488E
:101790001038006820F00100734910390860FFF725
:1017A00091FB054606E0FFF78DFB401B022801D99F
:1017B000032003E76C4810380068C0F3800000285D
:1017C000F1D1207800F01000102877D16648006829
:1017D00000F0380008280CD06348006800F038009A
:1017E000182823D160481830006800F00300012851
:1017F0001CD15D4810380068C0F3002020B1E069BA
:10180000802801D00120D9E657480C38006820F024
:10181000F8404FF0F84292FAA2F2B2FA82F2216A4C
:101820009140084350490C39086047E0E06958B3DB
:101830004D481038006840F080004B49103908606E
:10184000FFF740FB054606E0FFF73CFB401B022884
:1018500001D90320B2E6444810380068C0F30020E4
:101860000028F1D040480C38006820F0F8404FF0D4
:10187000F84292FAA2F2B2FA82F2216A9140084347
:1018800039490C39086019E037481038006820F0F1
:101890008000354910390860FFF714FB054606E063
:1018A000FFF710FB401B022801D9032086E62E48D3
:1018B00010380068C0F300200028F1D1207800F033
:1018C0000800082836D16069D0B127486430006824
:1018D00040F00100244964310860FFF7F3FA05463F
:1018E00006E0FFF7EFFA401B022801D9032065E666
:1018F0001D4864300068C0F340000028F1D019E0B2
:1019000019486430006820F001001749643108600C
:10191000FFF7D8FA054606E0FFF7D4FA401B022885
:1019200001D903204AE6104864300068C0F3400043
:101930000028F1D1207800F02000202834D1A069BF
:10194000D8B109481038006840F480500649103971
:101950000860FFF7B7FA054608E0FFF7B3FA401B47
:10196000022803D9032029E610440258AF48006832
:10197000C0F340300028F0D016E0AC48006820F4F6
:101980008050AA490860FFF79DFA054606E0FFF778
:1019900099FA401B022801D903200FE6A3480068EA
:1019A000C0F340300028F2D1207800F00400042871
:1019B0007DD19F48006840F480709D490860FFF722
:1019C00081FA054606E0FFF77DFA401B642801D93D
:1019D0000320F3E59648006800F480700028F2D0F8
:1019E00000BFA068012808D190487030006840F01E
:1019F00001008E49703108602DE0A06868B98B48FD
:101A00007030006820F00100884970310860084695
:101A1000006820F0040008601DE0A06805280DD1D2
:101A200082487030006840F00400804970310860DE
:101A30000846006840F0010008600CE07B48703008
:101A4000006820F00100794970310860084600689C
:101A500020F00400086000BFA068A0B1FFF732FAD0
:101A6000054608E0FFF72EFA401B41F28831884214
:101A700001D90320A2E56D4870300068C0F3400032
:101A80000028EFD013E0FFF71DFA054608E0FFF746
:101A900019FA401B41F28831884201D903208DE5B3
:101AA000624870300068C0F340000028EFD1606ADF
:101AB00000287CD05D481030006800F038001828FD
:101AC00076D0606A022874D15848006820F080708F
:101AD00056490860FFF7F6F9054606E0FFF7F2F908
:101AE000401B022801D9032068E550480068C0F374
:101AF00040600028F2D100BFD4E90A1041EA00108A
:101B00004A492831096840F2F33291430843474972
:101B100028310860208E401EC0F30800616B491E0A
:101B20004FF47E4202EA41210843218F491ED2012F
:101B300002EA014108433C21095D491E120202EA02
:101B40000161084339493031086000BF081D006851
:101B50004FF6F87188434FF6F87292FAA2F2B2FA91
:101B600082F2A16C914008433049343108602F481B
:101B70002C30006820F00C00216C08432B492C31DC
:101B800008600846006820F00200616C084327499D
:101B90002C3108600846006840F480300860084630
:101BA000006840F4003008600846006802E03BE04E
:101BB00038E01FE040F4802008600846006840F0EC
:101BC000010008601948006840F0807017490860FB
:101BD000FFF778F9054606E0FFF774F9401B022885
:101BE00001D90320EAE411480068C0F340600028EE
:101BF000F2D019E00D48006820F080700B490860B1
:101C0000FFF760F9054606E0FFF75CF9401B022884
:101C100001D90320D2E405480068C0F340600028E1
:101C2000F2D101E00120C9E40020C7E400440258D9
:101C300000480258042808D14FF0E021096941F01A
:101C400004014FF0E022116107E04FF0E021096943
:101C500021F004014FF0E0221161704770B5044695
:101C60002546681EB0F1807F01D301200FE0681E79
:101C70004FF0E02148610F214FF0FF3000F09AFD56
:101C800000204FF0E021886107200861002070BD2E
:101C90007047704710B504460CB9012010BD94F888
:101CA0003D0028B9002084F83C00204600F00CF8E4
:101CB000022084F83D00211D206800F0F7FC01207F
:101CC00084F83D000020E9E738B504460D49206856
:101CD000884215D100BF0C48006840F002000A4954
:101CE00008600846006800F00200009000BF00BFD6
:101CF000032201211D20FFF7A0F91D20FFF78DF918
:101D000038BD000000040040E8440258014608685D
:101D1000C06840F001000A68D0600868008840F0A0
:101D200001000A68108000207047704710B5044613
:101D300020680069C0F34000D8B12068C068C0F3D3
:101D40004000B0B16FF002002168086101202077E7
:101D50002068806900F0030018B12046FFF7E5FF16
:101D600005E0204600F0BEF8204600F0BCF8002058
:101D7000207720680069C0F38000D8B12068C0686F
:101D8000C0F38000B0B16FF0040021680861022048
:101D900020772068806900F4407018B12046FFF772
:101DA000C4FF05E0204600F09DF8204600F09BF8B7
:101DB0000020207720680069C0F3C000D8B12068F7
:101DC000C068C0F3C000B0B16FF0080021680861BE
:101DD000042020772068C06900F0030018B1204675
:101DE000FFF7A3FF05E0204600F07CF8204600F056
:101DF0007AF80020207720680069C0F30010D8B17D
:101E00002068C068C0F30010B0B16FF01000216806
:101E10000861082020772068C06900F4407018B17C
:101E20002046FFF782FF05E0204600F05BF82046E1
:101E300000F059F8002020772068006900F00100C8
:101E400058B12068C06800F0010030B16FF00100A7
:101E500021680861204600F047F820680069C0F357
:101E6000C01058B12068C068C0F3C01030B16FF026
:101E70008000216808612046FFF70AFF206800699A
:101E8000C0F3002058B12068C068C0F3C01030B162
:101E90006FF08000216808612046FFF7F9FE206896
:101EA0000069C0F3801058B12068C068C0F380108A
:101EB00030B16FF0400021680861204600F020F842
:101EC00020680069C0F3401058B12068C068C0F3B2
:101ED000401030B16FF02000216808612046FFF704
:101EE000D8FE10BD704770470349884202D10121D6
:101EF000024A117070470000E80200242902002401
:101F0000704700BFFEE7052000BF011EA0F10102DF
:101F1000D0B2FAD17047000070B50446002201210A
:101F20001548FEF7C9FF2546002621E005F0800090
:101F300028B1012204211048FEF7BEFF04E0002270
:101F400004210D48FEF7B8FF6806050EFFF7DBFF1A
:101F5000012211460848FEF7AFFFFFF7D4FF002229
:101F600001210548FEF7A8FFFFF7CDFF701CC6B2A0
:101F7000082EDBDB70BD00000008025810B50446D7
:101F800000F028F87820FFF7C7FF00F05BF800208A
:101F9000FFF7C2FF00F056F82046FFF7BDFF00F044
:101FA00051F800F033F810BD10B5044600F012F8F7
:101FB0007820FFF7B1FF00F045F84020FFF7ACFFB5
:101FC00000F040F82046FFF7A7FF00F03BF800F0D4
:101FD0001DF810BD10B5012211460B48FEF76CFF2D
:101FE000012204210848FEF767FFFFF78CFF00225B
:101FF00004210548FEF760FFFFF785FF002201215D
:102000000148FEF759FF10BD0008025810B5002224
:1020100001210B48FEF750FF002204210848FEF77B
:102020004BFFFFF770FF012211460548FEF744FF02
:10203000FFF769FF012204210148FEF73DFF10BDB3
:102040000008025810B5012211460548FEF734FF7A
:10205000FFF759FF002201210148FEF72DFF10BDB7
:102060000008025810B50020FEF720FD0120FEF701
:102070001DFD0220FEF71AFD0320FEF717FD10BD1F
:1020800010B50446012C01D12B4908702A4800786C
:10209000002835D001212948FEF706FF70B1022142
:1020A0002648FEF701FF48B104212448FEF7FCFE54
:1020B00020B108212148FEF7F7FE08BB0A2000F0F6
:1020C000E1FC00201C49087001211C48FEF7ECFED1
:1020D00008B9012010BD02211848FEF7E5FE08B935
:1020E0000220F7E704211548FEF7DEFE08B90320B9
:1020F000F0E708211148FEF7D7FED8B90420E9E738
:1021000001210E48FEF7D0FE012813D102210B4811
:10211000FEF7CAFE01280DD104210848FEF7C4FECF
:10212000012807D108210548FEF7BEFE012801D18C
:10213000014908700020CDE7280200240010025851
:102140001FB5012000220092CDE9012003231222B5
:1021500051060390002000F00CF8012000210091AE
:10216000019103231922CDE90210590700F001F86B
:102170001FBD2DE9FF5F04460D4616461F46DDE9EB
:1021800010ABDDE90E89FEF711FF01208DF800008C
:10219000E0B28DF801000195F0B28DF80800002042
:1021A0008DF809008DF80A008DF80B708DF80C8001
:1021B0008DF80D908DF80EA08DF80FB06846FEF7E3
:1021C000C7FE0420FEF708FFBDE8FF9F00BFFEE743
:1021D000704770B5002419E004F1B001C8B20021C5
:1021E00000F039F90021084600F035F900211020EF
:1021F00000F031F9002505E00121002000F02BF965
:10220000681CC5B2802DF7DB601CC4B2082CE3DB70
:1022100070BD000000B587B000BF4A48006840F0BC
:102220000400484908600846006800F00400019076
:1022300000BF00BF052002901120039001200490F0
:102240000220059002A94048FEF708FD0122114630
:102250003D48FEF731FE012204213B48FEF72CFEEB
:10226000C82000F00FFC0021AE2000F0F4F800219F
:10227000084600F0F0F80021102000F0ECF80021F2
:10228000402000F0E8F80021B02000F0E4F8002140
:10229000812000F0E0F80021FF2000F0DCF80021B0
:1022A000A12000F0D8F80021A62000F0D4F80021E9
:1022B000A82000F0D0F800213F2000F0CCF8002149
:1022C000C82000F0C8F80021D32000F0C4F8002195
:1022D000084600F0C0F80021D52000F0BCF800212D
:1022E000802000F0B8F80021D82000F0B4F80021D8
:1022F000052000F0B0F80021D92000F0ACF8002152
:10230000F12000F0A8F80021DA2000F0A4F8002164
:10231000122000F0A0F80021DB2000F09CF8002142
:10232000302000F098F800218D2000F094F8002172
:10233000142000F090F80021AF2000F08CF807B0D6
:1023400000BD0000E04402580008025870B5044681
:102350000D4605F1B001C8B2002100F07CF8102153
:1023600041EA1410002100F076F804F00F0000217B
:1023700000F071F870BD00002DE9F04707460E46E9
:102380009046994600250024A8F12000C5B27F2F71
:1023900002DD0027B01CC6B2B9F1100F24D13146BE
:1023A0003846FFF7D3FF002408E004EB0511194A73
:1023B000505C012100F04FF8601CC4B2082CF4DB23
:1023C000701CC1B23846FFF7C1FF002409E004EBDE
:1023D000051108310F4A505C012100F03CF8601CE7
:1023E000C4B2082CF3DB12E031463846FFF7AEFFEB
:1023F00000240AE005EB4501074A02EB4101085DB4
:10240000012100F028F8601CC4B2062CF2DBBDE804
:10241000F087000048320008203000082DE9F04124
:1024200004460F461546984600260FE0AA5D43462F
:1024300039462046FFF7A0FF04F10800C4B2782C0B
:1024400002DD0024B81CC7B2701CC6B2A85D00280B
:10245000ECD1BDE8F08170B505460C461CB12846AC
:10246000FFF7A2FD02E02846FFF788FD70BD704728
:102470007047000070B50025012400BF2DE040F634
:10248000FF712046FEF774FAC82000F0FBFAB4F59D
:102490007A7F01D2C7341BE042F21070844202D22C
:1024A00004F5FA6414E00E48844203D244F6206036
:1024B00004440DE00B48844202D20B48044407E078
:1024C0000A48844202D20A48044401E0094804440C
:1024D0000948844200D304466D1C3A2DCFD370BD09
:1024E000A086010040420F00400D03008096980036
:1024F00080841E00404B4C00C0EF0B0810B5FEF767
:10250000E7FC10BD10B504460420FFF793FB01481B
:10251000046010BD1402002400B59DB04C210AA82F
:10252000FDF70EFF202102A8FDF70AFF2A480068E8
:1025300020F004002849086000BF002001902648D0
:102540000C30006840F4404023490C3108600846D4
:10255000006800F44040019000BF00BF00BF1E486B
:102560000C30006800F40050B0F5005FF7D1012096
:102570000A9000040B90022013900221149105216F
:102580001591A02116910221179104211891022181
:1025900019910C211A9100211B911C910AA8FEF798
:1025A000E7FF08B100BFFEE73F2002900320039041
:1025B000002004900820059040200690079000011C
:1025C000089040200990022102A8FEF787FD08B17B
:1025D00000BFFEE71DB000BD0C480258204800684F
:1025E00040F470001E4908601E48006840F0010079
:1025F0001C49086000201B49103108601948006818
:102600001949084017490860002016491831086028
:10261000091D0860091D0860124928310860091D5C
:102620000860091D0860091D0860091D0860091D72
:102630000860091D0860091D08600A48006820F448
:1026400080200849086000200649603108600120A8
:1026500006490860C00602498039086070470000DA
:1026600088ED00E0004402587FEDF6EA0881005151
:1026700010B50248FFF75AFB10BD0000E802002425
:1026800070B505460C46074807490860084644608F
:1026900000218160C5600161FFF7FCFA0248FFF785
:1026A00035FB70BD00040040E802002410B5002294
:1026B0000288294B98420ED0B0F1804F0BD0274BA7
:1026C000984208D0264B984205D0264B984202D01B
:1026D000254B984203D122F070024B681A431E4BDF
:1026E000984217D0B0F1804F14D01C4B984211D0B3
:1026F0001B4B98420ED01B4B98420BD01A4B984262
:1027000008D01A4B984205D0194B984202D0194B69
:10271000984203D122F44072CB681A4322F080031E
:102720004C6943EA040202808B68C3620B8803850C
:10273000094B98420BD00C4B984208D00B4B984257
:1027400005D00B4B984202D00A4B984201D10B8A1C
:1027500003860123436110BD0000014000040040D6
:1027600000080040000C004000040140004001400F
:10277000004401400048014000BFFEE70FB4084B91
:1027800010B504A902AA039800F038F8044602A97B
:10279000002000F049F9204610BC5DF814FB000051
:1027A000292A000802480068C0F302207047000090
:1027B0000CED00E010B5002804DB0A07130E054AF3
:1027C000135406E00A07140E034A00F00F031B1F00
:1027D000D45410BD00E400E018ED00E002E008C8A9
:1027E000121F08C1002AFAD170477047002001E08B
:1027F00001C1121F002AFBD1704700002DE9FF4FD5
:102800008BB09A460F460446002606E025280BD0DA
:1028100052460D999047641C761C20780028F5D10B
:102820000FB03046BDE8F08F0025A94601227D4952
:1028300000E0054314F8013F203B02FA03F0084290
:10284000F7D120782E2817D114F8010F45F0040590
:102850002A280ED06FF02F022078A0F1300109292C
:102860000AD809EB890102EB410100EB0109641C64
:10287000F2E757F8049B641C20786C280DD004DC28
:102880004C2812D06A2811D104E074280DD07A287F
:102890000CD10AE045F4001507E0617845F4801595
:1028A000814202D1641C05F58015641C20786928DA
:1028B0003ED006DC0028B3D063280BD0642804D1B6
:1028C00036E0732810D075285CD052460D99904799
:1028D000761CA5E017F8040B8DF8000000208DF899
:1028E0000100E846012003E057F8048B4FF0FF3069
:1028F00069074FF0000501D40AE06D1C4D450DDA63
:102900008542FADB18F805100029F6D106E06D1CA7
:102910008542FCDB18F805100029F8D12E4404E0AC
:1029200018F8010B52460D9990476D1EF8D277E0CA
:1029300000200A90C5F302504FF00A0B02280CD079
:1029400001CFC117021E71F100020CDA0023D0EB97
:10295000030063EB01012D2208E0FF1D27F00707AC
:10296000F7E80201EEE72A0504D52B228DF8242092
:10297000012203E0EA070FD02022F7E70DF120083B
:10298000089218E000200A90C5F302504FF00A0B9D
:10299000022803D001CF00210022EFE7FF1D27F01E
:1029A0000707F7E80201F7E75A460A9BFDF790FC94
:1029B000303208F8012D50EA0102F5D1ADEB0800E4
:1029C00000F1200B680701D44FF00109D94502DD61
:1029D000A9EB0B0000E000208146002506E009A8D5
:1029E0005246405D0D9990476D1C761C08988542B3
:1029F000F5DB04E0302052460D999047761CB9F182
:102A00000001A9F10109F5DC05E018F8010B5246B7
:102A10000D999047761CBBF10001ABF1010BF4DC82
:102A2000641CFAE6092801000A68531C0B60107048
:102A3000704700BF00BF011EA0F10100FAD170472E
:102A40000B4A11700B4A106092ED000AB8EE400A72
:102A5000DFED090A20EE200ADFED080A80EE201AD9
:102A6000BCEEC10A10EE102A054B1A807047000018
:102A70003E0200243802002400FF7F4700401C462D
:102A80003402002430B50446002504E04FF47A7087
:102A900000F004F86D1CA542F8D330BD70B50346B4
:102AA00000224FF0E02675690D4E366803FB06F4F0
:102AB0004FF0E026B16910E04FF0E026B06988429F
:102AC0000BD0884202D20E1A324402E02E1A0E4473
:102AD00032440146A24200D300E0EDE700BF70BDE2
:102AE000140200240024FEF7FFF9FFF729FBFFF78B
:102AF00013FD4FF4C870FFF705FDFFF7B3FA40F27E
:102B0000E7315920FFF7BCFD0A20FFF7BBFFFEF7B6
:102B10005DF82820FFF7B6FFFDF77AFCFFF77AFB98
:102B2000FFF757FB1023D6A200210A20FFF776FCFF
:102B30001023D5A202210A20FFF770FC9FE100209C
:102B4000FFF79EFA0446012C73D1D3480078401C4D
:102B5000D14908701023D1A204210A20FFF75EFC9E
:102B6000CD480078092871D2DFE800F07F051428ED
:102B7000364656647100FDF74BFC1023CCA20421AD
:102B80000A20FFF74BFCCD480188CD480068FDF7CF
:102B9000EFFE6BE01023CBA206210A20FFF73EFCDC
:102BA000FDF7A6FC1023CCA204210A20FFF736FC77
:102BB000CC4942F21070FDF7D5FD57E0FDF774FCEB
:102BC0001023C9A204210A20FFF728FC4FF400516A
:102BD0000020FDF71BFD49E0FDF778FC1023C5A29E
:102BE00004210A20FFF71AFC41F2883240F6B8317E
:102BF000BC48FDF757FD39E0FDF7BEFC1023C0A22D
:102C000004210A20FFF70AFC4FF40023B54ABF490C
:102C1000BF48FDF737FE29E0FDF734FC1023BDA2C5
:102C200004210A20FFF7FAFB64210846FFF708FF9A
:102C30001CE01CE0FDF78EFC1023B9A204210A2041
:102C4000FFF7ECFB1420FDF7DFFD0FE00DE0FDF7D3
:102C5000DFFB1023B5A204210A20FFF7DFFBFFF7FB
:102C600009FC00208C49087000E000BF00BF022C66
:102C700063D18948007801285FD191480068AF4945
:102C8000884242D28E480068B0F57A7F05D28C48DF
:102C9000006864308A49086037E08948006842F279
:102CA0001071884206D28648006800F57A7084491F
:102CB00008602AE0824800688A49884207D2804832
:102CC000006842F2107108447D4908601DE07C48AC
:102CD00000688F49884206D27948006881490844D3
:102CE0007749086011E0764800689549884206D225
:102CF00073480068864908447149086005E07048D7
:102D00000068904908446E4908606C4801886C4826
:102D10000068FDF72DFE10236AA206210A20FFF7A6
:102D20007DFB674888A102688948FFF727FD1023CB
:102D3000874A06210A20FFF771FB032C62D156480F
:102D4000007801285ED15E480068642842D95C485A
:102D500000687B49884206D9594800684910401AE2
:102D60005749086036E0564800686949884205D9E5
:102D700053480068401A524908602BE050480068E8
:102D80005849884205D94E480068401A4C490860A5
:102D900020E04B48006842F21071884205D948484B
:102DA0000068401A4649086014E045480068B0F5DC
:102DB0007A7F06D942480068A0F57A7040490860D9
:102DC00008E03F480068642804D93D48006864383A
:102DD0003B4908603948018839480068FDF7C8FD5B
:102DE000102338A206210A20FFF718FB344856A109
:102DF00002685748FFF7C2FC1023554A06210A20F3
:102E0000FFF70CFB24480078062838D15148007899
:102E1000012834D100204F4908704F4800884F499D
:102E2000098808444C4908800846008800124C492B
:102E300031F8100000EE100AF8EE400A4948007818
:102E400000EE100AB8EE400A60EE800A9FED461AC6
:102E500080EE810ADFED450A30EEC00ADFED430A5D
:102E600020EE200ADFED420A80EE201ABCEEC10AF5
:102E700010EE100A85B229463E48FDF78FFB5EE64C
:102E8000544553540000000057656C636F6D652016
:102E9000746F20757365000000000024202020203E
:102EA0002020202020202020202020202000000082
:102EB00020202053494E45202020000008000024F7
:102EC000040000242020202020202020202020205A
:102ED000202020202020000020202046534B2020AE
:102EE00020000000A08601002020204250534B20EB
:102EF000202000002020204348495250202020005C
:102F00002020205246534B2020200000005A62020D
:102F100040420F0020202041204D202020000000B2
:102F20002020204F534B2020200000002020207321
:102F30007765657053494E4520202000C0EF0B088F
:102F400080969800404B4C00256C6420485A000045
:102F500068020024290200243202002434020024E2
:102F60000C0000243E0200240000C84200F07F450F
:102F70000000804500350C0001000200040006003E
:102F800008000A000C001000200040008000000132
:102F9000010002000400060008000A000C001000F6
:102FA0002000400080000001000000000102030436
:102FB00001020304060708090100020004000600DC
:102FC00008000A000C0010002000400080000001F2
:102FD000010002000400060008000A000C001000B6
:102FE00020004000800000010100020004000800F1
:102FF000010002000400060008000A000C00100096
:1030000020004000800000010100020004000600D2
:1030100008000A000C0010002000400080000001A1
:103020000000000000000000002F0000000007006A
:10303000070000147F147F1400242A7F2A120062E4
:103040006408132300364955225000000503000090
:1030500000001C224100000041221C000014083E18
:1030600008140008083E0808000000A060000008DE
:103070000808080800006060000000201008040232
:10308000003E5149453E0000427F400000426151F0
:103090004946002141454B31001814127F1000278A
:1030A00045454539003C4A4949300001710905034D
:1030B00000364949493600064949291E000036367E
:1030C00000000000563600000008142241000014E1
:1030D00014141414000041221408000201510906BE
:1030E00000324959513E007C1211127C007F49493F
:1030F0004936003E41414122007F4141221C007F70
:1031000049494941007F09090901003E4149497A7D
:10311000007F0808087F0000417F410000204041F7
:103120003F01007F08142241007F40404040007F63
:10313000020C027F007F0408107F003E4141413EA7
:10314000007F09090906003E4151215E007F0919EF
:1031500029460046494949310001017F0101003FEC
:103160004040403F001F2040201F003F4038403F6C
:1031700000631408146300070870080700615149D0
:10318000454300007F41410000552A552A55000063
:1031900041417F00000402010204004040404040E1
:1031A000000001020400002054545478007F484479
:1031B000443800384444442000384444487F0038B0
:1031C0005454541800087E0901020018A4A4A47CD9
:1031D000007F080404780000447D400000408084A3
:1031E0007D00007F102844000000417F4000007CEB
:1031F00004180478007C08040478003844444438F7
:1032000000FC242424180018242418FC007C080442
:10321000040800485454542000043F444020003C1B
:103220004040207C001C2040201C003C4030403CA2
:10323000004428102844001CA0A0A07C0044645432
:103240004C44141414141414000000000000000076
:103250000000000000000000000000F80000000076
:10326000000000333000000000100C06100C0600B7
:10327000000000000000000040C07840C07840001E
:10328000043F04043F040400007088FC0830000080
:10329000001820FF211E0000F008F000E0180000D8
:1032A00000211C031E211E0000F008887000000091
:1032B0001E2123241927211010160E0000000000E3
:1032C0000000000000000000000000E01804020000
:1032D000000000071820400000020418E000000071
:1032E0000040201807000000404080F0804040006F
:1032F0000202010F01020200000000F000000000C5
:103300000101011F01010100000000000000000098
:1033100080B070000000000000000000000000000D
:103320000001010101010101000000000000000096
:103330000030300000000000000000008060180431
:10334000006018060100000000E010080810E0000E
:10335000000F102020100F00001010F800000000D7
:103360000020203F2020000000700808088870001E
:10337000003028242221300000300888884830009E
:103380000018202020110E000000C02010F80000BE
:1033900000070424243F240000F808888808080057
:1033A0000019212020110E0000E01088881800006C
:1033B000000F112020110E0000380808C83808003E
:1033C0000000003F000000000070880808887000BE
:1033D000001C222121221C0000E010080810E0003F
:1033E0000000312222110F00000000C0C0000000C8
:1033F00000000030300000000000008000000000ED
:1034000000008060000000000000804020100800E4
:1034100000010204081020004040404040404000AD
:103420000404040404040400000810204080000088
:103430000020100804020100007048080808F0008D
:103440000000003036010000C030C828E810E0005D
:103450000718272423140B000000C038E0000000E8
:10346000203C23020227382008F888888870000052
:10347000203F202020110E00C03008080808380026
:10348000071820202010080008F808080810E0009D
:10349000203F202020100F0008F88888E80810003E
:1034A000203F20202320180008F88888E808100012
:1034B000203F200003000000C0300808083800004A
:1034C00007182020221E020008F808000008F8084B
:1034D000203F210101213F20000808F808080000D2
:1034E0000020203F2020000000000808F808080005
:1034F000C08080807F00000008F888C0281808007D
:10350000203F20012638200008F8080000000000B5
:10351000203F20202020300008F8F800F8F80800AC
:10352000203F003F003F200008F830C00008F808A6
:10353000203F200007183F00E01008080810E000B6
:103540000F10202020100F0008F808080808F000CD
:10355000203F210101010000E01008080810E000F0
:103560000F18242438504F0008F888888888700085
:10357000203F2000030C3020007088080808380025
:103580000038202121221C00180808F8080818001B
:103590000000203F2000000008F808000008F8089C
:1035A000001F202020201F000878880000C838084D
:1035B000000007380E010000F80800F80008F800C5
:1035C000033C0700073C030008186880806818085F
:1035D00020302C03032C30200838C800C8380800DD
:1035E0000000203F2000000010080808C83808002C
:1035F0002038262120201800000000FE02020200D0
:103600000000007F40404000000C30C0000000007F
:10361000000000010638C00000020202FE000000A7
:10362000004040407F00000000000402020204004D
:10363000000000000000000000000000000000008A
:103640008080808080808080000202040000000072
:10365000000000000000000000008080808000006A
:103660000019242222223F2008F800808000000058
:10367000003F112020110E0000000080808000001B
:10368000000E112020201100000000808088F8002A
:10369000000E112020103F2000008080808000005C
:1036A000001F222222221300008080F088888818C0
:1036B0000020203F202000000000808080808000CB
:1036C000006B94949493600008F800808080000060
:1036D000203F210000203F2000809898000000003B
:1036E0000020203F2020000000000080989800006B
:1036F00000C08080807F000008F80000808080008B
:10370000203F24022D302000000808F800000000AF
:103710000020203F2020000080808080808080006A
:10372000203F20003F20003F8080008080800000FC
:10373000203F210000203F2000008080808000008A
:10374000001F202020201F008080008080000000BB
:1037500080FFA12020110E000000008080808000EA
:10376000000E112020A0FF808080800080808000DB
:1037700020203F2120000100000080808080800008
:103780000033242424241900008080E0808000007D
:103790000000001F202000008080000000808000CA
:1037A000001F202020103F2080808000008080802B
:1037B00000010E30080601008080008000808080BB
:1037C0000F300C030C300F000080800080808000E0
:1037D0000020312E0E31200080808000008080800B
:1037E00080818E70180601000080808080808000BB
:1037F0000021302C2221300000000000807C0202D9
:1038000000000000003F404000000000FF000000FA
:1038100000000000FF0000000002027C80000000A9
:103820000040403F000000000006010102020404C5
:1038300000000000000000005838000800000024CC
:1038400068020000B8030008483A00086802002433
:10385000C0040000EC2700084123E8031BFF0F040D
:10386000387F07310863089608C808FA082B095DF5
:10387000098E09C009F109210A510A810AB10AE039
:103880000A0F0B3D0B6A0B980BC40BF00B1C0C467C
:103890000C710C9A0CC30CEB0C120D380D5E0D83E1
:1038A0000DA70DCA0DEC0D0D0E2E0E4D0E6C0E89D2
:1038B0000EA50EC10EDB0EF50E0D0F240F3A0F4FA5
:1038C0000F630F750F870F970FA60FB40FC10FCDA2
:1038D0000FD70FE00FE80FEF0FF50FF90FFC0FFEFA
:1038E000021AFC0C1AF5141AE81C1AD7241AC12C57
:1038F0001AA6341A873C1A63441A3A4C1C0D0FF569
:10390000581AC1601A89681A4D701C0D0EEC7C1A89
:10391000A7841A5E8C1C120DEB981A9AA01E460CF6
:103920001C0CF0B01A98B81E3D0B0F0BE0C81A81A2
:10393000D01C210AF1DC1A8EE41C2B09FAF01A962D
:10394000F8105C3108FF07CD079B076807360704AE
:1039500007D306A10670063E060D06DD05AD057D02
:10396000054D051E05EF04C104940466043A040ED7
:1039700004E203B8038D0364033B031303EC02C6A4
:1039800002A0027B02570234021202F101D001B1FF
:10399000019201750159013D0123010901F112DA7A
:1039A00012C412AF129B1289127712671258124A70
:1039B000123D12311227121E1216120F1209120591
:1039C00072021A020C1A09141A161C1A27241A3D1C
:1039D0002C1A58341A773C1A9B441AC44C12F11A08
:1039E0000A581A3D601A75681AB1701CF101127CF0
:1039F0001A57841AA08C1CEC0213981A64A01EB8E3
:103A000003E2030EB01A66B81EC104EF041EC81A02
:103A10007DD01CDD050EDC1A70E41CD30604F01A00
:103A200068F813CD073C90D0030441AC1002580451
:103A30000217011A01B212041208121012201240C9
:083A4000CA8011294739242135
:040000050800029954
:00000001FF
