:020000040800F2
:1000000008040020450100084D0100084F010008C8
:1000100051010008530100085501000800000000CC
:100020000000000000000000000000005701000870
:1000300059010008000000005B0100085D01000894
:100040005F0100085F0100085F0100085F01000810
:100050005F0100085F0100085F0100085F01000800
:100060005F0100085F0100085F0100085F010008F0
:100070005F0100085F0100085F0100085F010008E0
:100080005F0100085F0100085F0100085F010008D0
:100090005F0100085F0100085F0100085F010008C0
:1000A0005F0100085F0100085F0100085F010008B0
:1000B0005F0100085F0100085F0100085F010008A0
:1000C0005F0100085F0100085F0100085F01000890
:1000D0005F0100085F0100085F0100085F01000880
:1000E0005F0100085F0100085F0100085F01000870
:1000F0005F0100085F0100085F0100085F01000860
:100100005F0100085F0100085F0100085F0100084F
:100110005F0100085F0100085F0100085F0100083F
:100120005F0100085F0100085F0100085F0100082F
:10013000DFF80CD000F018F80048004781060008EE
:10014000080400200648804706480047FEE7FEE70F
:10015000FEE7FEE7FEE7FEE7FEE7FEE7FEE7FEE777
:100160000106000831010008064C074D06E0E06872
:1001700040F0010394E8070098471034AC42F6D3EE
:10018000FFF7DAFFB8060008D806000810B51021FE
:100190001A4800F0ACF90221184800F0A8F904212F
:1001A000164800F0A4F90821144800F0A2F90A202A
:1001B00000F086F80821114800F099F980211048D4
:1001C00000F095F901210D4800F091F9072000F0A9
:1001D00053F8002000F050F80A2000F04DF80020FD
:1001E00000F04AF8602000F047F80421034800F0CE
:1001F00080F90421014800F07AF910BD001C01408B
:10020000000801402DE9F04107460C46002638461B
:1002100000F08EF806250CE016B9022000F02CF84C
:10022000691EC9B20D46124A505C00F025F8701CD8
:10023000C6B2002DF0DC082000F01EF8201200F0FD
:100240001BF8E0B200F018F8092000F015F82012B1
:1002500000F012F8E0B200F00FF80421054800F0B9
:1002600048F90421034800F042F9BDE8F08100009C
:1002700000000020001C014070B50446082517E06E
:1002800004F0800020B120210B4800F032F903E097
:100290002021094800F02BF96006040E02210748CE
:1002A00000F025F90221054800F023F9681EC5B2C7
:1002B000002DE5DC70BD000000080140001C01407D
:1002C00000BF072100BF0B2200BF531E9BB21A1EA6
:1002D000FBD14B1E9BB2191EF5D1431EDBB2181E7B
:1002E000EFD1704700BF772100BF432200BF531EEC
:1002F0009BB21A1EFBD14B1E9BB2191EF5D1431E99
:10030000DBB2181EEFD1704700BF40F2712100BF71
:100310003F2200BF531E9BB21A1EFBD14B1E9BB245
:10032000191EF5D1431EDBB2181EEED17047000036
:1003300018B50146144ACBB28DF800300B0A8DF87F
:1003400001300B0C8DF802300B0E8DF803309DF848
:10035000003003FB02F00D4C2070000A9DF80130C4
:1003600002FB03006070000A9DF8023002FB0300EC
:10037000A070000A9DF8033002FB0300E070000A41
:100380002071030A637118BD0A510E00000000209D
:1003900008B50121842000F0AFF8E020ADF800009E
:1003A00003208DF8020010208DF8030069460848EC
:1003B00000F012F87F20ADF8000003208DF8020055
:1003C00010208DF803006946024800F005F808BDCA
:1003D00000080140001C01402DE9F04102460025C3
:1003E0000026002000230024002791F803C00CF011
:1003F0000F0591F803C00CF0100CBCF1000F03D0F6
:1004000091F802C04CEA050591F800C0BCF1000F5C
:1004100031D0146800202BE04FF0010C0CFA00F3EF
:10042000B1F800C00CEA03069E4220D183004FF0D1
:100430000F0C0CFA03F7BC4305FA03FC4CEA040466
:1004400091F803C0BCF1280F06D14FF0010C0CFA53
:1004500000FCC2F814C00AE091F803C0BCF1480FD8
:1004600005D14FF0010C0CFA00FCC2F810C0401C82
:100470000828D1D31460B1F800C0BCF1FF0F34DDFF
:10048000546800202EE000F1080C4FF0010808FA33
:100490000CF3B1F800C00CEA03069E4221D18300A0
:1004A0004FF00F0C0CFA03F7BC4305FA03FC4CEABF
:1004B000040491F803C0BCF1280F05D100F1080C29
:1004C00008FA0CF8C2F8148091F803C0BCF1480F88
:1004D00007D100F1080C4FF0010808FA0CF8C2F837
:1004E0001080401C0828CED35460BDE8F0814161E3
:1004F000704701617047000029B1064A92690243C2
:10050000044B9A6104E0034A92698243014B9A6169
:10051000704700000010024010B500F001F810BD57
:100520000CB50020019000903348006840F4803002
:100530003149086000BF3048006800F40030009086
:100540000198401C0190009818B90198B0F5A06F6F
:10055000F1D12948006800F4003010B1012000906A
:1005600001E0002000900098012843D12348006852
:1005700040F01000214908600846006820F00300A0
:1005800008600846006840F0020008601A484068A9
:10059000194948600846406848600846406840F489
:1005A000806048600846406820F47C104860084637
:1005B000406840F4E81048600846006840F08070E9
:1005C000086000BF0C48006800F000700028F9D0F7
:1005D0000948406820F00300074948600846406821
:1005E00040F00200486000BF0348406800F00C0083
:1005F0000828F9D10CBD0000001002400020024084
:1006000010B51348006840F0010011490860084621
:100610004068104908400E494860084600680E4985
:1006200008400B4908600846006820F480200860F4
:100630000846406820F4FE0048604FF41F008860C0
:10064000FFF76AFF4FF000600449086010BD00002A
:10065000001002400000FFF8FFFFF6FE08ED00E08A
:1006600002E008C8121F08C1002AFAD1704770477B
:10067000002001E001C1121F002AFBD170470000D9
:100680006420FFF741FEFFF783FE0520FFF72AFEF7
:10069000FFF77CFD0F20FFF725FE4FF47A74054825
:1006A000844200D9044640F6FF712046FFF7AAFDB8
:1006B00000BFFEE7FFE0F505D806000800000020B7
:1006C0000800000060060008E0060008080000209E
:1006D0000004000070060008000000000000000098
:0400000508000131BD
:00000001FF
