:020000040800F2
:10000000501D0020A9010008F31D0008A51C0008D0
:10001000F11D0008CD090008B12000080000000013
:10002000000000000000000000000000F71D0008B4
:100030008D0A000800000000F51D0008F91D0008E9
:10004000C3010008C3010008C3010008C301000880
:10005000C3010008C3010008C3010008C301000870
:10006000C3010008C3010008C3010008C301000860
:10007000C3010008C3010008C3010008C301000850
:10008000C3010008C3010008C3010008000000000C
:10009000000000000000000000000000C301000894
:1000A000C3010008C3010008C3010008C301000820
:1000B000C3010008C3010008C3010008C301000810
:1000C000C3010008C3010008C3010008C301000800
:1000D000C3010008C3010008C301000800000000BC
:1000E000C3010008C3010008C301000800000000AC
:1000F000000000000000000000000000C301000834
:1001000000000000C3010008C3010008C30100088B
:1001100000000000000000000000000000000000DF
:10012000D1090008C3010008C3010008C301000889
:10013000C3010008000000000000000000000000F3
:10014000000000000000000000000000C3010008E3
:10015000C3010008C3010008C3010008C30100086F
:10016000C3010008C30100080000000000000000F7
:10017000000000000000000000000000000000007F
:1001800000000000C30100080000000000000000A3
:10019000C3010008DFF80CD000F018FB004800474E
:1001A000BD290008501D002006488047064800472A
:1001B000FEE7FEE7FEE7FEE7FEE7FEE7FEE7FEE717
:1001C000FEE7FEE7911E0008950100082DE9F05FAB
:1001D0000546002092469B468846064681464024B6
:1001E0001BE0284641464746224600F074F9534634
:1001F0005A46C01A914110D311461846224600F0C3
:100200005BF92D1A67EB01084F46224601200021B9
:1002100000F052F917EB00094E41201EA4F1010431
:10022000DFDC484631462A464346BDE8F09FD2B25D
:1002300001E000F8012B491EFBD270470022F6E7CF
:1002400010B513460A4604461946FFF7F0FF20464C
:1002500010BD2DE9FE4F81EA030404F0004421F0B3
:10026000004100944FF0000B23F0004350EA0104DA
:100270005ED052EA03045BD0C3F30A54C1F30A55BB
:100280002C44A4F2F3340194A0FB0254C1F31301F3
:1002900041F48011C3F3130343F4801301FB0244C0
:1002A00000FB034E840A970A44EA815447EA8357C5
:1002B000A4FB076802958D0A05FB07854FEA932C7E
:1002C00004FB0C542705029D4FEA065847EA1637EF
:1002D000B5EB08056EEB070C870E920E47EA811707
:1002E00042EA8312A7FB0201B6EB0B0164EB0004A8
:1002F0002B0D43EA0C335E1844EB1C50DA46514692
:10030000E7FB0201C5F313044FEA0B3343EA14532E
:100310004FEA0432019C43EA0603A4F10C04029460
:10032000009CCDE900B400F02CF903B0BDE8F08FDB
:1003300000200146F9E72DE9F04D81EA030404F0BD
:10034000004B21F0004514464FF0000A23F0004115
:1003500050EA050220D054EA01021DD0C5F30A5725
:100360000246C5F31303C1F31300C1F30A5640F468
:10037000801543F48013A7EB0608101BD64608F23D
:10038000FD3873EB050002D308F1010801E0921873
:100390005B41B8F1000F03DA00200146BDE8F08DA3
:1003A00000204FF48011064684460EE0171B73EBC5
:1003B000050705D3121B63EB050306434CEA010C4A
:1003C00049084FEA300092185B4150EA0107EDD12D
:1003D00052EA030012D082EA040083EA05010843CE
:1003E00005D0101BAB4106D20122002306E00022FB
:1003F0004FF0004302E06FF0010253101AEB0600C9
:100400004CEB085110EB0A0041EB0B01BDE8F04D3D
:1004100000F0A8B80EB540F2334102910021CDE9B9
:1004200000110A460B4600F0ACF803B000BD00F026
:10043000004230F000400AD0C10D01F56071C0F3F8
:10044000160042EA0151C2084007114370470020DC
:100450000146704701F0004330B421F0004150EAFA
:10046000010206D00A0DA2F56072C1F31301002A41
:1004700002DC30BC00207047440F44EAC104C100D4
:10048000E01830BC00EBC25000F035B830B50B4678
:10049000014600202022012409E021FA02F59D42B4
:1004A00005D303FA02F5491B04FA02F52844151E88
:1004B000A2F10102F1DC30BD202A04DB203A00FA6F
:1004C00002F1002070479140C2F1200320FA03F3AB
:1004D000194390407047202A04DB203A21FA02F0A9
:1004E0000021704721FA02F3D040C2F1200291406E
:1004F0000843194670470029A8BF7047401C4900AF
:1005000008BF20F00100704710B4B0FA80FC00FA78
:100510000CF050EA010404BF10BC704749B1CCF1A3
:10052000200421FA04F411FA0CF118BF012121432F
:100530000843A3EB0C01CB1D4FEA00614FEA1020EA
:1005400042BF002010BC704700EBC350104400298C
:10055000A4BF10BC7047401C490008BF20F0010038
:1005600010BC704710B5141E73F1000408DA401C6B
:1005700041F1000192185B411A4301D120F00100C2
:1005800010BD2DE9F04D92469B4611B1B1FA81F2B2
:1005900002E0B0FA80F220329046FFF78DFF044669
:1005A0000F4640EA0A0041EA0B0153465A46084307
:1005B00013D0114653EA010019D0C8F14002504649
:1005C000FFF789FF05460E46504659464246FFF75B
:1005D00073FF084305D0012004E020463946BDE8FA
:1005E000F08D0020054346EAE0762C4337430A9815
:1005F0006305E40AA0EB08000022FD0A44EA475420
:100600000A3002D500200146E9E7010510196941C9
:10061000DDE9084500196941BDE8F04DA2E72DE983
:10062000FE4F804681EA0300C00F0C46009021F087
:10063000004123F00045B8EB0200A94105D2404635
:10064000214690461C460B46024623F000401043CC
:1006500047D0270DC7F30A00C3F30A510290401A8E
:10066000019040286BDAC3F3130040F4801B00981C
:10067000924620B10023D2EB030A63EB0B0B0198E7
:100680005946C0F140025046FFF716FF06460D4698
:1006900050465946019A00F0ABF810EB0800614152
:1006A000002487EA115284EAE7731A4340D0009A83
:1006B00062B3019A012A4FEA075215DC001B61EB75
:1006C00002014FF0004202EA0752CDE90042001C4D
:1006D00041F5801132462B46FFF753FF03B0BDE8CA
:1006E000F08F40462146F9E7001B61EB0201001C38
:1006F00041F5801300185B412018A2F5001747EB65
:10070000030140EAD570B6196D4111E06D084FEA5A
:10071000360645EAC0754FEA0752001B61EB02013D
:10072000001C41F5801149084FEA30000019514181
:1007300032462B4603B0BDE8F04FFFF713BF0098D9
:10074000012240000023D0EB020263EBE07300982B
:1007500021464FEAE074B8EB000061EB0401E9E7E1
:1007600083F000435BE781F0004158E7C1F30A5290
:10077000C1F3130140F2FF3341F480119A4202DACF
:1007800000200146704740F233439A42A2F23342BE
:1007900002DC5242FFF79FBEFFF78EBE30B5041E4B
:1007A00071F1000404DB4FF00044404264EB0101AE
:1007B000141E73F1000405DB1C464FF00043524247
:1007C00063EB0403994208BF904230BD064C074DCD
:1007D00006E0E06840F0010394E807009847103411
:1007E000AC42F6D3FFF7DAFCA82A0008C82A0008B2
:1007F000202A06DBCB17203A41FA02F043EAE073E5
:1008000006E041FA02F3D040C2F1200291400843D1
:100810001946704710B50146806B026C12F0500FFC
:1008200005D0026CD20626D500F0DCF910BD016CB3
:1008300041F40071016401688A6812F0405F17D1C9
:10084000027EAAB9CA6A12F4700F02D08A685205F1
:100850000ED44A6822F020024A60016C21F48071B3
:100860000164016CC90403D4016C41F0010101640D
:1008700000F0B6F910BD806BC26CBDE810400846B0
:10088000104710B5806B40210164416C41F00401B8
:10089000416400F0A7F910BD10B5806B00F0A1F91C
:1008A00010BD0000464910B54A6822F440324A6043
:1008B0004A6843681A434A6001684A6822F48072B1
:1008C0004A6001684A68036942EA03224A60016893
:1008D0004A6822F040724A6001684A6883681A4395
:1008E0004A6001688A6822F400628A6001688A6846
:1008F000C3681A438A60816A6FF07062D1420168EE
:100900008A6822F070628A6001688A680CD0836A03
:100910001A438A6001688A6822F040528A6001683E
:100920008A68C36A1A4301E022F040528A60016873
:100930008A6822F002028A6001688A68037E42EABD
:1009400043028A6090F82010002901684A680FD09D
:1009500042F400624A6001684A6822F460424A60D8
:1009600001684A68174C436A04EB43331A4301E0B9
:1009700022F400624A600168CA6A22F47002CA6204
:100980000168CA6A838B104C04EB03531A43CA6292
:1009900001688A6822F400728A6001688A6890F8A7
:1009A000303042EA43228A6001688A6822F4806219
:1009B0008A6001688A68406942EA8020886010BDC8
:1009C0000023014000E0FFFF0000F0FFFEE7000011
:1009D00010B5034800F010FA02490120087010BD5C
:1009E000601800200000002001681823CAB2103AE5
:1009F000B2FBF3F2054B6FF30901032A9B5CC3655D
:100A000000D9091D8165084670470000882A000842
:100A100010B5014600208B698A6A4FF0C07453B14B
:100A2000B3F5005F15D072B1012A0CD0022A0AD0AA
:100A3000032A09D104E01AB1012A06D0022A03D1FF
:100A4000C96AC90100D5012010BDC96AA142FAD006
:100A500010BD002AF7D0012AF2D0022AF3D0032ACF
:100A6000F3D010BD30B50468256825F480252560D5
:100A7000046863608368402B036803D09960006852
:100A8000C26030BD9A600068C16030BD704772B608
:100A9000FEE7000078B50024009490F83C20012A7D
:100AA00019D0012280F83C200A6807230568092A2A
:100AB00013D9EE680A3A02EB420293409E43EE607D
:100AC0000B788A680A3B03EB43039A400368DD68AE
:100AD0002A43DA6010E0022078BD2E6902EB420260
:100AE00093409E432E610B788A6803EB43039A4040
:100AF00003681D692A431A614A681F23072A13D213
:100B000005686E6B521E02EB820293409E436E6339
:100B10000B790A885B1E92B203EB83039A40036849
:100B20005D6B2A435A6327E005680D2A12D22E6BAB
:100B3000D21F02EB820293409E432E630B790A88F8
:100B4000DB1F92B203EB83039A4003681D6B2A43B9
:100B50001A6311E0EE6A0D3A02EB820293409E4363
:100B6000EE620B790A880D3B92B203EB83039A4045
:100B70000368DD6A2A43DA62164B0568144A9D420F
:100B800006D10D68122D03D1556845F480055560D6
:100B900005689D4218D10B68102B01D0112B13D181
:100BA000536843F400035360096810290CD10A49C3
:100BB0000A4A0968B1FBF2F101EB8101490000E04A
:100BC000491E00910029FBD180F83C40002078BDEF
:100BD00000230140002001401400002040420F008B
:100BE00070477047704770B504004FF0000503D0A0
:100BF000206C002610B107E0012070BD204600F0F7
:100C00001DF8666484F83C60206CC00610D4206C2B
:100C100020F4885040F0020020642046FFF742FE96
:100C20006664206C20F0020040F00100206400E0C7
:100C3000012584F83C60284670BD000070B586B080
:100C4000064614216846FFF7F9FA1D4930688842C4
:100C500033D11C480025016841F4807101600068AF
:100C600000F48070059017481438016841F00101C4
:100C700001600068694600F0010005904020009086
:100C80000320CDE90105104800F03AFA104C0F4856
:100C9000C4E900050015A560C4E903504000606187
:100CA0008000C4E9060525622046656200F074F9FB
:100CB00008B1FFF7ECFEB463A66306B070BD000098
:100CC000002001404438024000000240106402400D
:100CD00060180020F8B5044600200E46009094F8F5
:100CE0003C10012907D0012184F83C1021688B6851
:100CF000DB0702D011E00220F8BD8B6843F001034E
:100D00008B603649364B0968B1FBF3F101EB4101C9
:100D100000E0491E00910029FBD121688B68DB05AA
:100D200003D58B6823F480738B6021688B68DB07A5
:100D300049D0236C40F20165AB4343F480732364D4
:100D40004968490505D5216C21F4005141F48051D1
:100D50002164216CC90404D5616C21F00601616431
:100D600000E0606484F83C00A16B1F481D4DC8631F
:100D7000A16B1E480864A16B1D48C86421686FF010
:100D8000220008602068416841F08061416020686D
:100D9000816841F4807181602168134632464C318C
:100DA000A06B00F063F96868C006206802D01149A2
:100DB000884210D1816811F0405F0CD1816841F008
:100DC0008041816007E0206C40F010002064606C7E
:100DD00040F0010060640020F8BD00001400002015
:100DE00040420F0000230140150800089908000840
:100DF00083080008002001402DE9F84304464FF025
:100E00000009CDF8009063484FF41651A56D0068B5
:100E1000B0FBF1F72E6894F85C10082000FA01F19D
:100E200031420FD021680A6852070BD50A6822F0B8
:100E300004020A6094F85C108840A860606D40F07D
:100E40000100606594F85C104FF0010808FA01F0A9
:100E5000304208D021684969090604D5A860606D50
:100E600040F00200606594F85C1004208840304235
:100E700008D021680968890704D5A860606D40F032
:100E80000400606594F85C1010208840304218D04F
:100E900021680968090714D5A8602068016849031A
:100EA00004D50068000308D5A16C07E00168C905F6
:100EB00003D4016821F008010160216C09B12046CA
:100EC000884794F85C1020208840304231D0216857
:100ED0000968C9062DD5A86094F835000528206852
:100EE000016806D0490347D5006800031DD4616C32
:100EF0001CE021F0160101602068416921F08001A9
:100F00004161206C08B9A06C20B12068016821F013
:100F10000801016094F85C103F208840A86084F8C4
:100F2000358084F83490216D1FE0E16B09B12046D3
:100F30008847606D00282BD0606DC00714D0052055
:100F400084F835002068016821F0010101600098F3
:100F5000401C0090B84203D820680068C007F6D152
:100F600084F8358084F83490E16C002910D001B009
:100F70002046BDE8F04308470168C905D5D401689B
:100F800021F01001016084F8358084F83490CCE7BA
:100F9000BDE8F883140000202DE9F041044600F07C
:100FA0009FF906465CB1022084F83500002584F8DC
:100FB00034502068016821F0010101600DE001203A
:100FC000BDE8F08100F08CF9801B052805D92020B0
:100FD0006065032084F83500F2E720680068C007E8
:100FE000F0D12268116820480140D4E90103184378
:100FF000D4E903363343184363691843A36918439C
:10100000E3691843236A18430843616A042903D13A
:10101000D4E90B1319430843106020684069666ADD
:1010200020F0070130460E43012704280CD1A06AA6
:101030000643E06A40B12046FFF7EAFC20B14020B9
:10104000606584F83570BAE7206846612046FFF78E
:10105000CBFC94F85C203F2191408160656584F869
:1010600035700020ACE700003F8010F02DE9F04122
:101070000446866D90F83400002501280DD001202B
:1010800084F8340094F835700020012F07D084F8DC
:10109000340002252846BDE8F0810220FBE7022744
:1010A00084F8357060652046FFF7DCFC94F85C102E
:1010B0003F208840B0602068016841F0160101605F
:1010C000206C20B12068016841F0080101602068AF
:1010D000016841F001010160DCE7000070B50446E1
:1010E00000F0FEF80546601C02D004480078044475
:1010F00000F0F6F8401BA042FAD370BD08000020B3
:101100002DE9F84FDFF8B8A10022012403254FF0A4
:101110000F090AF1040BAAF1040E00BF0B6804FAD0
:1011200002F63340B34273D10F7907F00307012F62
:1011300001D0022F16D187684FEA420805FA08FC51
:1011400027EA0C07D1F80CC00CFA08FC4CEA070C93
:10115000C0F808C04768B7430E79C6F3001696403A
:101160003E4346600E79F643B6070DD0C768560079
:1011700005FA06FC27EA0C07D1F808C00CFA06FCB1
:101180004CEA070CC0F80CC00E7906F00306022EDC
:1011900010D1D60800EB8608D8F8206057074FEA30
:1011A000D76C09FA0CF7BE430F6907FA0CF73743FF
:1011B000C8F8207006684FEA420C05FA0CF7BE43E7
:1011C0000F7907F0030707FA0CF7374307604E68FB
:1011D00016F4403F6DD03B4E376847F48047376088
:1011E000366822F0030706F480460096364E07EB79
:1011F000060CDCF8086897073F0F09FA07F826EA9B
:101200000806DFF8C880404503D14FF000081EE013
:101210004FE0DFF8BC80404502D14FF0010816E0F6
:10122000DFF8B080404502D14FF002080FE0DFF850
:10123000A880404502D14FF0030808E0DFF89C8009
:10124000404502D14FF0040801E04FF0070808FACA
:1012500007F848EA0608CCF80888DAF8006057462C
:10126000D1F804C09E435FEACC2C00D51E433E60FB
:10127000DBF800605F46D1F804C09E435FEA8C2C27
:1012800000D51E433E60DEF800607746D1F804C00A
:101290009E435FEA8C3C00D51E433E60084F083FEA
:1012A0003E68D1F804C09E435FEACC3C00D51E43A3
:1012B0003E60521C102AFFF431AFBDE8F88F0000E9
:1012C000083C014044380240003001400000024028
:1012D0000004024000080240000C024000100240DE
:1012E00001488068704700000800002002488168BB
:1012F0000278114481607047080000200B4810B547
:10130000016841F400710160016841F4806101608D
:10131000016841F480710160032000F06FF80F2034
:1013200000F006F800F024F8002010BD003C024058
:1013300070B50D4D04464FF47A712878B1FBF0F08A
:101340000A490968B1FBF0F000F00CFB48B9102C19
:1013500007D200222146501E00F030F800206C60B9
:1013600070BD012070BD00000800002014000020A6
:101370000A4808B5016841F480410160006800F442
:10138000804000900548001F016841F080510160D5
:10139000006800F08050009008BD00004438024012
:1013A000002809DB00F01F02012191404009800064
:1013B00000F1E020C0F8001170470000F0B40E4BBF
:1013C0001B680C46C3F30223C3F10705042D00D9A3
:1013D0000425191D072901D2002300E0DB1E012688
:1013E00006FA05F1491E214099409E40761E16409E
:1013F0003143F0BC00F06EBE0CED00E0064900F099
:10140000070208684FF6FF03184040EA0220034A2B
:1014100010430860704700000CED00E00000FA0582
:101420002DE9F0470E46050065D0DFF81481D8F8A5
:101430000000F7B200F00700B04207D288F8007051
:10144000D8F8000000F00700B04254D128683D4CA5
:10145000810712D5400703D5206840F4E050206092
:101460002878000703D5206840F460402060206899
:10147000A96820F0F000084320602878C0072DD02C
:10148000304968680839012812D0022813D003288F
:1014900011D00968890700292DDA216821F003019C
:1014A00001432160FFF71CFF814641F2883A0EE0BC
:1014B00009688903EFE709688901ECE7FFF710FF86
:1014C000A0EB0901514502D90320BDE8F08720684F
:1014D000696800F00C00B0EB810FEFD1D8F8001074
:1014E000404601F00701B14207D90770006800F0DB
:1014F0000700B04201D00120E7E72878400705D572
:101500002068E96820F4E05008432060287800074C
:1015100006D52068296920F4604040EAC1002060B7
:1015200000F038F82168084AC1F30311515CC84043
:101530000649086006480068FFF7FAFE0020C4E785
:10154000003C024008380240902A000814000020A5
:101550000C0000200448054900680968044AC1F3EA
:101560008221515CC84070471400002008380240B6
:10157000A02A00080448054900680968044AC1F324
:101580004231515CC84070471400002008380240C6
:10159000A02A0008154810B5006810F00C02144885
:1015A00013D01449042A0FD0082A0ED10F4C241F3F
:1015B0002268236802F03F025B0207D52068C0F36F
:1015C0008810A0FB010106E0084610BD2168C1F3A8
:1015D0008811A1FB00010023FEF7F8FD2168C1F38B
:1015E0000141491C4900B0FBF1F010BD0838024030
:1015F0000024F40040787D012DE9F84F04006ED0FE
:101600002078DFF84C93C007A9F104054AD009F10E
:1016100004000168C1F38101012908D00068C0F30A
:10162000810002280AD1D9F80000400206D52868B6
:10163000800337D560680028E1D033E06068B0F5FA
:10164000803F10D0B0F5A02F286810D020F4803053
:101650002860286820F4802028606068A8B1FFF71F
:101660003FFE06460DE0286840F48030F4E740F481
:1016700080202860F7E700BFFFF732FE801B642858
:1016800073D828688003F7D50CE0FFF729FE0646DB
:1016900005E000BFFFF724FE801B6428F0D828680F
:1016A0008003F7D42078DFF8AC8280074FF0000A7F
:1016B0003ED5A748001D016811F00C0F08D0006846
:1016C000C0F3810002280BD1D9F80000400207D4F2
:1016D0002868800716D5E068012800D112E033E1C0
:1016E000E068B8B10120C8F80000FFF7F9FD064630
:1016F00005E000BFFFF7F4FD801B0228C0D8286872
:101700008007F7D52868216920F0F80040EAC10079
:1017100028600DE0C8F800A0FFF7E2FD064604E0EF
:10172000FFF7DEFD801B02281FD828688007F7D44A
:101730002078000722D5864F87486169703771B1DC
:1017400001210160FFF7CCFD064604E0FFF7C8FD6C
:10175000801B022809D838688007F7D50EE0C0F84A
:1017600000A0FFF7BDFD064605E082E0FFF7B8FDEB
:10177000801B02287DD838688007F7D4207840077E
:1017800068D5DFF8CCB100270BF13C0BDBF800008B
:10179000C0000BD4DBF8001041F08051CBF80010F2
:1017A000DBF80000012700F0805000906B4E30689D
:1017B000C00510D4306840F480703060FFF790FDB1
:1017C000009005E0FFF78CFD0099401A022850D8E0
:1017D0003068C005F6D55E4EA0686C3601280FD083
:1017E0000528306810D020F001003060306820F00B
:1017F00004003060A068B8B1FFF772FD00900FE000
:10180000306840F00100F4E740F004003060F7E792
:10181000FFF766FD0099411A41F28830814266D88F
:1018200030688007F4D50EE0FFF75AFD009007E01E
:10183000FFF756FD0099411A41F28830814256D88F
:1018400030688007F4D42FB1DBF8001021F080510C
:10185000CBF80010A069C8B33D49091D0968C1F360
:10186000810102294AD00228504607D0C8F86000FA
:1018700000E03CE0FFF734FD04463BE04746C8F893
:101880006000FFF72DFD064605E000BFFFF728FDCD
:10189000801B02282BD828688001F7D4D4E90701DF
:1018A0000843A16A2E4A490802EB0141626A41EAF3
:1018B0008211084394F82C1040EA0161C9F8001025
:1018C00001203866FFF70CFD044606E03EE000BF4D
:1018D000FFF706FD001B022809D828688001F7D50C
:1018E00034E000BFFFF7FCFC001B022802D90320F4
:1018F000BDE8F88F28688001F4D427E00128F7D0EC
:10190000D9F80000E26900F4800191421CD1226AFA
:1019100000F03F01914217D147F6C071626A014061
:10192000B1EB821F10D1A26A4FF0FF3300F44031B7
:1019300003EB5202B1EB024F06D194F82C1000F0E9
:101940007060B0EB016F01D00120D1E70020CFE73C
:101950000438024000004742800E474200700040B9
:101960000000FFFF10B5401EB0F1807F01D30120C1
:1019700010BD4FF0E02460610F21601700F0AAFB5A
:101980000020A06107202061002010BD70B590F8F4
:101990003C20012A2CD0012480F83C40022280F80F
:1019A0003D2003685A689D6822F070060A68324339
:1019B0005A60104B02689A420ED0B2F1804F0BD0A1
:1019C0000D4B9A4208D00D4B9A4205D00C4B9A42CF
:1019D00002D00C4B9A4204D1496825F08003194388
:1019E000916080F83D40002180F83C10084670BDB1
:1019F000022070BD000001400004004000080040CB
:101A0000000C00400040014010B5040003D094F8E1
:101A10003D0010B107E0012010BD002084F83C001B
:101A2000204600F01FF8022084F83D00211D2068A8
:101A300000F036FA012084F8460084F83E0084F86D
:101A40003F0084F8400084F8410084F8420084F8A4
:101A5000430084F8440084F8450084F83D000020E9
:101A600010BD000008B500680649884208D1064844
:101A7000016841F002010160006800F0020000907E
:101A800008BD0000000400404038024090F83D10BE
:101A9000012901D001207047022180F83D10016822
:101AA000CA6842F00102CA6000680E4988420ED03E
:101AB000B0F1804F0BD00C49884208D00B498842C6
:101AC00005D00B49884202D00A49884204D1816876
:101AD00001F00701062903D0016841F0010101600E
:101AE0000020704700000140000400400008004052
:101AF000000C00400040014070B5044690F83C00E6
:101B00000025012817D0012684F83C60022084F8C3
:101B10003D002068826822F0770222F47F428260D2
:101B20000868502838D00DDC20284FD005DC90B351
:101B3000102811D14AE0022070BD302846D040283C
:101B40000AD13BE060282FD070280DD0B0F5805F1F
:101B500003D0B0F5005F12D0012584F83D6000206D
:101B600084F83C00284670BDCB68D1E9012120688B
:101B700000F0E2F92068816841F0770109E0CB6864
:101B8000D1E90121206800F0D7F92068816841F48B
:101B900080418160E1E719E0CA684968206800F087
:101BA000DDF95021206806E0CA684968206800F025
:101BB000E6F96021206800F0C9F9CEE7CA684968F3
:101BC000206800F0CBF940212068F4E72268014644
:101BD0001046F0E770B5040004D094F83D000025ED
:101BE00010B106E0012070BD84F83C50204600F0A2
:101BF00023F8242084F83D002068C16821F40051B6
:101C0000C160204600F0CEF92068016921F49041BE
:101C100001612068416921F02A0141612068C168A1
:101C200041F40051C1602564202084F83D0084F80F
:101C30003E00002070BD000010B586B0044614219F
:101C40006846FEF7FBFA14492068884221D1134800
:101C50000021026842F010020260006800F01000EB
:101C600005900E481438026842F0010202600068D4
:101C700000F0010005904FF4C06000900220CDE913
:101C80000101032003900720049069460448FFF7F0
:101C900037FA06B010BD0000001001404438024081
:101CA00000000240FEE700007FB5002416480094C3
:101CB000019402941349039401604FF48031C0E908
:101CC000011401250461057680F820400903C162F2
:101CD000C5614910C460816280F830404561FEF7FB
:101CE00082FF08B1FEF7D3FE0620CDE90005694664
:101CF00002940548FEF7CEFE002801D0FEF7C7FE8D
:101D00007FBD00000020014018180020094808B5D8
:101D1000016841F4800101600068002200F4800045
:101D2000009011463820FFF749FBBDE808403820F5
:101D3000FFF736BB30380240054808B5016841F06E
:101D400001010160006800F00100009008BD000082
:101D50003038024010B586B0002416480094019433
:101D600002940394049412490594C0E90014846019
:101D7000C460802104618161FFF746FE08B1FEF76F
:101D800086FE4FF48050009069460A48FFF7B4FE83
:101D900008B1FEF77CFE2020CDE9040404A9054823
:101DA000FFF7F4FD002801D0FEF771FE06B010BD6C
:101DB00000040040C01800200C4810B50A4901601A
:101DC0004FF4E1314160002181600C22C160C0E923
:101DD00004128161C161FFF7FDFE002803D0BDE858
:101DE0001040FEF754BE10BD00100140081900203D
:101DF000FEE7FEE770477047FFF778BA30B593B05B
:101E000030216846FEF71AFA14210CA8FEF716FADC
:101E10001D480024016841F080510160006800F015
:101E2000805011901948016821F4404141F400416B
:101E300001600068022500F44040119001200390E9
:101E400010200490009506950820CDE90740542005
:101E5000CDE9090504200B906846FFF7CDFB08B1DA
:101E600072B6FEE70F20CDE90C054FF48050CDE9A6
:101E70000E4002210CA81094FFF7D2FA002801D0DE
:101E800072B6FEE713B030BD40380240007000402B
:101E90000248016841F470010160704788ED00E07C
:101EA000F0B502681D4B1E4C9F031E4D1E4E9842FE
:101EB00007D0B84205D0A04203D0A84201D0B0421A
:101EC00004D122F0700C4A6842EA0C02984210D009
:101ED000B8420ED0A0420CD0A8420AD0B04208D0DE
:101EE000124CA04205D0124CA04202D0114CA0428C
:101EF00003D122F44074CA6822434C6922F0800264
:101F0000224302608A68C2620A688262984201D1F2
:101F10000969016301214161F0BD00000000014039
:101F20000004004000080040000C00400040014058
:101F3000004401400048014010B5846842EA032291
:101F400024F47F440A432243826010BD826822F059
:101F500070020A4342F007018160704710B5036ABE
:101F6000046A24F001040462846924F0F00444EA61
:101F7000021423F00A020A438461026210BD10B504
:101F8000036A23F0100303628369046A23F4704335
:101F900043EA023224F0A00343EA011182610162A4
:101FA00010BD000070B5044600680169E26821F4C4
:101FB0004051114301612169A068E26908436169E8
:101FC000114308432168CA6849F20C639A430243EB
:101FD000CA6020684169A26921F4407111434161DE
:101FE00031492068884202D03049884202D1FFF747
:101FF000C1FA01E0FFF7AEFAE26900231921642576
:102000003226B2F5004F626828D0A0FB0101930F81
:102010009200FEF7DBF80146B0FBF5F06FF0180216
:10202000504301EB800006EB0010B0FBF5F000F030
:10203000F002B1FBF5F002EB0012B1FBF5F06FF02E
:102040001803584301EB800006EB0010B0FBF5F0DD
:1020500000F00F0021681044886070BDA0FB0101F2
:1020600092185B41FEF7B2F80146B0FBF5F00201B1
:10207000B1FBF5F06FF01803584301EB800006EB5D
:10208000C000B0FBF5F000F0F80002EB4002B1FB3D
:10209000F5F0584301EB800006EBC000B0FBF5F013
:1020A00000F00700D6E700000010014000140140D6
:1020B000FEE700000FB4054B10B503A9044A0298CF
:1020C00000F0DAF810BC5DF814FB0000A929000844
:1020D000040000200907090E002804DB00F1E020BD
:1020E00080F80014704700F00F0000F1E02080F845
:1020F000141D704702E008C8121F08C1002AFAD157
:1021000070477047002001E001C1121F002AFBD177
:10211000704700002DE9FF5FDDE90220010DDDF8C9
:1021200038B0024318D044F61050A1F2FF314143B9
:102130000D140F98012820D0A5EB0B00401C5FEA7E
:10214000000A4FF00004474EDFF81C91A0465046AD
:1021500016D5CAF1000728E00F98012443A20128F0
:1021600008D0002100980F9BC0E90021C0E902437C
:10217000BDE8FF9F6FEA0B01F4E7CBF10000DEE75B
:10218000074612E0F80707D0224633464046494644
:10219000FEF75FF8804689462246334610461946C8
:1021A000FEF757F804460E467F10002FEAD1DDE90E
:1021B0000201BAF1000F42464B4602DAFEF749F837
:1021C00001E0FEF7B8F804460E460022284BFEF761
:1021D000E5FA03D84FF0FF30014607E00022254B17
:1021E00020463146FEF71BFAFEF7C0FA102409E03C
:1021F000002C0ADB0A220023FDF7E8FF019B3032A6
:102200001A55641E50EA0102F2D1641C019AC4F10D
:10221000110314440F9A012A03D0012208430DD15F
:102220000AE0084304D000204FF0110B0F9080E724
:10223000A3EB0B056D1E0DE05B4504DD4FF00002C6
:1022400005F1010504E003DA4FF00002A5F10105F4
:10225000002AECD000980F99C0E90231C0E900458E
:1022600086E70000000024400000F03F300000003E
:102270000000F0430000E03F2DE9FF4F95B09B4682
:102280008946064600250FE2252877D100242746F7
:10229000F84A0121059400E0044316F8013F203B71
:1022A00001FA03F01042F7D130782A2811D06FF0EC
:1022B0002F033078A0F13002092A16D8059A44F08D
:1022C000020402EB820203EB42021044761C0590EA
:1022D000EFE759F8042B0592002A03DA504244F440
:1022E0000054059044F00204761C30782E2816D154
:1022F00016F8010F44F004042A280DD06FF02F02C5
:102300003078A0F13003092B09D807EB870302EBE3
:102310004303C718761CF3E759F8047B761C307822
:102320006C280FD006DC4C2817D068280DD06A28FE
:1023300014D104E0742810D07A280FD10DE044F4B1
:1023400000140AE044F4801401E044F4401472786C
:10235000824202D104F58014761C761C30786628FF
:102360000BD013DC582877D009DC002875D045281D
:10237000F6D04628F4D047281AD19DE118E063280A
:1023800035D0642879D0652812D195E1702873D0B2
:1023900008DC6728F1D069286FD06E280DD06F282F
:1023A00006D1B5E073282CD0752875D0782874D064
:1023B0005A46179990476D1C75E1C4F302500228E4
:1023C00009D003280DD0D9F8001004280DD00D60D5
:1023D00009F1040967E1D9F80010EA17C1E90052D0
:1023E000F6E7D9F800100D80F2E70D70F0E719F864
:1023F000041B8DF8001000208DF80100EA46012032
:1024000003E059F804AB4FF0FF3061074FF00001D3
:1024100002D40DE008F101018846B9420FDA804587
:10242000F8DB1AF808100029F4D108E008F10101DE
:1024300088468142FADB1AF808100029F6D105987F
:102440005B46A0EB080721463846179A00F094FA3D
:10245000284400EB080507E04DE029E10DE01AF8FB
:10246000010B5A4617999047B8F10108F7D25B461D
:1024700021463846179A13E142E00A220092C4F33B
:1024800002524FF0000A022A08D059F804CB032A5E
:102490004FEAEC710AD00DE029E02AE009F10701CA
:1024A00021F00702F2E802C1914609E00FFA8CFC24
:1024B0004FEAEC71042A03D14FFA8CFC4FEAEC711D
:1024C000002907DA0A460021DCF1000C61EB020169
:1024D0002D2202E0220504D52B228DF804200122B2
:1024E00003E0E20701D02022F7E7904659E00A21F5
:1024F00002E010220DE010214FF0000A00910BE0E5
:1025000010224FF0000A44F004040827009203E070
:1025100008224FF0000A0092C4F30252022A05D0AA
:1025200059F804CB0021032A08D009E009F107017A
:1025300021F00702F2E802C1914605E01FFA8CFC87
:10254000042A01D10CF0FF0C4FF00008220728D517
:10255000702806D0009B83F0100353EA0A0305D0CD
:102560000EE040228DF80420012208E05CEA01021E
:1025700006D030228DF804208DF805000222904606
:10258000009B83F0080353EA0A030AD15CEA0102C4
:1025900001D1620705D530228DF804204FF00108E3
:1025A0007F1E582804D034A003900EA802900DE09E
:1025B00036A0F9E753466046009AFDF707FE8446C9
:1025C0000398825C0298401E029002705CEA01004F
:1025D000F0D1029806A9081A00F1200A600702D576
:1025E00024F4803400E00127574502DDA7EB0A0000
:1025F00000E0002000EB0A01009005984144401AD9
:102600000590E00306D45B462146179A059800F032
:10261000B3F90544002706E001A85A46C05D1799A2
:1026200090476D1C7F1C4745F6DBE0030CD55B46ED
:102630002146179A059800F09FF9054404E03020E0
:102640005A46179990476D1C0099481E0090002922
:10265000F5DC08E0029802995A460078491C02917C
:10266000179990476D1CBAF10001AAF1010AF1DC3B
:1026700065E1000009280100303132333435363746
:1026800038396162636465660000000030313233BE
:10269000343536373839414243444546000000005E
:1026A00000F058F90544761C307800287FF4ECAD32
:1026B00019B02846BDE8F08F620700D4062709F15B
:1026C000070222F0070CFCE80223E14603F0004871
:1026D0005FEA080C02D00FF2702C0DE05FEA045C98
:1026E00002D50FF2682C07E05FEAC47C02D00FF23B
:1026F000602C01E0AFF2700C4FF0FF3823F0004384
:10270000CDF850C065280CD006DC452809D04628F5
:102710001DD047283DD13DE0662818D067287ED1DE
:1027200038E00021112F01DB112000E0781CCDE9F9
:10273000000106A90EA8FFF7EDFCDDE90F010E9AD6
:1027400003910021009207F1010A04914DE04FF03E
:1027500000400097CDE9011006A90EA8FFF7DAFCAA
:10276000DDE90F0203920E9B11990022DDF80CA007
:102770000093049211B9791C00EB010AB7EB0A002F
:1027800004D4C0F1FF3007F1010A0490AAEB07005E
:10279000019044E0012F00DA01270021112F01DD13
:1027A000112000E03846CDE9000106A90EA8FFF788
:1027B000B1FCDDE90F010E9A039100210491009212
:1027C000BA4621070CD40399514500DA8A46BAF17A
:1027D000010F05DD009AAAF10101515C302908D0F2
:1027E000B84202DA10F1040F06DA0121CDE9011036
:1027F00015E0AAF10101E9E7002805DC049901448C
:102800000491AAEB000102E0411C514500DD8A461B
:102810000499401A401C01904FF00040029020079C
:1028200004D40198504501DBCDF8048000208DF8D8
:102830004F0002980DF14F07B0F1004F25D02B202B
:102840000E9002984FF0020800280CDA40420290E5
:102850002D200E9007E00A210298FDF717FE303177
:10286000029007F8011DB8F10001A8F10108F2DC9F
:1028700002980028EFD1791E0E980870307800F089
:10288000200040F0450007F8020D12A8C01B00F11F
:1028900007081498007800B1012000EB0A010198A4
:1028A00001EBE07105984144401A401E0590E00399
:1028B00006D45B462146179A059800F05DF805445A
:1028C0001498007818B15A46179990476D1CE00388
:1028D00024D55B462146179A059800F04DF805442B
:1028E0001CE00498002807DBDDE90301884203DDD2
:1028F0000098405C179901E0179930205A4690479C
:10290000049805F10105401C04900198401E0190B7
:1029100004D12E205A46179990476D1CBAF1000138
:10292000AAF1010ADDDC05E017F8010B5A461799F8
:1029300090476D1CB8F10001A8F10108F4DC5B467A
:102940002146179A0598ABE62D0000002B000000E9
:10295000200000002DE9F041044600251E461746E0
:10296000880404D405E039462020B0476D1C641E5D
:10297000F9D52846BDE8F0812DE9F041044600254F
:102980001E469046C80301D5302700E02027880462
:1029900004D505E041463846B0476D1C641EF9D5A4
:1029A0002846BDE8F081000003490A685206FCD5BC
:1029B000C2B24A6070470000001001402DED048B48
:1029C000FEF79CFCFFF71AFAFFF7B6F9FFF79EF93E
:1029D000FFF76AF9FFF7F0F9FFF7BCF91E48FFF7B8
:1029E00055F84FF4806632461C491D48FEF772F9CF
:1029F000DFF870801CA0FFF75DFB404601780029DE
:102A0000FCD0164F9FED1A8B9FED1B9B002407F502
:102A1000006500BF37F81400FDF7FCFC53EC182BE1
:102A2000FDF717FC53EC192BFDF785FCFDF712FDA4
:102A300045F82400FDF7FBFC41EC100B10A053EC13
:102A4000102BFFF737FB641CA4B2B442E2D34FF45F
:102A50007A70FEF743FBCDE7C01800201800002075
:102A600018180020000000203132332F722F6E0022
:102A70006666666666660A400000000000FEAF40BB
:102A8000413A25660D0A00000006101600061016D1
:102A9000000000000000000001020304060708090E
:102AA0000000000001020304C82A00080000002002
:102AB00018000000F4200008E02A00081800002098
:102AC000381D000004210008000000000000000084
:102AD0000100000010000000000000000024F400CD
:040000050800019559
:00000001FF
