:020000040000FA
:10000000980400203D03000045030000B50B0000EC
:10001000490300004B0300004D03000000000000F6
:100020000000000000000000000000004F0300007E
:10003000510300000000000053030000F110000015
:1000400057030000590300005B0300005D0300003C
:100050005F0300006103000063030000650300000C
:1000600067030000690300006B0300006D030000DC
:100070006F030000710300007303000075030000AC
:10008000F9060000790300007B0300007D030000F7
:100090007F0300008103000083030000850300004C
:1000A00087030000890300008B0300008D0300001C
:1000B0008F030000910300009303000095030000EC
:1000C00097030000990300009B0300009D030000BC
:1000D0009F030000A1030000A3030000A50300008C
:1000E000A7030000A903000000000000AB0300000C
:1000F000AD030000AF030000B1030000B303000034
:10010000B5030000B7030000B9030000BB03000003
:100110000000000000000000BD030000BF0300005D
:10012000C1030000C3030000C5030000C7030000B3
:10013000C9030000CB030000CD030000CF03000083
:1001400000000000000000000000000000000000AF
:10015000D1030000D3030000D5030000D703000043
:10016000000000000000000000000000000000008F
:10017000000000000000000000000000000000007F
:10018000000000000000000000000000000000006F
:10019000000000000000000000000000000000005F
:1001A000000000000000000000000000000000004F
:1001B000D9030000DB030000DD030000DF030000C3
:1001C000E1030000E3030000E5030000E703000093
:1001D000E9030000EB030000ED030000EF03000063
:1001E000F1030000F3030000F5030000000000002D
:1001F00000000000F7030000F9030000FB0300000B
:10020000FD030000FF0300000000000000000000EC
:1002100001040000030400000504000007040000BE
:10022000090400000B0400000D0400000F0400008E
:10023000110400001304000015040000170400005E
:10024000190400001B0400001D0400001F0400002E
:1002500021040000230400002504000027040000FE
:10026000290400002B0400002D04000000F002F817
:1002700000F03CF80AA090E8000C82448344AAF104
:100280000107DA4501D100F031F8AFF2090EBAE802
:100290000F0013F0010F18BFFB1A43F001031847BA
:1002A000E017000000180000103A24BF78C878C199
:1002B000FAD8520724BF30C830C144BF04680C606C
:1002C000704700000023002400250026103A28BFB4
:1002D00078C1FBD8520728BF30C148BF0B607047B8
:1002E0001FB501F017FA1FBD10B510BD00F0B8F82A
:1002F0001146FFF7F5FF01F029F800F0D6F803B436
:10030000FFF7F2FF03BC00F0D9F80000EFF3108014
:1003100072B67047EFF310807047EFF3108062B64B
:10032000704730BF704780F311887047EFF311803A
:10033000704700000138FDD1704700003F488047FA
:100340003F480047FEE7FEE7FEE7FEE7FEE7FEE781
:10035000FEE7FEE7FEE7FEE7FEE7FEE7FEE7FEE775
:10036000FEE7FEE7FEE7FEE7FEE7FEE7FEE7FEE765
:10037000FEE7FEE7FEE7FEE7FEE7FEE7FEE7FEE755
:10038000FEE7FEE7FEE7FEE7FEE7FEE7FEE7FEE745
:10039000FEE7FEE7FEE7FEE7FEE7FEE7FEE7FEE735
:1003A000FEE7FEE7FEE7FEE7FEE7FEE7FEE7FEE725
:1003B000FEE7FEE7FEE7FEE7FEE7FEE7FEE7FEE715
:1003C000FEE7FEE7FEE7FEE7FEE7FEE7FEE7FEE705
:1003D000FEE7FEE7FEE7FEE7FEE7FEE7FEE7FEE7F5
:1003E000FEE7FEE7FEE7FEE7FEE7FEE7FEE7FEE7E5
:1003F000FEE7FEE7FEE7FEE7FEE7FEE7FEE7FEE7D5
:10040000FEE7FEE7FEE7FEE7FEE7FEE7FEE7FEE7C4
:10041000FEE7FEE7FEE7FEE7FEE7FEE7FEE7FEE7B4
:10042000FEE7FEE7FEE7FEE7FEE7FEE7FEE7000089
:1004300004480549034A054B704700002911000094
:100440006D0200009802002098040020980200200D
:100450007047704770470000004870473402002022
:100460007546FFF7F9FFAE4605006946534620F092
:100470000700854618B020B5FFF7DAFFBDE8204039
:100480004FF000064FF000074FF000084FF0000B50
:1004900021F00701AC46ACE8C009ACE8C009ACE803
:1004A000C009ACE8C0098D46704710B50446AFF3EB
:1004B00000802046BDE81040FFF721BF0149182009
:1004C000ABBEFEE7260002007047000010B53948B9
:1004D00000F0C0FD3748401C00F0BCFD3548801CD2
:1004E00000F0B8FD3348C01C00F0B4FD3148401D99
:1004F00000F0B0FD00BF2F4800F0C6FD0028FAD084
:1005000000BF2C48401C00F0BFFD0028F9D000BF00
:100510002848801C00F0B8FD0028F9D000BF25480D
:10052000C01C00F0B1FD0028F9D000BF2148401DDB
:1005300000F0AAFD0028F9D01C214FF0402000F067
:100540000AFB08211C4800F006FB1C211B4800F098
:1005500002FBF0211A4800F0FEFAC021194800F011
:10056000FAFA00221C214FF0402000F003FB002289
:100570000821114800F0FEFA00221C210F4800F06B
:10058000F9FA0022F0210E4800F0F4FA0022C0210E
:100590000C4800F0EFFA00F09DFB00F081FB0A4AE6
:1005A0000321012000F030F8084A0221084600F03B
:1005B0002BF810BD000800F0005000400050024031
:1005C0000060004000700040900000209300002078
:1005D00038B505460C460020009000956A4601217A
:1005E00000F012F8204600F055FE38BD38B505463B
:1005F0000C460020009000956A46012100F004F8A6
:10060000204600F05BFE38BD2DE9F04706460F4658
:1006100090464FF00009CA4600250024B14600224A
:1006200010214FF0402000F0A5FA00BF20E000228A
:1006300008214FF0402000F09DFA09F0800080284A
:1006400005D1202211462B4800F094FA04E0002244
:100650002021284800F08EFA082211464FF0402051
:1006600000F088FA4FEA49604FEA1069601CC4B292
:10067000082CDCDB002208214FF0402000F07AFA41
:1006800000252DE018F805A000241FE00022082115
:100690004FF0402000F06EFA0AF0800028B12022CE
:1006A0001146144800F066FA04E0002220211148A7
:1006B00000F060FA082211464FF0402000F05AFA8C
:1006C0004FEA4A604FEA106A601CC4B2082CDDDBB6
:1006D000002208214FF0402000F04CFA681CC5B2FF
:1006E000BD42CFDB102211464FF0402000F042FA0D
:1006F000BDE8F087006000401FB502211F4800F0F0
:100700004BF81F480078B8B31E480088142833DA25
:100710006A460221194800F073F89DED000AB8EE10
:10072000400ADFED190A20EE200A18481549098809
:1007300000EB810080ED000A9DED010AB8EE400A51
:10074000DFED110A20EE200A11480E49098800EB5E
:10075000810080ED000A0B480088401C0949088090
:1007600008460088142806DB002005490870FF2190
:10077000084800F079FD00BF1FBD00000080034065
:1007800084000020860000206740533A9401002036
:10079000E40100200000034001228A40C26070474B
:1007A00001228A40C260826801238B401A43826022
:1007B000704770B51446890045690F268E40B543D1
:1007C00004F00F068E4035434561056A0F268E40C2
:1007D000B54303F003068E403543056204F00F0273
:1007E000062A0CD3092A0AD8951FEA00C5693026C3
:1007F0009640B54304F0300696403543C56170BD60
:1008000010B503464C0140342344002002E09C68AC
:1008100010C2401CDC6804F480740CB90828F6D3BC
:1008200010BD026801238B409A4302607047026842
:1008300001238B401A430260704770B50C46650176
:1008400040352844920005680F269640B54303F0D2
:100850000F0696403543056085690F269640B543DF
:10086000C3F3032696403543856146680F259540BE
:1008700026EA0505C3F30316964035434560C6696D
:100880000F25954026EA0505C3F3035696403543E8
:10089000C56103F4702575B141690F259540A943E1
:1008A000C3F30245954029434161056901269640FD
:1008B0003543056104E0056901269640B5430561AD
:1008C00070BD000010B5264800F0C4FB254800F0BC
:1008D000C1FB254800F0BEFB0A20FFF72BFD0C21D1
:1008E000224800F029F92221214800F069FC00F09B
:1008F00065FA44F62061B0FBF1F4621EFF211C484A
:1009000000F0C0FC0122FF21194800F089FC0221FF
:100910001848FFF786FF0023052202211548FFF73C
:1009200048FF00231A4602211248FFF786FF612381
:10093000012202210F48FFF780FF02210D48FFF737
:1009400076FF02210B48FFF727FF02210948FFF736
:1009500027FF202000F062F900F09AF910BD000096
:10096000040800F0003800F0000400F000400240ED
:10097000000003400080034002F001031BB1D0F8E7
:1009800000340B4302E0D0F800348B43C0F800344D
:1009900002F002031BB1D0F820340B4302E0D0F880
:1009A00020348B43C0F8203470470000F0B55F4D11
:1009B0002D685F4E35405F4EB5421AD0002416E0D8
:1009C0000125A5400D4085B1D0F8C45F670003261E
:1009D000BE40B543C0F8C45FD0F8C45F6700C2F33F
:1009E0004116BE403543C0F8C45F651CECB2082C0C
:1009F000E6DB02F001051DB1D0F800550D4302E021
:100A0000D0F800558D43C0F8005502F002051DB125
:100A1000D0F804550D4302E0D0F804558D43C0F8DA
:100A2000045502F004051DB1D0F808550D4302E04D
:100A3000D0F808558D43C0F8085502F008051DB1DF
:100A4000D0F818550D4302E0D0F818558D43C0F882
:100A50001855364D2D68364E3540364EB5420BD0C2
:100A600002F010051DB1D0F83C550D4302E0D0F85E
:100A70003C558D43C0F83C5503F001051DB1D0F83D
:100A80000C550D4302E0D0F80C558D43C0F80C55C1
:100A900003F002051DB1D0F810550D4302E0D0F867
:100AA00010558D43C0F8105503F004051DB1D0F862
:100AB00014550D4302E0D0F814558D43C0F8145579
:100AC00003F008051DB1D0F81C550D4302E0D0F825
:100AD0001C558D43C0F81C55144D2D68144E3540DF
:100AE000144EB54217D003F400751DB1D0F844552B
:100AF0000D4302E0D0F844558D43C0F8445503F44B
:100B000040751DB1D0F840550D4302E0D0F8405576
:100B10008D43C0F840551BB9D0F828550D4302E06D
:100B2000D0F828558D43C0F82855F0BD00E00F409F
:100B30000000FF700000051030B504460D4600228D
:100B400029462046FFF718FF0023012229462046A8
:100B5000FFF72CFF30BD30B504460D4608230122B7
:100B600029462046FFF722FF012229462046FFF7AB
:100B700003FF30BD002303EB8103C25070470A46D8
:100B8000D0ED000AB0EE600A012110E000EB810315
:100B9000D3ED000AF4EEC00AF1EE10FA05DD00EB29
:100BA0008103D3ED000AB0EE600A4B1C99B291426A
:100BB000ECDB704700BFFEE710B5002204214FF0C8
:100BC0004020FFF7D7FF022000F0AAFB04221146C5
:100BD0004FF04020FFF7CEFF042000F0A1FB0022E1
:100BE00004214FF04020FFF7C5FF10BD10B50A48A3
:100BF00000F030FA00BF084800F046FA0028FAD0AA
:100C000080214FF04020FFF7A6FF002280214FF007
:100C10004020FFF7AFFF10BD000800F0042806D108
:100C20001949096841F48031174A11602BE0052801
:100C300006D11549096841F40031134A116022E0D8
:100C4000062806D11049096841F480210E4A116036
:100C500019E00F2808D14FF0E021096941F00201A5
:100C60004FF0E02211610EE010280CD3A0F110012A
:100C700001F01F0201219140A0F110025209034B23
:100C800053F822201160704724ED00E0DC170000CB
:100C900010B5FFF742FB08B1012010BD0020FCE7B2
:100CA00010B5002210210A48FFF764FF012000F070
:100CB00037FB102211460648FFF75CFF1E2000F0AC
:100CC0002FFB002210210248FFF754FF10BD000047
:100CD0000050024010B5002280211F48FFF74AFF54
:100CE000102211464FF04020FFF744FF0022082158
:100CF0004FF04020FFF73EFF002204214FF040203C
:100D0000FFF738FF002204211448FFF733FF0022C9
:100D100008211248FFF72EFF002208211048FFF794
:100D200029FF002210210F48FFF724FF0022202175
:100D30000C48FFF71FFF002240210A48FFF71AFF67
:100D4000002280210748FFF715FF002240210248BA
:100D5000FFF710FF10BD000000700040005002407F
:100D6000005000400060004010B5094800F072F9E2
:100D700000BF074800F088F90028FAD02321054871
:100D8000FFF7E9FE232211460248FFF7F3FE10BDEC
:100D9000010800F00050004010B500200449088010
:100DA000012004490870FF21034800F064FA10BDD7
:100DB000860000208400002000000340F0B5504869
:100DC000036E026F02F0004010B102F0700001E00B
:100DD00003F03000202811D003DC38B1102815D1E1
:100DE0000AE030280CD0702810D10CE04548C3F33D
:100DF000841750F827100BE0434909E0434907E006
:100E000047F2305104E04FF4004101E00020F0BD12
:100E100000BF4FF0FF3402F0004010B102F4006058
:100E200028B102F0004090BB03F4006078BB384862
:100E300005683348D0F8646106F01F00401CC6F313
:100E400004277F1C10FB07F04000B1FBF0F1C5F355
:100E500009004843C5F389274F4300EB972143F42A
:100E600080032748006900F47040B0F5804F13D02C
:100E700006DCB0F5005F0BD0B0F5405F12D109E0A1
:100E8000B0F5E04F0AD0B0F5104F0BD108E00BE001
:100E9000204C08E0204C06E0204C04E0204C02E00E
:100EA000204C00E000BF00BF03F4800018B302F044
:100EB0000040D8B102F0804090B102F0004010B183
:100EC00002F4006028B102F0004048B903F4006069
:100ED00030B94F00C2F38650401CB7FBF0F10AE076
:100EE000C2F3C550401CB1FBF0F104E0C3F3C350A2
:100EF000401CB1FBF0F18C4200D22146084686E747
:100F000000E00F402C1800000024F40000093D0010
:100F100060E10F4000B4C40480F0FA02005A62029B
:100F200040787D01002D31012DE9F041064644480D
:100F3000046E056F44F4006424F4800445F40065F5
:100F40000466056704F00100D8B106F00100C0B9DD
:100F500066F0010004404FF4807039498865084606
:100F600004664FF4002702E07F1E07B905E034480D
:100F7000006D00F480700028F6D000BF0FB9BDE806
:100F8000F08124F4FE6406F4FE6004432D4805401D
:100F90002C49A13106EA0100054306F0080045EAA4
:100FA000C00527480466056724F4005406F4005081
:100FB000044325F4005506F4005005434020204921
:100FC000886505F0004018B108460567046602E030
:100FD0001B48046605671C480440C14306EA01003B
:100FE000044325F0FC5506F0FC50054306F0804014
:100FF00040B144F4800425F48005144906EA010058
:10100000054301E025F0804506F4006080B94FF407
:10101000004706E00E48006800F0010000B102E061
:101020007F1E002FF6D100BF24F4006425F4006574
:101030000348046605671020FFF77CF900BF9EE7B0
:1010400000E00F408FFFFF7FFEFF3FF800004040B1
:1010500068E10F4010B50121C0F30722094B1A4483
:1010600002F0704242F00072C0F30723054C2344A3
:10107000C3F3130342EA4312C3B242EA830211608C
:1010800010BD000000E60F400146C1F307200B4AE7
:10109000104400F0704040F00070C1F30722074B8D
:1010A0001A44C2F3130240EA4210CAB240EA820074
:1010B000006808B1012070470020FCE700EA0F40FB
:1010C0004FF0E020006940F005004FF0E02108619A
:1010D00070474FF0E020006940F002004FF0E0213F
:1010E00008617047411E4FF0E022516170470000D7
:1010F00002480068401C01490860704788000020D1
:1011000010B50848FFF710FFFFF758FE4FF47A714B
:10111000B0FBF1F42046FFF7E5FFFFF7DAFFFFF73A
:10112000CFFF10BD4005C0011B49096841F47001A3
:10113000194A116019491A4A11671A4911661A4960
:1011400011661A491167002000E0401CB0F57A7F53
:10115000FBD31749124A116616491167002000E0B7
:10116000401CB0F57A7FFBD313490D4A116600BFCE
:101170000B49096D01F040014029F9D10F49084A96
:1011800011664FF0C0711167002000E0401C42F270
:1011900010718842FAD3704788ED00E0102880076C
:1011A00000E00F40D13A8E07422D9E0100288001B9
:1011B000420D9E0100088001420DDE014205DE0164
:1011C000C26840F201139A43C2600A0E0260114ADB
:1011D0001268114B1A40114B9A4211D1CAB201F454
:1011E000702342EA131242F40072426001F470026A
:1011F000C1F3072343EA122242F40072826008E03E
:10120000CAB242F400724260C1F3072242F4007293
:101210008260704700E00F400000FF7000000A107D
:1012200010B50E4B1B680E4C23400E4CA3420AD146
:1012300040F201130B4012B1046F1C4301E0046F34
:101240009C43046700BF42F22003194012B1C368F7
:101250000B4301E0C3688B43C36010BD00E00F4047
:101260000000FF7000000A10C26840F201130B403A
:101270009A43C2607047C26840F201130B401A43A0
:10128000C2607047CBB203B1826201F47F4303B105
:10129000C262704738B5054600240020009045F42E
:1012A0008054200A8DF80100E0B28DF802006A46F1
:1012B00003210620FFF7A8F938BD000030B52DED59
:1012C000048B81B0054600200090284600F011F9FB
:1012D00041EC190B114890ED000B53EC102B51EC25
:1012E000190B00F019F941EC180B00F0D5F8044681
:1012F000E0B28DF80300200A8DF80200200C8DF872
:101300000100200E8DF800006A4604210846FFF710
:101310007BF901B0BDEC048B30BD000098000020CB
:1013200000EB4001880000BF011EA0F10100FBD1CD
:1013300070470000044A1268111800BF024A126880
:101340008A42FBD37047000088000020FFF7BEF8F8
:10135000FFF7D6FE4FF4FA70FFF7ECFFFFF7B2FA93
:10136000FFF744FCFFF700FD42F210711020FFF779
:101370003DF940F2FF311020FFF72AF942F21071D7
:101380004020FFF733F940F2FF314020FFF720F90A
:10139000FFF712FC6CE000203649086064E0802210
:1013A00011464FF04020FFF7E5FB0A20FFF7C2FF90
:1013B000FFF7F2FC00BF304800780028FBD1142171
:1013C0002E48FFF7DCFB2E4880ED000AFFF7F6FC05
:1013D00040F6B831B0FBF1F42046FEF7ABFF002237
:1013E00080214FF04020FFF7C5FB0A20FFF7A2FF46
:1013F000FFF7D2FC00BF204800780028FBD1142161
:101400001E48FFF7BCFB1F4880ED000A1C4890ED0A
:10141000000A1C48D0ED000A30EE600A1A4880ED40
:10142000000A174890ED000A18481249096800EBB5
:10143000810080ED000A134890ED000A14480D4920
:10144000096800EB810080ED000A0F4890ED000A6A
:1014500010480849096800EB810080ED000A054842
:101460000068401C0349086002480068142896DBA5
:1014700091E70000800000208400002094010020FB
:1014800070000020740000206C000020F400002098
:1014900044010020A40000204FEA1153A3F580630B
:1014A000D3F11E03A8BFD3F1200C08DB4FF000429C
:1014B00042EAC12252EA505232FA03F0704709421E
:1014C0000BD4102BC4BF0020704703F5787CBCF10F
:1014D000FF3F05D04FF0FF3070474FF000007047DE
:1014E00070B500F0C3F800BF499224800020704717
:1014F000F0E7B0FA80F310FA03F10AD0C3F11D034C
:1015000003F580634FEA41504FEA035202EBD121C9
:1015100070474FF000007047DFF848C170B51CEA13
:10152000111E1EBF1CEA13159EEA0C0F95EA0C0F44
:1015300000F06F8081EA030423EA4C134EEAD47E64
:1015400021EA4C1141F4801143F48013AE44A1FB15
:10155000024CA0FB0365AEF17F7E361955EB0C05FE
:10156000A1FB034C4CF10003A0FB021C16EB0C0684
:10157000654153F10003094218BF46F0010613F418
:10158000007F0BD14FEA03314FEA0530340341EAC3
:10159000155140EA16506FF003020AE04FEAC321EA
:1015A0004FEAC520F40241EA555140EA56506FF027
:1015B000020202EB2E4201EB025585EACE710AD0FF
:1015C0005FEA440C18BF24F0004450F1000041F1E0
:1015D000000120EAD47040F2FE7C624500D270BD6A
:1015E000A84214BF4FF080444FF04044002E08BF83
:1015F0000024BEF1806FA8BFA1F1C041BDE87040DA
:1016000080F282804FF0000001F1C04101F0004102
:1016100070479EEA0C0F0CEA131518BF95EA0C0FE1
:1016200006D04FF0000081EA030E0EF0004170BDBD
:1016300000F01CF88900013E00F007B800F009B87E
:101640004FEA430C5FEA5C5C08D081EA030100F0DA
:101650005BB84FEA410C5FEA5C5CF6D14FF00000EA
:10166000014970470000FF070000F87F0EF1020EED
:101670002EF0030E5EF8046B364205D4012A43EBCC
:10168000030515F5001F12D8012841EB010C1CF5CC
:10169000001F0CD80ED14FEAD17C15F5001F0CEBC2
:1016A0004C0C0CF1020C08BF4CEBD37C04E04FF067
:1016B000080C01E04FEAD37C0CEB4C0526FA05F64A
:1016C00006F00706B6F1040C06D20EEB860CBDE858
:1016D00070404CF0010C6047DFE80CF0090B02028F
:1016E0004FF000414FF00000A1F5002170BD1946F8
:1016F0001046012851EB010418BFD4F5001484BF33
:10170000002001F0004170BD0808A0F500114FEA6B
:10171000310170474FF04070E1EE100A7047000051
:1017200000070000000600000005000000040000A3
:1017300000030000000200000001000000000000A3
:101740000000000018ED00E01CED00E020ED00E0DE
:1017500000E400E004E400E008E400E00CE400E061
:1017600010E400E014E400E018E400E01CE400E011
:1017700020E400E024E400E028E400E02CE400E0C1
:1017800030E400E034E400E038E400E03CE400E071
:1017900040E400E044E400E048E400E04CE400E021
:1017A00050E400E054E400E058E400E05CE400E0D1
:1017B00060E400E064E400E068E400E06CE400E081
:1017C00070E400E074E400E078E400E07CE400E031
:1017D00080E400E084E400E088E400E000E100E070
:1017E00004E100E008E100E00CE100E010E100E0CD
:1017F00080E100E084E100E088E100E08CE100E0CD
:1018000090E100E000E200E004E200E008E200E035
:101810000CE200E010E200E080E200E084E200E0A0
:1018200088E200E08CE200E090E200E040420F003D
:1018300000201C0080841E0000802500999E360038
:101840000040380000093D0000803E0000004B00D1
:10185000404B4C0000204E00808D5B0000C05D00BE
:101860000080700000127A0000007D0080969800D1
:10187000001BB7000080BB00C0E8CE00647ADA002D
:101880000024F4000000FA0080A81201002D3101AC
:1018900000366E0140787D0140000000000000002D
:1018A000000100003E0008000000000000010000F0
:1018B000A0000000020000000001000034540100FC
:1018C00000000000000100002B7006000000000076
:1018D00000010000280000000000000000010000DE
:1018E00027000100000000000001000020000000AF
:1018F0000000000000010000500000000200000095
:10190000000100001AAC000000000000000100000F
:10191000179409000000000000010000169805005F
:1019200000000000000100001400000000000000A2
:10193000000100001380080000000000000100000A
:10194000A0000000080000000001000010000000DE
:10195000000000000001000028000000020000005C
:101960000001000040000000040000000001000031
:101970006000000000000000000100005D000C009D
:101980000000000000010000500000000000000006
:10199000000100004E0002000000000000010000F5
:1019A00041AC010000000000000100003C0000000C
:1019B00000000000000100003A8009000000000063
:1019C00000010000300000000000000000010000E5
:1019D00028000000000000000001000027000100B6
:1019E000000000000001000023600600000000006D
:1019F000000100002160080000000000000100005C
:101A00001E00000000000000000100001DC00400D6
:101A10000000000000010000500000000200000073
:101A2000000100001800000000000000000100009C
:101A30001400000000000000000100006000000031
:101A400004000000000100000024F4003000300019
:101A5000005A62029100910000879303D200D200E5
:101A600000B4C4041301130100E1F505540154014D
:101A7000000E27079501950100688909001C4E0E8C
:101A8000A01A000000000020A4000000A80200002E
:101A9000441B0000A4000020F4030000C402000066
:101AA0000000803F0000C03FCDCC0C40333353409A
:101AB000666696409A99D940000020410000B041E6
:101AC0000000B84100003C42000088420000C842CB
:101AD000C1CAA13D54E3A53D0E2DB23D5C8FC23D70
:101AE0003D0AD73DD578E93D9318043E000000003B
:101AF00000006C4300000000008093438FC2B53E9D
:101B00008941E03EE17A143F00000000000000003F
:101B100000000000000000000000000000000000C5
:101B200000000000000000000000000000000000B5
:101B3000D00000000000000095D626E80B2E2140C2
:041B4000000302009C
:040000050000026D88
:00000001FF
