:020000040800F2
:1000000060040020A9010008DF140008871400081C
:10001000DD140008790A000811170008000000002C
:10002000000000000000000000000000E3140008D1
:100030007B0A000800000000E1140008E514000835
:10004000C3010008C3010008C3010008C301000880
:10005000C3010008C3010008C3010008C301000870
:10006000C3010008C3010008C3010008C301000860
:10007000C3010008C3010008C3010008C301000850
:10008000C3010008C3010008C3010008000000000C
:10009000000000000000000000000000C301000894
:1000A000C3010008C3010008C3010008C301000820
:1000B000C3010008C3010008C3010008C301000810
:1000C000C3010008C3010008C3010008C301000800
:1000D000C3010008C3010008C301000800000000BC
:1000E000C3010008C3010008C301000800000000AC
:1000F000000000000000000000000000C301000834
:1001000000000000C3010008C3010008C30100088B
:1001100000000000000000000000000000000000DF
:10012000C3010008C3010008C3010008C30100089F
:10013000C3010008000000000000000000000000F3
:10014000000000000000000000000000C3010008E3
:10015000C3010008C3010008C3010008C30100086F
:10016000C3010008C30100080000000000000000F7
:10017000000000000000000000000000000000007F
:1001800000000000C30100080000000000000000A3
:10019000C3010008DFF80CD000F01CFB004800474A
:1001A00005210008600400200648804706480047F3
:1001B000FEE7FEE7FEE7FEE7FEE7FEE7FEE7FEE717
:1001C000FEE7FEE77D150008950100082DE9F05FC8
:1001D0000546002092469B468846064681464024B6
:1001E0001BE0284641464746224600F009F953469F
:1001F0005A46C01A914110D311461846224600F0C3
:10020000F0F82D1A67EB01084F4622460120002125
:1002100000F0E7F817EB00094E41201EA4F101049D
:10022000DFDC484631462A464346BDE8F09FD2B25D
:1002300001E000F8012B491EFBD270470022F6E7CF
:1002400010B513460A4604461946FFF7F0FF20464C
:1002500010BD2DE9FE4F81EA030404F0004421F0B3
:10026000004100944FF0000B23F0004350EA0104DA
:100270005ED052EA03045BD0C3F30A54C1F30A55BB
:100280002C44A4F2F3340194A0FB0254C1F31301F3
:1002900041F48011C3F3130343F4801301FB0244C0
:1002A00000FB034E840A970A44EA815447EA8357C5
:1002B000A4FB076802958D0A05FB07854FEA932C7E
:1002C00004FB0C542705029D4FEA065847EA1637EF
:1002D000B5EB08056EEB070C870E920E47EA811707
:1002E00042EA8312A7FB0201B6EB0B0164EB0004A8
:1002F0002B0D43EA0C335E1844EB1C50DA46514692
:10030000E7FB0201C5F313044FEA0B3343EA14532E
:100310004FEA0432019C43EA0603A4F10C04029460
:10032000009CCDE900B400F0C1F803B0BDE8F08F47
:1003300000200146F9E70EB5C10F80EAE0700844DD
:10034000CA07002140F233438DE80E000A460B46EF
:1003500000F0ACF803B000BD00F0004230F0004007
:100360000AD0C10D01F56071C0F3160042EA0151D7
:10037000C20840071143704700200146704701F052
:10038000004330B421F0004150EA010206D00A0DCA
:10039000A2F56072C1F31301002A02DC30BC002018
:1003A0007047440F44EAC104C100E01830BC00EBC0
:1003B000C25000F035B830B50B460146002020226F
:1003C000012409E021FA02F59D4205D303FA02F562
:1003D000491B04FA02F52844151EA2F10102F1DCC2
:1003E00030BD202A04DB203A00FA02F100207047D9
:1003F0009140C2F1200320FA03F319439040704763
:10040000202A04DB203A21FA02F00021704721FA69
:1004100002F3D040C2F120029140084319467047D0
:100420000029A8BF7047401C490008BF20F0010008
:10043000704710B4B0FA80FC00FA0CF050EA0104E6
:1004400004BF10BC704749B1CCF1200421FA04F478
:1004500011FA0CF118BF012121430843A3EB0C0151
:10046000CB1D4FEA00614FEA102042BF002010BCB4
:10047000704700EBC35010440029A4BF10BC704764
:10048000401C490008BF20F0010010BC704710B5A7
:10049000141E73F1000408DA401C41F100019218A7
:1004A0005B411A4301D120F0010010BD2DE9F04D50
:1004B00092469B4611B1B1FA81F202E0B0FA80F2A5
:1004C00020329046FFF78DFF04460F4640EA0A00AF
:1004D00041EA0B0153465A46084313D0114653EAEA
:1004E000010019D0C8F140025046FFF789FF0546C8
:1004F0000E46504659464246FFF773FF084305D063
:10050000012004E020463946BDE8F08D0020054377
:1005100046EAE0762C4337430A986305E40AA0EBE9
:1005200008000022FD0A44EA47540A3002D50020A0
:100530000146E9E7010510196941DDE9084500199F
:100540006941BDE8F04DA2E72DE9FE4F804681EA02
:100550000300C00F0C46009021F0004123F000453D
:10056000B8EB0200A94105D24046214690461C4600
:100570000B46024623F00040104347D0270DC7F337
:100580000A00C3F30A510290401A019040286BDA26
:10059000C3F3130040F4801B0098924620B100235F
:1005A000D2EB030A63EB0B0B01985946C0F14002F2
:1005B0005046FFF716FF06460D4650465946019A2B
:1005C00000F01AF910EB08006141002487EA11528B
:1005D00084EAE7731A4340D0009A62B3019A012A71
:1005E0004FEA075215DC001B61EB02014FF000429D
:1005F00002EA0752CDE90042001C41F58011324663
:100600002B46FFF753FF03B0BDE8F08F404621466D
:10061000F9E7001B61EB0201001C41F58013001893
:100620005B412018A2F5001747EB030140EAD570A3
:10063000B6196D4111E06D084FEA360645EAC075FE
:100640004FEA0752001B61EB0201001C41F58011CB
:1006500049084FEA30000019514132462B4603B099
:10066000BDE8F04FFFF713BF0098012240000023C0
:10067000D0EB020263EBE073009821464FEAE0748E
:10068000B8EB000061EB0401E9E783F000435BE7AE
:1006900081F0004158E72DE9F04D81EA030404F0B0
:1006A000004B21F0004514464FF0000A23F00041B2
:1006B00050EA050220D054EA01021DD0C5F30A57C2
:1006C0000246C5F31303C1F31300C1F30A5640F405
:1006D000801543F48013A7EB0608101BD64608F2DA
:1006E000FD3873EB050002D308F1010801E0921810
:1006F0005B41B8F1000F03DA00200146BDE8F08D40
:1007000000204FF48011064684460EE0171B73EB61
:10071000050705D3121B63EB050306434CEA010CE6
:1007200049084FEA300092185B4150EA0107EDD1C9
:1007300052EA030012D082EA040083EA050108436A
:1007400005D0101BAB4106D20122002306E0002297
:100750004FF0004302E06FF0010253101AEB060065
:100760004CEB085110EB0A0041EB0B01BDE8F04DDA
:10077000FFF78DBEC1F30A52C1F3130140F2FF33FC
:1007800041F480119A4202DA00200146704740F29B
:1007900033439A42A2F2334202DC5242FFF730BEA8
:1007A000FFF71FBE30B5041E71F1000404DB4FF0EB
:1007B0000044404264EB0101141E73F1000405DBA8
:1007C0001C464FF00043524263EB0403994208BFBA
:1007D000904230BD064C074D06E0E06840F0010352
:1007E00094E8070098471034AC42F6D3FFF7D6FCE4
:1007F000C0210008E0210008202A06DBCB17203AA0
:1008000041FA02F043EAE07306E041FA02F3D04015
:10081000C2F12002914008431946704770B5164C4A
:1008200001221102204600F020FA01225102204646
:1008300000F01BFA012001F031FC104D01220221D1
:10084000284600F012FA0122D102204600F00DFAEB
:1008500000221021284600F008FA094C002201214C
:10086000204600F002FA0022A114204600F0FDF913
:10087000BDE8704000F006B80008024000000240E9
:100880000004024070B50D4D4FF4806400222146F3
:10089000284600F0EAF9012001F00EFC0122214671
:1008A000284600F0E2F9012001F006FC2146284626
:1008B000BDE87040002200F0D8B9000000080240F6
:1008C0002DE9F043364887B04FF00009016841F048
:1008D00001010160016801F001010591016841F029
:1008E00002010160016801F002010591016841F017
:1008F000040101600068012400F004000590032059
:100900004FF48055CDE90240CDE90054DFF89480E2
:100910006946404600F0B4F8E0020090694640465F
:1009200000F0AEF8A00200906946404600F0A8F83A
:10093000200200906946404600F0A2F86002009054
:100940006946404600F09CF8174F02266946384633
:10095000009600F095F8102000906946384600F0A7
:100960008FF8124F69463846009400F089F86946BE
:100970003846009500F084F86003CDE90009694627
:10098000404600F07DF869464046009400F078F853
:1009900069464046009600F073F807B0BDE8F08362
:1009A00030380240000802400000024000040240CB
:1009B0002DE9F047DFF87C80814600254FF4006781
:1009C0004FF4805A002632465146404600F04DF919
:1009D000012001F071FB002400223946404600F05E
:1009E00044F9012001F068FB0221404600F038F98B
:1009F000C4F10F018840304486B2012001F05CFB55
:100A000001223946404600F030F9012001F054FB44
:100A1000641CE4B2102CDFD301225146404600F0A2
:100A200024F929F815606D1CEDB2082DCAD3BDE874
:100A3000F08700000008024070B50E4D4FF480743E
:100A400000222146284600F010F9660000223146B7
:100A5000284600F00AF9012001F02EFB0122214670
:100A6000284600F002F931462846BDE870400122D0
:100A700000F0FBB800080240FEE7704772B6FEE7E0
:100A80002DE9F84FDFF8B8A10022012403254FF02B
:100A90000F090AF1040BAAF1040E00BF0B6804FA57
:100AA00002F63340B34273D10F7907F00307012FE9
:100AB00001D0022F16D187684FEA420805FA08FCD8
:100AC00027EA0C07D1F80CC00CFA08FC4CEA070C1A
:100AD000C0F808C04768B7430E79C6F300169640C1
:100AE0003E4346600E79F643B6070DD0C768560000
:100AF00005FA06FC27EA0C07D1F808C00CFA06FC38
:100B00004CEA070CC0F80CC00E7906F00306022E62
:100B100010D1D60800EB8608D8F8206057074FEAB6
:100B2000D76C09FA0CF7BE430F6907FA0CF7374385
:100B3000C8F8207006684FEA420C05FA0CF7BE436D
:100B40000F7907F0030707FA0CF7374307604E6881
:100B500016F4403F6DD03B4E376847F4804737600E
:100B6000366822F0030706F480460096364E07EBFF
:100B7000060CDCF8086897073F0F09FA07F826EA21
:100B80000806DFF8C880404503D14FF000081EE09A
:100B90004FE0DFF8BC80404502D14FF0010816E07D
:100BA000DFF8B080404502D14FF002080FE0DFF8D7
:100BB000A880404502D14FF0030808E0DFF89C8090
:100BC000404502D14FF0040801E04FF0070808FA51
:100BD00007F848EA0608CCF80888DAF800605746B3
:100BE000D1F804C09E435FEACC2C00D51E433E6082
:100BF000DBF800605F46D1F804C09E435FEA8C2CAE
:100C000000D51E433E60DEF800607746D1F804C090
:100C10009E435FEA8C3C00D51E433E60084F083F70
:100C20003E68D1F804C09E435FEACC3C00D51E4329
:100C30003E60521C102AFFF431AFBDE8F88F00006F
:100C4000083C0140443802400030014000000240AE
:100C50000004024000080240000C02400010024064
:100C60000069084000D0012070470AB181617047D7
:100C70000904FBE70148806870470000000000207D
:100C800002488168027811448160704700000020AA
:100C90000B4810B5016841F400710160016841F42E
:100CA00080610160016841F480710160032000F0FF
:100CB00061F80F2000F006F800F024F8002010BDC5
:100CC000003C024070B50D4D04464FF47A7128780F
:100CD000B1FBF0F00A490968B1FBF0F000F0FEFA50
:100CE00048B9102C07D200222146501E00F022F8ED
:100CF00000206C6070BD012070BD0000000000206D
:100D00000C0000200A4808B5016841F480410160E8
:100D1000006800F4804000900548001F016841F021
:100D200080510160006800F08050009008BD000014
:100D300044380240F0B40E4B1B680C46C3F3022348
:100D4000C3F10705042D00D90425191D072901D277
:100D5000002300E0DB1E012606FA05F1491E2140B2
:100D600099409E40761E16403143F0BC00F0E2BC34
:100D70000CED00E0064900F0070208684FF6FF039B
:100D8000184040EA0220034A104308607047000000
:100D90000CED00E00000FA052DE9F0470E460500D5
:100DA00065D0DFF81481D8F80000F7B200F0070032
:100DB000B04207D288F80070D8F8000000F00700B1
:100DC000B04254D128683D4C810712D5400703D565
:100DD000206840F4E05020602878000703D52068A0
:100DE00040F4604020602068A96820F0F0000843CB
:100DF00020602878C0072DD030496868083901285C
:100E000012D0022813D0032811D0096889070029BD
:100E10002DDA216821F0030101432160FFF72AFF49
:100E2000814641F2883A0EE009688903EFE70968D4
:100E30008901ECE7FFF71EFFA0EB0901514502D93C
:100E40000320BDE8F0872068696800F00C00B0EB73
:100E5000810FEFD1D8F80010404601F00701B142F0
:100E600007D90770006800F00700B04201D00120E8
:100E7000E7E72878400705D52068E96820F4E050C6
:100E8000084320602878000706D52068296920F4E7
:100E9000604040EAC100206000F038F82168084A4C
:100EA000C1F30311515CC840064908600648006858
:100EB000FFF708FF0020C4E7003C0240083802406A
:100EC000A82100080C000020040000200448054967
:100ED00000680968044AC1F38221515CC840704728
:100EE0000C00002008380240B821000804480549D9
:100EF00000680968044AC1F34231515CC840704738
:100F00000C00002008380240B8210008154810B530
:100F1000006810F00C02144813D01449042A0FD0B2
:100F2000082A0ED10F4C241F2268236802F03F02CA
:100F30005B0207D52068C0F38810A0FB010106E022
:100F4000084610BD2168C1F38811A1FB00010023F0
:100F5000FFF73CF92168C1F30141491C4900B0FB8E
:100F6000F1F010BD083802400024F40040787D0103
:100F70002DE9F84F04006ED02078DFF84C93C007BD
:100F8000A9F104054AD009F104000168C1F3810107
:100F9000012908D00068C0F3810002280AD1D9F8DD
:100FA0000000400206D52868800337D56068002815
:100FB000E1D033E06068B0F5803F10D0B0F5A02FED
:100FC000286810D020F480302860286820F4802021
:100FD00028606068A8B1FFF74DFE06460DE028685E
:100FE00040F48030F4E740F480202860F7E700BF49
:100FF000FFF740FE801B642873D828688003F7D56C
:101000000CE0FFF737FE064605E000BFFFF732FEB3
:10101000801B6428F0D828688003F7D42078DFF894
:10102000AC8280074FF0000A3ED5A748001D01683A
:1010300011F00C0F08D00068C0F3810002280BD11A
:10104000D9F80000400207D42868800716D5E06868
:10105000012800D112E033E1E068B8B10120C8F8FE
:101060000000FFF707FE064605E000BFFFF702FE9F
:10107000801B0228C0D828688007F7D52868216916
:1010800020F0F80040EAC10028600DE0C8F800A098
:10109000FFF7F0FD064604E0FFF7ECFD801B022899
:1010A0001FD828688007F7D42078000722D5864FFC
:1010B00087486169703771B101210160FFF7DAFD7E
:1010C000064604E0FFF7D6FD801B022809D83868E1
:1010D0008007F7D50EE0C0F800A0FFF7CBFD06466D
:1010E00005E082E0FFF7C6FD801B02287DD8386846
:1010F0008007F7D42078400768D5DFF8CCB1002707
:101100000BF13C0BDBF80000C0000BD4DBF8001047
:1011100041F08051CBF80010DBF80000012700F00F
:10112000805000906B4E3068C00510D4306840F499
:1011300080703060FFF79EFD009005E0FFF79AFD9C
:101140000099401A022850D83068C005F6D55E4E86
:10115000A0686C3601280FD00528306810D020F028
:1011600001003060306820F004003060A068B8B141
:10117000FFF780FD00900FE0306840F00100F4E7D9
:1011800040F004003060F7E7FFF774FD0099411A62
:1011900041F28830814266D830688007F4D50EE08D
:1011A000FFF768FD009007E0FFF764FD0099411A22
:1011B00041F28830814256D830688007F4D42FB18C
:1011C000DBF8001021F08051CBF80010A069C8B303
:1011D0003D49091D0968C1F3810102294AD002284D
:1011E000504607D0C8F8600000E03CE0FFF742FD41
:1011F00004463BE04746C8F86000FFF73BFD064663
:1012000005E000BFFFF736FD801B02282BD82868B9
:101210008001F7D4D4E907010843A16A2E4A49089E
:1012200002EB0141626A41EA8211084394F82C10F2
:1012300040EA0161C9F8001001203866FFF71AFD85
:10124000044606E03EE000BFFFF714FD001B022845
:1012500009D828688001F7D534E000BFFFF70AFD00
:10126000001B022802D90320BDE8F88F28688001FE
:10127000F4D427E00128F7D0D9F80000E26900F49F
:10128000800191421CD1226A00F03F01914217D1A6
:1012900047F6C071626A0140B1EB821F10D1A26AA9
:1012A0004FF0FF3300F4403103EB5202B1EB024F39
:1012B00006D194F82C1000F07060B0EB016F01D0F3
:1012C0000120D1E70020CFE7043802400000474268
:1012D000800E4742007000400000FFFF10B5401E26
:1012E000B0F1807F01D3012010BD4FF0E024606198
:1012F0000F21601700F01EFA0020A0610720206176
:10130000002010BD70B5040004D094F83D00002505
:1013100010B106E0012070BD84F83C50204600F07A
:1013200023F8242084F83D002068C16821F400518E
:10133000C160204600F02AF92068016921F490413B
:1013400001612068416921F02A0141612068C1687A
:1013500041F40051C1602564202084F83D0084F8E8
:101360003E00002070BD000010B586B00446142178
:101370006846FEF763FF14492068884221D113486C
:101380000021026842F010020260006800F01000C4
:1013900005900E481438026842F0010202600068AD
:1013A00000F0010005904FF4C06000900220CDE9EC
:1013B0000101032003900720049069460448FFF7C9
:1013C0005FFB06B010BD0000001001404438024031
:1013D000000002402DE9F843044690F83D001F4606
:1013E00016460D4620284CD1C5B1BEB194F83C003C
:1013F000012846D0012084F83C004FF00008C4F8D2
:101400004080212084F83D00FFF734FCA68481460B
:10141000E684A068B0F5805F03D004E00120BDE859
:10142000F883206928B12E465FF0000584F83C80DF
:101430000EE00026FAE78021204600F02DF9A0B941
:10144000AEB116F8010B21684860E08C401EE084C4
:10145000E08C4B464FF0000200970028EBD14FF094
:101460004001204600F018F930B10320D7E735F8E5
:10147000020BC0F30800E6E7202084F83D000020BE
:10148000CDE70220CBE7FEE7054808B5016841F04B
:1014900001010160006800F00100009008BD00003B
:1014A000303802400C4810B50A4901604FF4E13170
:1014B0004160002181600C22C160C0E90412816199
:1014C000C161FFF71FFF002803D0BDE81040FFF700
:1014D000D5BA10BD0010014018000020FEE7FEE75D
:1014E00070477047FFF7CCBB30B593B030216846EA
:1014F000FEF7A4FE14210CA8FEF7A0FE1D48002450
:10150000016841F080510160006800F08050119046
:101510001948016821F4404141F40041016000682C
:10152000022500F440401190012003901020049007
:10153000009506950820CDE907405420CDE909051E
:1015400004200B906846FFF713FD08B172B6FEE762
:101550000F20CDE90C054FF48050CDE90E4002215B
:101560000CA81094FFF718FC002801D072B6FEE713
:1015700013B030BD4038024000700040024801689E
:1015800041F470010160704788ED00E070B50446D9
:1015900000680169E26821F4405111430161216949
:1015A000A068E26908436169114308432168CA6879
:1015B00049F20C639A430243CA6020684169A269F8
:1015C00021F440711143416131492068884202D0C1
:1015D0003049884202D1FFF789FC01E0FFF776FC31
:1015E000E2690023192164253226B2F5004F6268B2
:1015F00028D0A0FB0101930F9200FEF7E7FD014602
:10160000B0FBF5F06FF01802504301EB800006EBE1
:101610000010B0FBF5F000F0F002B1FBF5F002EBCA
:101620000012B1FBF5F06FF01803584301EB800096
:1016300006EB0010B0FBF5F000F00F00216810443D
:10164000886070BDA0FB010192185B41FEF7BEFDF2
:101650000146B0FBF5F00201B1FBF5F06FF01803A5
:10166000584301EB800006EBC000B0FBF5F000F042
:10167000F80002EB4002B1FBF5F0584301EB8000AB
:1016800006EBC000B0FBF5F000F00700D6E7000065
:1016900000100140001401402DE9F0419846174622
:1016A0000E460446069D27E0681C25D02DB1FFF7A5
:1016B000E1FAA0EB0800A8421ED920680C3050E8DF
:1016C000001F21F4D07140E80012002AF5D12068F3
:1016D000143050E8001F21F0010140E80012002AF8
:1016E000F5D1202084F83D0084F83E00002084F8E5
:1016F0003C000320BDE8F0812068006836EA000065
:1017000004D00020B842CFD00020F3E70120F9E751
:10171000FEE700000FB4054B10B503A9044A029878
:1017200000F0DAF810BC5DF814FB0000ED200008B2
:10173000140000200907090E002804DB00F1E02056
:1017400080F80014704700F00F0000F1E02080F8EE
:10175000141D704702E008C8121F08C1002AFAD100
:1017600070477047002001E001C1121F002AFBD121
:10177000704700002DE9FF5FDDE90220010DDDF873
:1017800038B0024318D044F61050A1F2FF31414363
:101790000D140F98012820D0A5EB0B00401C5FEA28
:1017A000000A4FF00004474EDFF81C91A046504657
:1017B00016D5CAF1000728E00F98012443A201289A
:1017C00008D0002100980F9BC0E90021C0E9024326
:1017D000BDE8FF9F6FEA0B01F4E7CBF10000DEE705
:1017E000074612E0F80707D02246334640464946EE
:1017F000FEF72FFD8046894622463346104619469D
:10180000FEF727FD04460E467F10002FEAD1DDE9E2
:101810000201BAF1000F42464B4602DAFEF719FD0B
:1018200001E0FEF738FF04460E460022284BFEF783
:10183000B9FF03D84FF0FF30014607E00022254BE7
:1018400020463146FEF780FEFEF794FF102409E0A3
:10185000002C0ADB0A220023FEF7B8FC019B303281
:101860001A55641E50EA0102F2D1641C019AC4F1B7
:10187000110314440F9A012A03D0012208430DD109
:101880000AE0084304D000204FF0110B0F9080E7CE
:10189000A3EB0B056D1E0DE05B4504DD4FF0000270
:1018A00005F1010504E003DA4FF00002A5F101059E
:1018B000002AECD000980F99C0E90231C0E9004538
:1018C00086E70000000024400000F03F30000000E8
:1018D0000000F0430000E03F2DE9FF4F95B09B462C
:1018E0008946064600250FE2252877D100242746A1
:1018F000F84A0121059400E0044316F8013F203B1B
:1019000001FA03F01042F7D130782A2811D06FF095
:101910002F033078A0F13002092A16D8059A44F036
:10192000020402EB820203EB42021044761C059093
:10193000EFE759F8042B0592002A03DA504244F4E9
:101940000054059044F00204761C30782E2816D1FD
:1019500016F8010F44F004042A280DD06FF02F026E
:101960003078A0F13003092B09D807EB870302EB8D
:101970004303C718761CF3E759F8047B761C3078CC
:101980006C280FD006DC4C2817D068280DD06A28A8
:1019900014D104E0742810D07A280FD10DE044F45B
:1019A00000140AE044F4801401E044F44014727816
:1019B000824202D104F58014761C761C30786628A9
:1019C0000BD013DC582877D009DC002875D04528C7
:1019D000F6D04628F4D047281AD19DE118E06328B4
:1019E00035D0642879D0652812D195E1702873D05C
:1019F00008DC6728F1D069286FD06E280DD06F28D9
:101A000006D1B5E073282CD0752875D0782874D00D
:101A10005A46179990476D1C75E1C4F3025002288D
:101A200009D003280DD0D9F8001004280DD00D607E
:101A300009F1040967E1D9F80010EA17C1E9005279
:101A4000F6E7D9F800100D80F2E70D70F0E719F80D
:101A5000041B8DF8001000208DF80100EA460120DB
:101A600003E059F804AB4FF0FF3061074FF000017D
:101A700002D40DE008F101018846B9420FDA804531
:101A8000F8DB1AF808100029F4D108E008F1010188
:101A900088468142FADB1AF808100029F6D1059829
:101AA0005B46A0EB080721463846179A00F094FAE7
:101AB000284400EB080507E04DE029E10DE01AF8A5
:101AC000010B5A4617999047B8F10108F7D25B46C7
:101AD00021463846179A13E142E00A220092C4F3E5
:101AE00002524FF0000A022A08D059F804CB032A08
:101AF0004FEAEC710AD00DE029E02AE009F1070174
:101B000021F00702F2E802C1914609E00FFA8CFCCD
:101B10004FEAEC71042A03D14FFA8CFC4FEAEC71C6
:101B2000002907DA0A460021DCF1000C61EB020112
:101B30002D2202E0220504D52B228DF8042001225B
:101B400003E0E20701D02022F7E7904659E00A219E
:101B500002E010220DE010214FF0000A00910BE08E
:101B600010224FF0000A44F004040827009203E01A
:101B700008224FF0000A0092C4F30252022A05D054
:101B800059F804CB0021032A08D009E009F1070124
:101B900021F00702F2E802C1914605E01FFA8CFC31
:101BA000042A01D10CF0FF0C4FF00008220728D5C1
:101BB000702806D0009B83F0100353EA0A0305D077
:101BC0000EE040228DF80420012208E05CEA0102C8
:101BD00006D030228DF804208DF8050002229046B0
:101BE000009B83F0080353EA0A030AD15CEA01026E
:101BF00001D1620705D530228DF804204FF001088D
:101C00007F1E582804D034A003900EA802900DE047
:101C100036A0F9E753466046009AFEF7D7FA8446A5
:101C20000398825C0298401E029002705CEA0100F8
:101C3000F0D1029806A9081A00F1200A600702D51F
:101C400024F4803400E00127574502DDA7EB0A00A9
:101C500000E0002000EB0A01009005984144401A82
:101C60000590E00306D45B462146179A059800F0DC
:101C7000B3F90544002706E001A85A46C05D17994C
:101C800090476D1C7F1C4745F6DBE0030CD55B4697
:101C90002146179A059800F09FF9054404E030208A
:101CA0005A46179990476D1C0099481E00900029CC
:101CB000F5DC08E0029802995A460078491C029126
:101CC000179990476D1CBAF10001AAF1010AF1DCE5
:101CD00065E10000092801003031323334353637F0
:101CE0003839616263646566000000003031323368
:101CF0003435363738394142434445460000000008
:101D000000F058F90544761C307800287FF4ECADDB
:101D100019B02846BDE8F08F620700D4062709F104
:101D2000070222F0070CFCE80223E14603F000481A
:101D30005FEA080C02D00FF2702C0DE05FEA045C41
:101D400002D50FF2682C07E05FEAC47C02D00FF2E4
:101D5000602C01E0AFF2700C4FF0FF3823F000432D
:101D6000CDF850C065280CD006DC452809D046289F
:101D70001DD047283DD13DE0662818D067287ED188
:101D800038E00021112F01DB112000E0781CCDE9A3
:101D9000000106A90EA8FFF7EDFCDDE90F010E9A80
:101DA00003910021009207F1010A04914DE04FF0E8
:101DB00000400097CDE9011006A90EA8FFF7DAFC54
:101DC000DDE90F0203920E9B11990022DDF80CA0B1
:101DD0000093049211B9791C00EB010AB7EB0A00D9
:101DE00004D4C0F1FF3007F1010A0490AAEB070008
:101DF000019044E0012F00DA01270021112F01DDBD
:101E0000112000E03846CDE9000106A90EA8FFF731
:101E1000B1FCDDE90F010E9A0391002104910092BB
:101E2000BA4621070CD40399514500DA8A46BAF123
:101E3000010F05DD009AAAF10101515C302908D09B
:101E4000B84202DA10F1040F06DA0121CDE90110DF
:101E500015E0AAF10101E9E7002805DC0499014435
:101E60000491AAEB000102E0411C514500DD8A46C5
:101E70000499401A401C01904FF000400290200746
:101E800004D40198504501DBCDF8048000208DF882
:101E90004F0002980DF14F07B0F1004F25D02B20D5
:101EA0000E9002984FF0020800280CDA404202908F
:101EB0002D200E9007E00A210298FEF77CFA3031BF
:101EC000029007F8011DB8F10001A8F10108F2DC49
:101ED00002980028EFD1791E0E980870307800F033
:101EE000200040F0450007F8020D12A8C01B00F1C9
:101EF00007081498007800B1012000EB0A0101984E
:101F000001EBE07105984144401A401E0590E00342
:101F100006D45B462146179A059800F05DF8054403
:101F20001498007818B15A46179990476D1CE00331
:101F300024D55B462146179A059800F04DF80544D4
:101F40001CE00498002807DBDDE90301884203DD7B
:101F50000098405C179901E0179930205A46904745
:101F6000049805F10105401C04900198401E019061
:101F700004D12E205A46179990476D1CBAF10001E2
:101F8000AAF1010ADDDC05E017F8010B5A461799A2
:101F900090476D1CB8F10001A8F10108F4DC5B4624
:101FA0002146179A0598ABE62D0000002B00000093
:101FB000200000002DE9F041044600251E4617468A
:101FC000880404D405E039462020B0476D1C641E07
:101FD000F9D52846BDE8F0812DE9F04104460025F9
:101FE0001E469046C80301D5302700E0202788040C
:101FF00004D505E041463846B0476D1C641EF9D54E
:102000002846BDE8F08100002DE9F0418CB00E4675
:10201000074620216846FEF711F9002508ACE8467E
:1020200015E000BFFEF708FD052000F037F808A80E
:10203000FEF7BEFC0020414634F9103051F8202054
:102040001A4441F82020401C0828F5DB6D1CB542DD
:10205000E8DB00200346414651F8202000EE102A1C
:10206000F8EEC00A00EE106AB8EE400A80EE801A60
:10207000BDEEC10A10EE102A24F8102041F82030DD
:10208000401C0828E8DB002034F8101027F8101056
:10209000401C0828F8DB0CB0BDE8F08170B505469F
:1020A00000244FF47A7603E0304600F005F8641C13
:1020B000AC42F9D370BD000070B54FF0E0240022AF
:1020C00065690949A36909684843A1699942FCD037
:1020D00002D2A3EB010302E0A5EB010633441A444C
:1020E0000B468242F1D370BD1000002013B54FF6AD
:1020F000FF73012269460248FFF76CF900981CBD86
:10210000180000202DED048B84B0FEF7C1FDFFF711
:10211000EBF9FFF7B9F9FFF7C5F9FEF7D1FBFEF7C9
:102120007DFB9FED188B9FED199B6D460A2168463C
:10213000FFF76AFF5FF0000435F91400FEF7FBF8C3
:10214000B0EE481AF0EE681A53EC112BFEF781F846
:10215000B0EE491AF0EE691A53EC112BFEF779F83C
:10216000FEF70DF9FEF7F8F841EC100B214653ECA1
:10217000102B08A0FFF7CEFA641CE4B2082CDBD3C6
:10218000D4E7000000000000000024400000000030
:102190000000003F6368616E6E656C25643A20251F
:1021A0006C660D0A00000000000000000000000046
:1021B00001020304060708090000000001020304ED
:1021C000E02100080000002018000000541700085B
:1021D000F8210008180000204804000064170008D7
:1021E0000100000010000000000000000024F400C6
:0821F0000000000000000000E7
:040000050800019559
:00000001FF
