:10031C002020414439383534205445535421202071
:10032C00004672653A202020202020202020487A88
:09033C0000313030303030300067
:1002500012040312042D7BFF7A03791CE4FD7F0155
:100260001203457BFF7A03792D7D017F011203453F
:100270001202C1750B40750A4275090F7508007F9F
:10028000FF7EE07DF57C05AB0BAA0AA909A808D37F
:1002900012018C400C750BFF750AE07509F57508A5
:1002A000057BFF7A03793D7D017F06120345AF0B85
:1002B000AE0AAD09AC0875100F7511FF1202F0807F
:0102C000FE3F
:0C041300042D000E510A04234965109FBF
:0A03A900E510FD1203B3E511FD0F8E
:1003B300E59054C0FEEF543F4EF5908DB0C296D2F7
:0203C300962280
:1002C100D296D2A7C2A4D2A07F0A1203DDC2A0D2C5
:1002D100A1E4FD7F1D1203B37D0A0F1203B3E4FDF8
:0F02E1000F1203B37D600F1203B3D2A4C2A42285
:080003008F168E158D148C136D
:10000B0085301E852F1D852E1C852D1B8F1F780877
:10001B001201B08F20AF16AE15AD14AC13781012C1
:10002B0001B08F21AF16AE15AD14AC1378181201B9
:10003B00B08F22AF1FE4FCFDFEAB1EAA1DA91CA8AE
:10004B001B12013D8F1A8E198D188C178F2778086C
:10005B0012019D8F1A8E198D188C17AF20E4FCFDA1
:10006B00FEAB1EAA1DA91CA81B12013DE51A2FF5FC
:10007B001AE5193EF519E5183DF518E5173CF51786
:10008B00851A28AF1AAE19AD18FC780812019D8F8E
:10009B001A8E198D188C17AF21E4FCFDFEAB1EAA2E
:1000AB001DA91CA81B12013DE51A2FF51AE5193ED7
:1000BB00F519E5183DF518E5173CF517851A29AF25
:1000CB001AAE19AD18FC780812019D8F1A8E198D76
:1000DB00188C17AF22E4FCFDFEAB1EAA1DA91CA8B1
:1000EB001B12013DE51A2FF51AE5193EF519E51816
:1000FB003DF518E5173CF517851A2AAF1AAE19AD61
:10010B0018FC780812019D8F1A8E198D188C178F79
:08011B002B780812019D8F2CC6
:0101230022B9
:1002F0007512041200037C06ECD394004010AF1278
:1003000005121C74272CF8E6FD1203B380EA7F2146
:0B0310001203A90F1203A9D2A4C2A47B
:01031B0022BF
:1004030012036975B0FF75A0FF7590FF7580FF2219
:03043700DFFE22C3
:1003DD00AE07AF061EEF600C7FF51204377FF512E6
:0503ED00043780EE2240
:0D042000C290D291C2A500D2A5E580332282
:0C038C007F381203987F051203DD7F38D4
:1003980012042040FBC290C291D2A58F8000C2A552
:0103A8002232
:1003F20012042040FBD290C291D2A58F8000C2A5E8
:0104020022D7
:0A042D007F011203987F050203DD32
:10034500AE07ED7005EE24808003EE24C0FF120396
:1003550098120124FF600C1203F2740129F9E43AA2
:04036500FA80EE220A
:1003C500AE07AC03ED7005EE24808003EE24C0FF7C
:0803D500120398AF040203F2C9
:1003690012038C7F051203DD12038C7F0812039898
:100379007F011203987F061203981F1203DD7F0C79
:03038900020398D4
:030000000201C436
:0C01C400787FE4F6D8FD75813002020B54
:10012400BB010689828A83E0225002E722BBFE02D9
:09013400E32289828A83E493220C
:10013D00E88FF0A4CC8BF0A42CFCE98EF0A42CFC61
:10014D008AF0EDA42CFCEA8EF0A4CDA8F08BF0A4DF
:10015D002DCC3825F0FDE98FF0A42CCD35F0FCEB3E
:10016D008EF0A4FEA9F0EB8FF0A4CFC5F02ECD3903
:0F017D00FEE43CFCEAA42DCE35F0FDE43CFC2270
:10018C00EB9FF5F0EA9E42F0E99D42F0E89C45F0C9
:01019C002240
:10019D00E8600FECC313FCED13FDEE13FEEF13FF40
:0301AD00D8F12264
:1001B000E86010ECA2E713FCED13FDEE13FEEF1365
:0401C000FFD8F02252
:1001D000020250E493A3F8E493A34003F68001F2F3
:1001E00008DFF48029E493A3F85407240CC8C33330
:1001F000C4540F4420C8834004F456800146F6DFFF
:10020000E4800B0102040810204080900413E47E77
:10021000019360BCA3FF543F30E509541FFEE493F3
:10022000A360010ECF54C025E060A840B8E493A3BA
:10023000FAE493A3F8E493A3C8C582C8CAC583CAE5
:10024000F0A3C8C582C8CAC583CADFE9DEE780BE9D
:01041F0000DC
:00000001FF
