:020000040800F2
:1000000010040020450100084D0100084F010008C0
:1000100051010008530100085501000800000000CC
:100020000000000000000000000000005701000870
:1000300059010008000000005B0100085D01000894
:100040005F0100085F0100085F0100085F01000810
:100050005F0100085F0100085F0100085F01000800
:100060005F0100085F0100085F0100085F010008F0
:100070005F0100085F0100085F0100085F010008E0
:100080005F0100085F0100085F0100085F010008D0
:100090005F0100085F0100085F0100085F010008C0
:1000A0005F0100085F0100085F0100085F010008B0
:1000B0005F0100085F0100085F0100085F010008A0
:1000C0005F0100085F0100085F0100085F01000890
:1000D0005F0100085F0100085F0100085F01000880
:1000E0005F0100085F0100085F0100085F01000870
:1000F0005F0100085F0100085F0100085F01000860
:100100005F0100085F0100085F0100085F0100084F
:100110005F0100085F0100085F0100085F0100083F
:100120005F0100085F0100085F0100085F0100082F
:10013000DFF80CD000F018F800480047E10700088D
:10014000100400200648804706480047FEE7FEE707
:10015000FEE7FEE7FEE7FEE7FEE7FEE7FEE7FEE777
:100160006107000831010008064C074D06E0E06811
:1001700040F0010394E8070098471034AC42F6D3EE
:10018000FFF7DAFFBC090008DC09000810B54FF4DE
:1001900080511E4800F0AEF94FF400711B4800F08A
:1001A000A9F94FF48061194800F0A4F94FF40061F7
:1001B000164800F0A1F90A2000F08EF84FF4006113
:1001C000124800F097F90421114800F093F94FF418
:1001D00080710E4800F08EF9072000F057F80020DB
:1001E00000F054F80A2000F051F8002000F04EF81A
:1001F000602000F04BF84FF48061044800F07CF977
:100200004FF48061014800F075F910BD0010014005
:10021000000801402DE9F04107460C46002638460B
:1002200000F07EF806250CE016B9022000F02EF84A
:10023000691EC9B20D46134A505C00F027F8701CC5
:10024000C6B2002DF0DC082000F020F8201200F0EB
:100250001DF8E0B200F01AF8092000F017F820129B
:1002600000F014F8E0B200F011F84FF48061064895
:1002700000F042F94FF48061034800F03BF9BDE81B
:10028000F0810000060000200010014070B5044617
:10029000082519E004F0800020B101210C4800F08D
:1002A0002BF903E001210A4800F024F96006040E4E
:1002B0004FF40071074800F01DF94FF40071054834
:1002C00000F01AF9681EC5B2002DE3DC70BD000015
:1002D000000801400010014000BF072100BF0B22B1
:1002E00000BF531E9BB21A1EFBD14B1E9BB2191EA0
:1002F000F5D1431EDBB2181EEFD1704700BF772146
:1003000000BF432200BF531E9BB21A1EFBD14B1EDF
:100310009BB2191EF5D1431EDBB2181EEFD17047F8
:1003200018B50146144ACBB28DF800300B0A8DF88F
:1003300001300B0C8DF802300B0E8DF803309DF858
:10034000003003FB02F00D4C2070000A9DF80130D4
:1003500002FB03006070000A9DF8023002FB0300FC
:10036000A070000A9DF8033002FB0300E070000A51
:100370002071030A637118BD0A510E0006000020A7
:1003800008B50121142000F023F90720ADF8000082
:1003900003208DF8020010208DF8030069460948FB
:1003A00000F014F84FF4FE40ADF8000003208DF883
:1003B000020010208DF803006946034800F006F89B
:1003C00008BD000000080140001001402DE9F04187
:1003D000024600250026002000230024002791F873
:1003E00003C00CF00F0591F803C00CF0100CBCF129
:1003F000000F03D091F802C04CEA050591F800C047
:10040000BCF1000F31D0146800202BE04FF0010C3C
:100410000CFA00F3B1F800C00CEA03069E4220D1AA
:1004200083004FF00F0C0CFA03F7BC4305FA03FCF2
:100430004CEA040491F803C0BCF1280F06D14FF038
:10044000010C0CFA00FCC2F814C00AE091F803C0D9
:10045000BCF1480F05D14FF0010C0CFA00FCC2F8BA
:1004600010C0401C0828D1D31460B1F800C0BCF102
:10047000FF0F34DD546800202EE000F1080C4FF02F
:10048000010808FA0CF3B1F800C00CEA03069E421A
:1004900021D183004FF00F0C0CFA03F7BC4305FA8F
:1004A00003FC4CEA040491F803C0BCF1280F05D109
:1004B00000F1080C08FA0CF8C2F8148091F803C097
:1004C000BCF1480F07D100F1080C4FF0010808FA01
:1004D0000CF8C2F81080401C0828CED35460BDE848
:1004E000F0810246002093680B400BB1012000E030
:1004F00000207047416170470161704708B50121D4
:10050000402000F065F80F20ADF8000048208DF87D
:10051000030003208DF8020069460248FFF756FFEA
:1005200008BD00000018014010B500240121274833
:10053000FFF7D7FF78B102212448FFF7D2FF50B16F
:1005400004212248FFF7CDFF28B108211F48FFF7FB
:10055000C8FF002837D10A20FFF7D0FE01211B4831
:10056000FFF7BFFF38B9012400BF01211748FFF78B
:10057000B8FF0028F9D002211448FFF7B2FF38B9BC
:10058000022400BF02211148FFF7ABFF0028F9D079
:1005900004210E48FFF7A5FF38B9032400BF04214A
:1005A0000A48FFF79EFF0028F9D008210748FFF707
:1005B00098FF48B9042400BF08210448FFF791FFC1
:1005C0000028F9D000E00024204610BD00180140AA
:1005D00029B1064A92690243044B9A6104E0034A36
:1005E00092698243014B9A617047000000100240FB
:1005F00010B500F001F810BD0CB50020019000907E
:100600003348006840F480303149086000BF30480A
:10061000006800F4003000900198401C01900098A0
:1006200018B90198B0F5A06FF1D12948006800F41D
:10063000003010B10120009001E0002000900098EF
:10064000012843D12348006840F010002149086088
:100650000846006820F0030008600846006840F083
:10066000020008601A484068194948600846406816
:1006700048600846406840F480604860084640682A
:1006800020F47C1048600846406840F4E810486058
:100690000846006840F08070086000BF0C480068A1
:1006A00000F000700028F9D00948406820F00300ED
:1006B000074948600846406840F00200486000BFB3
:1006C0000348406800F00C000828F9D10CBD000078
:1006D000001002400020024070B50025012400BF38
:1006E0002DE040F6FF712046FFF794FDFA20FFF75A
:1006F00005FEB4F57A7F01D2C7341BE042F21070D8
:10070000844202D204F5FA6414E00E48844203D213
:1007100044F6206004440DE00B48844202D20B48AA
:10072000044407E00A48844202D20A48044401E033
:10073000094804440948844200D304466D1C3A2DFC
:10074000CFD370BDA086010040420F00400D0300D2
:100750008096980080841E00404B4C00C0EF0B0830
:1007600010B51348006840F00100114908600846C0
:100770004068104908400E494860084600680E4924
:1007800008400B4908600846006820F48020086093
:100790000846406820F4FE0048604FF41F0088605F
:1007A000FFF726FF4FF000600449086010BD00000D
:1007B000001002400000FFF8FFFFF6FE08ED00E029
:1007C00002E008C8121F08C1002AFAD1704770471A
:1007D000002001E001C1121F002AFBD17047000078
:1007E000002400256420FFF789FDFFF787FEFFF74F
:1007F000C7FD0520FFF782FDFFF7C8FC1420FFF7B7
:100800007DFDCBE0FFF790FE0546012D23D1601C56
:10081000C4B2012C02D0022C1BD10BE0FFF7B6FCB6
:100820001420FFF76BFD5E4801885E480068FFF703
:10083000F1FC0FE01420FFF761FDFFF74DFF0024EE
:100840004FF47A705749086040F6FF7054490880A9
:1008500000E000BF00BF022D4FD1012C4DD1514807
:1008600000685149884242D24E480068B0F57A7F0C
:1008700005D24C48006864304A49086037E049486E
:10088000006842F21071884206D24648006800F5BE
:100890007A70444908602AE0424800684349884227
:1008A00007D24048006842F2107108443D49086090
:1008B0001DE03C4800683E49884206D2394800683D
:1008C0003A4908443749086011E036480068394918
:1008D000884206D2334800683549084431490860E7
:1008E00005E030480068344908442E4908602C4827
:1008F00001882C480068FFF78DFC032D4ED1012C98
:100900004CD128480068642842D926480068294903
:10091000884206D9234800684910401A21490860D6
:1009200036E0204800682249884205D91D48006801
:10093000401A1C4908602BE01A4800681B4988428D
:1009400005D918480068401A1649086020E0154883
:10095000006842F21071884205D912480068401AB6
:100960001049086014E00F480068B0F57A7F06D996
:100970000C480068A0F57A700A49086008E0094848
:100980000068642804D9074800686438054908608D
:100990000348018803480068FFF73CFC32E7000089
:1009A0000400002000000020C0EF0B08A08601001A
:1009B00040420F0080969800404B4C00DC09000834
:1009C000000000200C000000C0070008E809000833
:1009D0000C00002004040000D0070008E803000019
:0809E000FF0F00000000000001
:0400000508000131BD
:00000001FF
