:020000040800F2
:10000000780C00204D0200089907000891070008AD
:1000100095070008710400080D08000800000000A2
:100020000000000000000000000000009D07000824
:1000300075040008000000009B0700089F070008E7
:1000400067020008670200086702000867020008EC
:1000500067020008670200086702000867020008DC
:1000600067020008670200086702000867020008CC
:1000700067020008670200086702000867020008BC
:1000800067020008670200086702000867020008AC
:10009000670200086702000867020008670200089C
:1000A000670200086702000867020008670200088C
:1000B000670200086702000867020008670200087C
:1000C000670200086702000867020008670200086C
:1000D000670200086702000867020008670200085C
:1000E000670200086702000867020008670200084C
:1000F000670200086702000867020008670200083C
:10010000670200086702000867020008670200082B
:10011000670200086702000867020008670200081B
:10012000670200086702000867020008670200080B
:1001300067020008670200086702000867020008FB
:1001400067020008670200086702000867020008EB
:1001500067020008670200086702000867020008DB
:1001600067020008670200086702000867020008CB
:10017000670200086702000867020008000000002C
:1001800067020008670200086702000867020008AB
:10019000670200086702000867020008670200089B
:1001A00067020008670200086702000800F002F812
:1001B00000F03CF80AA090E8000C82448344AAF1C5
:1001C0000107DA4501D100F031F8AFF2090EBAE8C3
:1001D0000F0013F0010F18BFFB1A43F0010318477B
:1001E000A4060000C4060000103A24BF78C878C1F5
:1001F000FAD8520724BF30C830C144BF04680C602D
:10020000704700000023002400250026103A28BF74
:1002100078C1FBD8520728BF30C148BF0B60704778
:100220001FB500F029FB1FBD10B510BD00F031F85F
:100230001146FFF7F5FF00F003FB00F04FF803B4A1
:10024000FFF7F2FF03BC00F057F8000009488047B1
:1002500009480047FEE7FEE7FEE7FEE7FEE7FEE7A8
:10026000FEE7FEE7FEE7FEE704480549054A064BC0
:1002700070470000A9070008AD01000878000020C1
:10028000780C002078020020780200207047704728
:100290007047754600F02CF8AE4605006946534697
:1002A00020F00700854618B020B5FFF7DDFFBDE858
:1002B00020404FF000064FF000074FF000084FF0CD
:1002C000000B21F00701AC46ACE8C009ACE8C0095E
:1002D000ACE8C009ACE8C0098D46704710B50446CB
:1002E000AFF300802046BDE81040FFF7A8BF000034
:1002F000004870471800002001491820ABBEFEE7F7
:10030000260002007047000010B500224FF4805113
:10031000214800F02FFA00224FF400711E4800F02F
:1003200029FA00224FF480611B4800F023FA0122D1
:10033000D102194800F01EFA642000F075FA00227C
:100340004FF40061144800F015FA0022012113480F
:1003500000F010FA00224FF480710F4800F00AFA02
:10036000072000F059F8002000F056F80A2000F0AD
:1003700053F8002000F050F8602000F04DF8012202
:100380009102054800F0F6F900224FF4806102481E
:1003900000F0F0F910BD0000000802400004024027
:1003A0002DE9F04107460C460026384600F064F877
:1003B00006250CE016B9022000F02EF8691EC9B21D
:1003C0000D46134A505C00F027F8701CC6B2002D91
:1003D000F0DC082000F020F8201200F01DF8E0B258
:1003E00000F01AF8092000F017F8201200F014F8B5
:1003F000E0B200F011F801229102064800F0BAF9CB
:1004000000224FF48061034800F0B4F9BDE8F081A8
:10041000000000200008024070B5044608251FE0D7
:1004200004F0800028B1012204210F4800F0A2F955
:1004300004E0002204210C4800F09CF96006040E40
:10044000322000F0F1F900224FF40071074800F06B
:1004500091F901225102054800F08CF9681EC5B2DD
:10046000002DDDDC70BD00000004024000080240E9
:1004700000BFFEE77047000018B50146144ACBB232
:100480008DF800300B0A8DF801300B0C8DF802301E
:100490000B0E8DF803309DF8003003FB02F00D4C7D
:1004A0002070000A9DF8013002FB03006070000A12
:1004B0009DF8023002FB0300A070000A9DF8033093
:1004C00002FB0300E070000A2071030A637118BD8B
:1004D0000A510E000000002000B587B000BF0020C8
:1004E00001901A48006840F0040018490860084666
:1004F000006800F00400019000BF00BF00BF0020B2
:1005000001900846006840F0020008600846006854
:1005100000F00200019000BF00BF07200290012000
:10052000039004900220059002A9094800F014F8F5
:100530004FF47C500290012003900490022005901B
:1005400002A9044800F008F807B000BD30380240A6
:100550000004024000080240F8B502460B460025A0
:10056000002400200021E6E0012606FA01F51E68BD
:1005700006EA0504AC4273D15E68022E02D05E68C2
:10058000122E13D1CF0802F1200656F827004E078D
:10059000F70E0F26BE40B0434F07FF0E1E69BE4048
:1005A0003043CF0802F1200646F8270010684F00BC
:1005B0000326BE40B0431E7906F003064F00BE403E
:1005C000304310605E68012E08D05E68022E05D0B0
:1005D0005E68112E02D05E68122E13D190684F0013
:1005E0000326BE40B0434F00DE68BE4030439060FB
:1005F000506801268E40B0431E79C6F300168E4027
:1006000030435060D0684F000326BE40B0434F00D7
:100610009E68BE403043D0605E6806F08056B6F1FA
:10062000805FA8D100BF00260096454E366846F48C
:100630008046434F3E603E46366806F4804600964C
:1006400000BF00BF3F4E8F0856F827008E07370FB8
:100650000F26BE40B0433C4EB24202D100262EE0EF
:1006600068E03A4EB24201D1012628E0384EB2424B
:1006700001D1022623E0374EB24201D103261EE00B
:10068000354EB24201D1042619E0344EB24201D1B6
:10069000052614E0324EB24201D106260FE0314E5B
:1006A000B24201D107260AE02F4EB24201D10826FC
:1006B00005E02E4EB24201D1092600E00A268F073E
:1006C0003F0FBE4030431F4E8F0846F82700284E8C
:1006D0003068A0435E6806F48036B6F5803F00D1EE
:1006E0002043234E3060361D3068A0435E6806F418
:1006F0000036B6F5003F00D120431D4E361D306058
:10070000361D3068A0435E6806F48016B6F5801F7B
:1007100000D12043164E08363060361D3068A043A5
:100720005E6806F40016B6F5001F00D12043104E97
:100730000C363060491C1029FFF416AFF8BD0000DC
:1007400044380240083801400000024000040240E2
:1007500000080240000C0240001002400014024059
:1007600000180240001C0240002002400024024009
:10077000003C01400AB1816101E00B0483617047D4
:1007800002480068401C01490860704714000020BE
:1007900000BFFEE700BFFEE770477047704710B527
:1007A000FFF7EEFF10BD00001448006840F4700031
:1007B000124908601248006840F0010010490860C2
:1007C00000200F49083108600D4800680D490840B5
:1007D0000B4908600C48091D0860081F006820F4D8
:1007E0008020091F0860002005490C3108604FF087
:1007F00000600249803908607047000088ED00E021
:1008000000380240FFFFF6FE1030002400BFFEE774
:1008100030B50446002504E04FF47A7000F004F887
:100820006D1CA542F8D330BD05E02B2100BF0A1E88
:10083000A1F10101FBD1021EA0F10100F5D1704729
:100840006420FFF7E5FFFFF747FE0520FFF7E0FF15
:10085000FFF75AFD0F20FFF7DBFF4FF47A740548CE
:10086000844200D9044640F6FF712046FFF798FD08
:1008700000BFFEE7FFE0F5054FF04070E1EE100A23
:1008800070470000A40800080000002018000000C5
:10089000E8010008BC08000818000020600C0000F7
:1008A000040200080000000000000000000000003A
:0C08B0000000000000000000000000003C
:04000005080001AD41
:00000001FF
