:020000040800F2
:10000000880C00204D020008B30F0008950F00086F
:10001000AF0F0008BD0300087511000800000000C4
:10002000000000000000000000000000EF0F0008CA
:10003000C103000800000000ED0F0008F10F0008E8
:1000400067020008670200086702000867020008EC
:1000500067020008670200086702000867020008DC
:1000600067020008670200086702000867020008CC
:1000700067020008670200086702000867020008BC
:1000800067020008670200086702000867020008AC
:10009000670200086702000867020008670200089C
:1000A000670200086702000867020008670200088C
:1000B000670200086702000867020008670200087C
:1000C000670200086702000867020008670200086C
:1000D000670200086702000867020008670200085C
:1000E000670200086702000867020008670200084C
:1000F000670200086702000867020008670200083C
:10010000670200086702000867020008670200082B
:10011000670200086702000867020008670200081B
:10012000670200086702000867020008670200080B
:1001300067020008670200086702000867020008FB
:1001400067020008670200086702000867020008EB
:1001500067020008670200086702000867020008DB
:1001600067020008670200086702000867020008CB
:10017000670200086702000867020008000000002C
:1001800067020008670200086702000867020008AB
:10019000670200086702000867020008670200089B
:1001A00067020008670200086702000800F002F812
:1001B00000F03CF80AA090E8000C82448344AAF1C5
:1001C0000107DA4501D100F031F8AFF2090EBAE8C3
:1001D0000F0013F0010F18BFFB1A43F0010318477B
:1001E000CC100000EC100000103A24BF78C878C191
:1001F000FAD8520724BF30C830C144BF04680C602D
:10020000704700000023002400250026103A28BF74
:1002100078C1FBD8520728BF30C148BF0B60704778
:100220001FB501F033F81FBD10B510BD00F031F857
:100230001146FFF7F5FF00F0B7FF00F04FF803B4E9
:10024000FFF7F2FF03BC00F057F8000009488047B1
:1002500009480047FEE7FEE7FEE7FEE7FEE7FEE7A8
:10026000FEE7FEE7FEE7FEE704480549054A064BC0
:100270007047000011110008AD010008880000203F
:10028000880C0020880200208802002070477047F8
:100290007047754600F02CF8AE4605006946534697
:1002A00020F00700854618B020B5FFF7DDFFBDE858
:1002B00020404FF000064FF000074FF000084FF0CD
:1002C000000B21F00701AC46ACE8C009ACE8C0095E
:1002D000ACE8C009ACE8C0098D46704710B50446CB
:1002E000AFF300802046BDE81040FFF7A8BF000034
:1002F000004870472800002001491820ABBEFEE7E7
:10030000260002007047000010B586B0044600BF0A
:100310007CB900BF002000902548006840F0020032
:10032000234908600846006800F00200009000BF02
:1003300023E0012C0FD100BF002000901C48006872
:1003400040F020001A4908600846006800F02000CC
:10035000009000BF11E0022C0FD100BF00200090E0
:100360001348006840F4807011490860084600682E
:1003700000F48070009000BF00BF00BF0D4830F84F
:1003800014000190012002900390032004900A4978
:1003900051F8240001A900F015F8064A32F81410AB
:1003A000054A52F82400012200F01AF906B010BDE7
:1003B00030380240961200081800002000BFFEE707
:1003C00070470000F8B502460B46002500240020C7
:1003D0000021E6E0012606FA01F51E6806EA05049A
:1003E000AC4273D15E68022E02D05E68122E13D129
:1003F000CF0802F1200656F827004E07F70E0F2609
:10040000BE40B0434F07FF0E1E69BE403043CF08C9
:1004100002F1200646F8270010684F000326BE4070
:10042000B0431E7906F003064F00BE403043106013
:100430005E68012E08D05E68022E05D05E68112E1F
:1004400002D05E68122E13D190684F000326BE4082
:10045000B0434F00DE68BE403043906050680126D4
:100460008E40B0431E79C6F300168E403043506074
:10047000D0684F000326BE40B0434F009E68BE4088
:100480003043D0605E6806F08056B6F1805FA8D138
:1004900000BF00260096454E366846F48046434F1E
:1004A0003E603E46366806F48046009600BF00BFB8
:1004B0003F4E8F0856F827008E07370F0F26BE4095
:1004C000B0433C4EB24202D100262EE068E03A4EE4
:1004D000B24201D1012628E0384EB24201D10226B3
:1004E00023E0374EB24201D103261EE0354EB24220
:1004F00001D1042619E0344EB24201D1052614E0A0
:10050000324EB24201D106260FE0314EB24201D145
:1005100007260AE02F4EB24201D1082605E02E4EF2
:10052000B24201D1092600E00A268F073F0FBE40E4
:1005300030431F4E8F0846F82700284E3068A043EE
:100540005E6806F48036B6F5803F00D12043234E26
:100550003060361D3068A0435E6806F40036B6F59C
:10056000003F00D120431D4E361D3060361D3068DF
:10057000A0435E6806F48016B6F5801F00D12043C4
:10058000164E08363060361D3068A0435E6806F4AB
:100590000016B6F5001F00D12043104E0C36306017
:1005A000491C1029FFF416AFF8BD00004438024082
:1005B00008380140000002400004024000080240E8
:1005C000000C0240001002400014024000180240DB
:1005D000001C02400020024000240240003C014078
:1005E0000AB1816101E00B04836170470148006832
:1005F000704700002400002002480068401C0149A8
:10060000086070472400002010B50D48006840F4D1
:1006100000700B4908600846006840F4806008607C
:100620000846006840F480700860052000F060F81B
:100630000F2000F007F800F017F8002010BD0000B0
:10064000003C024070B5044600F010FA4FF47A7195
:10065000B0FBF1F5284600F083FC00222146501E35
:1006600000F007F8002070BD08B50020009000BF22
:1006700008BD2DE9F05F80460D461646002700F0C4
:1006800099FC074639462A46334601F00700C0F177
:10069000070ABAF1040F02D94FF0040A01E0C0F1D1
:1006A000070AD14600F1040ABAF1070F02D24FF04F
:1006B000000A01E0A0F1030AD4464FF0010A0AFA49
:1006C00009FAAAF1010A0AEA020A0AFA0CFA4FF038
:1006D000010B0BFA0CFBABF1010B0BEA030B4AEA23
:1006E0000B042146404600F06DFCBDE8F09F000081
:1006F00000BF00F00702064B19684FF6FF031940D0
:10070000044B0B4343EA0221014B196000BF7047C1
:100710000CED00E00000FA0538B5002400BF002011
:1007200000902348006840F0805021490860084646
:10073000006800F08050009000BF00BF012001045D
:1007400091FAA1F1B1FA81F11A4A42F82100FFF7BA
:100750004DFF044607E0FFF749FF001BB0F57A7F25
:1007600001D9032038BD1448406800F48030B0F54A
:10077000803FF0D10120410491FAA1F1B1FA81F159
:100780000C4A42F82100FFF731FF044607E0FFF76B
:100790002DFF001BB0F57A7F01D90320E2E7064860
:1007A000406800F40030B0F5003FF0D10020D9E7F8
:1007B0004038024000000E420070004070B5044610
:1007C0000E460025A748006800F00F00B0426FD227
:1007D000A4490E700846006800F00F00B04201D036
:1007E000012070BD207800F00200022807D19E4849
:1007F000006820F0F000A16808439B490860207859
:1008000000F0010000283ED06068012807D196481A
:1008100008380068C0F34040B8B90120E1E76068DB
:10082000022802D06068032807D18F480838006882
:10083000C0F3406048B90120D3E78B48083800680E
:10084000C0F3400008B90120CBE78748006820F0DA
:1008500003006168084384490860FFF7C7FE054646
:100860006068012810D108E0FFF7C0FE401B41F28C
:100870008831884201D90320B3E77B48006800F043
:100880000C000428F0D1CDE06068022811D108E006
:10089000FFF7ACFE401B41F28831884201D90320AA
:1008A0009FE77148006800F00C000828F0D1B9E01B
:1008B00024E06068032810D108E0FFF797FE401B92
:1008C00041F28831884201D903208AE766480068EE
:1008D00000F00C000328F0D1A4E008E0FFF786FE4A
:1008E000401B41F28831884201D9032079E75E48F4
:1008F000006800F00C000028F0D193E0207800F0B0
:100900000200022807D15848006820F0F000A168D2
:10091000084355490860207800F00100002877D08E
:100920006068012807D1504808380068C0F340408B
:10093000B8B9012055E76068022802D06068032832
:1009400007D1494808380068C0F3406048B9012021
:1009500047E7454808380068C0F3400008B901205F
:100960003FE74148006820F00300616808433E49C2
:100970000860FFF73BFE05466068012810D108E0DB
:10098000FFF734FE401B41F28831884201D9032031
:1009900027E73548006800F00C000428F0D137E064
:1009A0006068022810D108E0FFF720FE401B41F2EA
:1009B0008831884201D9032013E72B48006800F0F2
:1009C0000C000828F0D123E06068032810D108E06B
:1009D000FFF70CFE401B41F28831884201D9032009
:1009E000FFE62148006800F00C000328F0D10FE07A
:1009F00008E0FFF7FBFD401B41F28831884201D936
:100A00000320EEE61848006800F00C000028F0D142
:100A100014490E700846006800F00F00B04201D083
:100A20000120DEE6207800F00400042807D10E48FB
:100A3000006820F4E050E16808430B490860207822
:100A400000F00800082808D10748006820F460403A
:100A5000216940EAC100044908600F20FFF7F2FD58
:100A60000020BEE6003C02400838024010B500F00D
:100A700019F80949096801F0F001F02292FAA2F28E
:100A8000B2FA82F2D140054A515CC840044908607C
:100A90000846006810BD0000083802409C1200089B
:100AA0000000002070B50021002200230020274C08
:100AB000246804F00C0424B1042C04D0082C41D187
:100AC00003E0234840E023483EE0204C241F2468F4
:100AD00004F03F011D4C241F246804F4800484B1F9
:100AE0001C4CB4FBF1F5194C241F246847F6C07662
:100AF000344096FAA6F6B6FA86F6F44005FB04F200
:100B00000FE0134CB4FBF1F5104C241F246847F69A
:100B1000C076344096FAA6F6B6FA86F6F44005FB9F
:100B200004F20A4C241F246804F440344FF4403586
:100B300095FAA5F5B5FA85F5EC40641C6300B2FBA7
:100B4000F3F001E0024800BF00BF70BD083802406A
:100B50000024F40040787D0138B504460025207853
:100B600000F00100002866D0F748006800F00C0093
:100B700004280DD0F448006800F00C00082813D1B8
:100B8000F148001F006800F48000B0F5800F0BD121
:100B9000ED4808380068C0F3404000284BD060683A
:100BA000002848D1012038BD0020E749891F08707E
:100BB000FFF71CFD054608E0FFF718FD401B41F25A
:100BC0008831884201D90320EDE7DF480838006802
:100BD000C0F340400028EFD12079DB49891F08701D
:100BE0006068A0B1FFF702FD054608E0FFF7FEFCD4
:100BF000401B41F28831884201D90320D3E7D24813
:100C000008380068C0F340400028EFD013E0FFF739
:100C1000EDFC054608E0FFF7E9FC401B41F2883196
:100C2000884201D90320BEE7C74808380068C0F3EE
:100C300040400028EFD1207800F00200022869D15E
:100C4000C148006800F00C0058B1BF48006800F0CF
:100C50000C00082821D1BC48001F006800F4800067
:100C6000D8B9B94808380068C0F3400020B1E0683E
:100C7000012801D0012096E7B3480838006820F029
:100C8000F800F82292FAA2F2B2FA82F221699140B7
:100C90000843AD49083908603CE0E06828B301200A
:100CA000AA490860FFF7A2FC054606E0FFF79EFC94
:100CB000401B642801D9032075E7A3480838006861
:100CC000C0F340000028F1D09F480838006820F0A9
:100CD000F800F82292FAA2F2B2FA82F22169914067
:100CE000084399490839086014E0002097490860D2
:100CF000FFF77CFC054606E0FFF778FC401B642804
:100D000001D903204FE7904808380068C0F340003D
:100D10000028F1D1207800F0080008282CD1606963
:100D2000A8B101208A490860FFF760FC054606E08B
:100D3000FFF75CFC401B642801D9032033E782489D
:100D40006C300068C0F340000028F1D014E00020AF
:100D50007F490860FFF74AFC054606E0FFF746FCBE
:100D6000401B642801D903201DE777486C300068D8
:100D7000C0F340000028F1D1207800F004000428DE
:100D80006FD100BF002000906F483830006840F0FD
:100D900080506D49383108600846006800F0805086
:100DA000009000BF00BF6B48006840F48070694944
:100DB0000860FFF71BFC054606E0FFF717FC401B29
:100DC000642801D90320EEE66248006800F48070D0
:100DD0000028F2D000205C4968310870FFF706FC5B
:100DE000054608E0FFF702FC401B41F288318842CB
:100DF00001D90320D7E6544868300068C0F34000AA
:100E00000028EFD1207A504968310870A068A0B15D
:100E1000FFF7ECFB054608E0FFF7E8FB401B41F25B
:100E20008831884201D90320BDE647486830006810
:100E3000C0F340000028EFD013E0FFF7D7FB0546D2
:100E400008E0FFF7D3FB401B41F28831884201D90B
:100E50000320A8E63C4868300068C0F34000002842
:100E6000EFD1A069F0B33848006800F00C00082802
:100E700072D0A069022850D1002034490866FFF7DB
:100E8000B5FB054606E0FFF7B1FB401B642801D91E
:100E9000032088E62C4808380068C0F3406000282A
:100EA000F1D1D4E90701084347F6C07292FAA2F2E1
:100EB000B2FA82F2616A914008430122A16AC2EB50
:100EC00051014FF4403292FAA2F2B2FA82F291400A
:100ED00008434FF0706292FAA2F2B2FA82F2E16A2B
:100EE000914000E03AE008431749091F08600120DB
:100EF00016490866FFF77AFB054606E0FFF776FB22
:100F0000401B642801D903204DE60F4808380068CB
:100F1000C0F340600028F1D020E000200B490866B3
:100F2000FFF764FB054606E0FFF760FB401B642803
:100F300001D9032037E6044808380068C0F3406050
:100F40000028F1D10AE007E00838024000004742DB
:100F5000800E474200700040012024E6002022E677
:100F600070B504462546681EB0F1807F01D301208C
:100F70000FE0681E4FF0E02148610F214FF0FF3075
:100F800000F020F800204FF0E02188610720086180
:100F9000002070BD00BFFEE710B50020FFF7B4F9D8
:100FA0000120FFF7B1F90220FFF7AEF910BD00BF35
:100FB000FEE7704702480068C0F302207047000057
:100FC0000CED00E010B5002807DA0A07140E054AF8
:100FD00000F00F031B1FD45403E00A07130E024A4C
:100FE000135410BD18ED00E000E400E070477047B6
:100FF00010B5FFF701FB10BD30B50446002504E035
:101000004FF47A7000F004F86D1CA542F8D330BD9F
:1010100070B5034600224FF0E02675690D4E366824
:1010200003FB06F44FF0E026B16910E04FF0E02634
:10103000B06988420BD0884202D20E1A324402E0D4
:101040002E1A0E4432440146A24200D300E0EDE7DE
:1010500000BF70BD140000202DE9F04192B005469C
:10106000884616461F46002400BF002000902648F0
:10107000006840F08050244908600846006800F08D
:101080008050009000BF00BF00BF002000901F48AC
:10109000006840F440401D4908600846006800F4BC
:1010A0004040009000BF00BF012006900790022042
:1010B0000C9041050D91CDF838800F951096119741
:1010C00006A8FFF749FD04460CB100BFFEE7FFF795
:1010D00023FB04460CB100BFFEE70F200190022065
:1010E0000290002003904FF4A05004904FF48050E1
:1010F0000590052101A8FFF761FB04460CB100BF74
:10110000FEE712B0BDE8F0814038024000700040B8
:101110001448006840F470001249086012480068E2
:1011200040F001001049086000200F4908310860B4
:101130000D4800680D4908400B4908600C48091D1E
:101140000860081F006820F48020091F0860002044
:1011500005490C3108604FF0006002498039086091
:101160007047000088ED00E000380240FFFFF6FE07
:101170001030002400BFFEE730B50446002504E02F
:101180004FF47A7000F004F86D1CA542F8D330BD1E
:1011900005E02B2100BF0A1EA1F10101FBD1021EB7
:1011A000A0F10100F5D17047FFF72EFA08230222C3
:1011B00019214FF4B470FFF74FFFFFF7EDFE5AE02F
:1011C00000202D49086001202C49C1F89C022C49BF
:1011D00008604FF4FA70FFF7CFFF0020264908603F
:1011E0002849086001202849C1F88C024FF4FA70A0
:1011F000FFF7C2FF00202049086001202149086054
:1012000000202149C1F88C024FF4FA70FFF7B4FFB7
:1012100001201949086000201A49086001201A4974
:10122000C1F88C024FF4FA70FFF7A6FF01201249B3
:1012300008600020134908601349C1F88C024FF47C
:10124000FA70FFF7D9FE01200B4908600D490860CC
:1012500000200D49C1F88C024FF4FA70FFF78CFFA3
:1012600000200549086007490860054908604FF4F7
:10127000FA70FFF781FFA3E7B88240420080424244
:101280008C0244429C824242000044424FF0407033
:10129000E1EE100A704700408000080000000000E6
:1012A000010203040102030406070809CC12000826
:1012B0000000002028000000E8010008F4120008E7
:1012C00028000020600C0000040200080024F40044
:1012D00000000000000000000102030406070809E6
:1012E0000000000000040240001402400020024000
:0412F00000000000FA
:04000005080001AD41
:00000001FF
