:020000040800F2
:1000000068080020A901000897150008731400086B
:100010009515000813050008B3180008000000003B
:100020000000000000000000000000009B15000818
:100030001505000800000000991500089D1500082E
:10004000C3010008C3010008C3010008C301000880
:10005000C3010008C3010008C3010008C301000870
:10006000C3010008C3010008C3010008C301000860
:10007000C3010008C3010008C3010008C301000850
:10008000C3010008C3010008C3010008000000000C
:10009000000000000000000000000000C301000894
:1000A000C3010008C3010008C3010008C301000820
:1000B000C3010008C301000845160008C301000879
:1000C000C3010008C3010008C3010008C301000800
:1000D000C3010008C3010008C301000800000000BC
:1000E000C3010008C3010008C301000800000000AC
:1000F000000000000000000000000000C301000834
:1001000000000000C3010008C3010008C30100088B
:1001100000000000000000000000000000000000DF
:10012000C3010008C3010008C3010008C30100089F
:10013000C3010008000000000000000000000000F3
:10014000000000000000000000000000C3010008E3
:10015000C3010008C3010008C3010008C30100086F
:10016000C3010008C30100080000000000000000F7
:10017000000000000000000000000000000000007F
:1001800000000000C30100080000000000000000A3
:10019000C3010008DFF80CD000F07AF900480047EE
:1001A000F518000868080020064880470648004700
:1001B000FEE7FEE7FEE7FEE7FEE7FEE7FEE7FEE717
:1001C000FEE7FEE735160008950100082DE9F05F0F
:1001D0000546002092469B468846064681464024B6
:1001E0001BE0284641464746224600F0E3F85346C6
:1001F0005A46C01A914110D311461846224600F0C3
:10020000CAF82D1A67EB01084F462246012000214B
:1002100000F0C1F817EB00094E41201EA4F10104C3
:10022000DFDC484631462A464346BDE8F09FD2B25D
:1002300001E000F8012B491EFBD270470022F6E7CF
:1002400010B513460A4604461946FFF7F0FF20464C
:1002500010BD2DE9FE4F81EA030404F0004421F0B3
:10026000004100944FF0000B23F0004350EA0104DA
:100270005ED052EA03045BD0C3F30A54C1F30A55BB
:100280002C44A4F2F3340194A0FB0254C1F31301F3
:1002900041F48011C3F3130343F4801301FB0244C0
:1002A00000FB034E840A970A44EA815447EA8357C5
:1002B000A4FB076802958D0A05FB07854FEA932C7E
:1002C00004FB0C542705029D4FEA065847EA1637EF
:1002D000B5EB08056EEB070C870E920E47EA811707
:1002E00042EA8312A7FB0201B6EB0B0164EB0004A8
:1002F0002B0D43EA0C335E1844EB1C50DA46514692
:10030000E7FB0201C5F313044FEA0B3343EA14532E
:100310004FEA0432019C43EA0603A4F10C04029460
:10032000009CCDE900B400F064F803B0BDE8F08FA4
:1003300000200146F9E70EB5C10F80EAE0700844DD
:10034000CA07002140F233438DE80E000A460B46EF
:1003500000F04FF803B000BD70B5C1F30A5201F0D0
:1003600000450024C1F3130140F2FF3341F4801132
:100370009A4201DA002070BD40F233439A42A2F261
:10038000334203DC524200F015F800E090402C4369
:10039000F1D0404270BD202A04DB203A00FA02F17D
:1003A000002070479140C2F1200320FA03F3194363
:1003B00090407047202A04DB203A21FA02F0002105
:1003C000704721FA02F3D040C2F120029140084365
:1003D0001946704710B5141E73F1000408DA401C6A
:1003E00041F1000192185B411A4301D120F0010054
:1003F00010BD2DE9F04D92469B4611B1B1FA81F244
:1004000002E0B0FA80F220329046FFF7C4FF0446C3
:100410000F4640EA0A0041EA0B0153465A46084398
:1004200013D0114653EA010019D0C8F140025046DA
:10043000FFF7C0FF05460E46504659464246FFF7B5
:10044000AAFF084305D0012004E020463946BDE854
:10045000F08D0020054346EAE0762C4337430A98A6
:100460006305E40AA0EB08000022FD0A44EA4754B1
:100470000A3002D500200146E9E70105101969415B
:10048000DDE9084500196941BDE8F04DA2E700002B
:10049000064C074D06E0E06840F0010394E80700D1
:1004A00098471034AC42F6D3FFF778FE481900089D
:1004B0006819000870B58D1810F8014B14F003028C
:1004C00001D110F8012B231106D110F8013B03E0F4
:1004D00010F8016B01F8016B521EF9D1ABB110F8A5
:1004E000012B04F00C048A1A0C2C03D0A2EB84120A
:1004F0009B1C08E010F8014BA2EB0422F8E712F86D
:10050000014B01F8014B5B1EF9D5A942D4D3002061
:1005100070BDFEE7704772B6FEE700002DE9F84FA8
:10052000DFF8B8A10022012403254FF00F090AF1DA
:10053000040BAAF1040E00BF0B6804FA02F6334064
:10054000B34273D10F7907F00307012F01D0022FB7
:1005500016D187684FEA420805FA08FC27EA0C071B
:10056000D1F80CC00CFA08FC4CEA070CC0F808C023
:100570004768B7430E79C6F3001696403E4346607F
:100580000E79F643B6070DD0C768560005FA06FC8B
:1005900027EA0C07D1F808C00CFA06FC4CEA070C55
:1005A000C0F80CC00E7906F00306022E10D1D60852
:1005B00000EB8608D8F8206057074FEAD76C09FA95
:1005C0000CF7BE430F6907FA0CF73743C8F82070E1
:1005D00006684FEA420C05FA0CF7BE430F7907F0A4
:1005E000030707FA0CF7374307604E6816F4403FDD
:1005F0006DD03B4E376847F480473760366822F04D
:10060000030706F480460096364E07EB060CDCF82E
:10061000086897073F0F09FA07F826EA0806DFF887
:10062000C880404503D14FF000081EE04FE0DFF8DE
:10063000BC80404502D14FF0010816E0DFF8B080E1
:10064000404502D14FF002080FE0DFF8A880404596
:1006500002D14FF0030808E0DFF89C80404502D14A
:100660004FF0040801E04FF0070808FA07F848EADD
:100670000608CCF80888DAF800605746D1F804C0BC
:100680009E435FEACC2C00D51E433E60DBF8006041
:100690005F46D1F804C09E435FEA8C2C00D51E4310
:1006A0003E60DEF800607746D1F804C09E435FEA02
:1006B0008C3C00D51E433E60084F083F3E68D1F891
:1006C00004C09E435FEACC3C00D51E433E60521CF2
:1006D000102AFFF431AFBDE8F88F0000083C01405C
:1006E0004438024000300140000002400004024053
:1006F00000080240000C02400010024001488068DF
:1007000070470000C8030020024881680278114445
:1007100081607047C80300200B4810B5016841F4A0
:1007200000710160016841F480610160016841F479
:1007300080710160032000F06FF80F2000F006F8D0
:1007400000F024F8002010BD003C024070B50D4DB3
:1007500004464FF47A712878B1FBF0F00A49096831
:10076000B1FBF0F000F0ECFA48B9102C07D20022EF
:100770002146501E00F030F800206C6070BD012052
:1007800070BD0000C8030020D40300200A4808B54B
:10079000016841F480410160006800F480400090ED
:1007A0000548001F016841F080510160006800F0B9
:1007B0008050009008BD000044380240002809DB4A
:1007C00000F01F02012191404009800000F1E0206B
:1007D000C0F8001170470000F0B40E4B1B680C46C7
:1007E000C3F30223C3F10705042D00D90425191D05
:1007F000072901D2002300E0DB1E012606FA05F1DD
:10080000491E214099409E40761E16403143F0BC5F
:1008100001F050B80CED00E0064900F0070208684E
:100820004FF6FF03184040EA0220034A10430860D5
:10083000704700000CED00E00000FA052DE9F047DC
:100840000E46050065D0DFF81481D8F80000F7B235
:1008500000F00700B04207D288F80070D8F8000016
:1008600000F00700B04254D128683D4C810712D5F2
:10087000400703D5206840F4E05020602878000746
:1008800003D5206840F4604020602068A96820F00B
:10089000F000084320602878C0072DD030496868F0
:1008A0000839012812D0022813D0032811D0096872
:1008B000890700292DDA216821F003010143216015
:1008C000FFF71CFF814641F2883A0EE00968890370
:1008D000EFE709688901ECE7FFF710FFA0EB0901DA
:1008E000514502D90320BDE8F0872068696800F00F
:1008F0000C00B0EB810FEFD1D8F80010404601F0AA
:100900000701B14207D90770006800F00700B04244
:1009100001D00120E7E72878400705D52068E9687D
:1009200020F4E050084320602878000706D52068AE
:10093000296920F4604040EAC100206000F018F806
:100940002168084AC1F30311515CC8400649086098
:1009500006480068FFF7FAFE0020C4E7003C0240AA
:100960000838024038190008D4030020CC030020C6
:10097000154810B5006810F00C02144813D0144943
:10098000042A0FD0082A0ED10F4C241F2268236896
:1009900002F03F025B0207D52068C0F38810A0FB7D
:1009A000010106E0084610BD2168C1F38811A1FBD2
:1009B00000010023FFF70AFC2168C1F30141491C33
:1009C0004900B0FBF1F010BD083802400024F400EB
:1009D00040787D012DE9F84F04006ED02078DFF8D3
:1009E0004C93C007A9F104054AD009F1040001683D
:1009F000C1F38101012908D00068C0F381000228F9
:100A00000AD1D9F80000400206D52868800337D5FE
:100A100060680028E1D033E06068B0F5803F10D016
:100A2000B0F5A02F286810D020F480302860286806
:100A300020F4802028606068A8B1FFF75FFE0646BA
:100A40000DE0286840F48030F4E740F4802028600E
:100A5000F7E700BFFFF752FE801B642873D82868B1
:100A60008003F7D50CE0FFF749FE064605E000BF1E
:100A7000FFF744FE801B6428F0D828688003F7D471
:100A80002078DFF8AC8280074FF0000A3ED5A748F7
:100A9000001D016811F00C0F08D00068C0F3810040
:100AA00002280BD1D9F80000400207D4286880073B
:100AB00016D5E068012800D112E033E1E068B8B152
:100AC0000120C8F80000FFF719FE064605E000BF48
:100AD000FFF714FE801B0228C0D828688007F7D5CE
:100AE0002868216920F0F80040EAC10028600DE084
:100AF000C8F800A0FFF702FE064604E0FFF7FEFD7F
:100B0000801B02281FD828688007F7D420780007A8
:100B100022D5864F87486169703771B10121016024
:100B2000FFF7ECFD064604E0FFF7E8FD801B022816
:100B300009D838688007F7D50EE0C0F800A0FFF7A5
:100B4000DDFD064605E082E0FFF7D8FD801B0228A8
:100B50007DD838688007F7D42078400768D5DFF85B
:100B6000CCB100270BF13C0BDBF80000C0000BD42C
:100B7000DBF8001041F08051CBF80010DBF80000EA
:100B8000012700F0805000906B4E3068C00510D4F3
:100B9000306840F480703060FFF7B0FD009005E0F1
:100BA000FFF7ACFD0099401A022850D83068C00504
:100BB000F6D55E4EA0686C3601280FD00528306847
:100BC00010D020F001003060306820F00400306068
:100BD000A068B8B1FFF792FD00900FE0306840F0D8
:100BE0000100F4E740F004003060F7E7FFF786FD0E
:100BF0000099411A41F28830814266D830688007F6
:100C0000F4D50EE0FFF77AFD009007E0FFF776FDE0
:100C10000099411A41F28830814256D830688007E5
:100C2000F4D42FB1DBF8001021F08051CBF8001084
:100C3000A069C8B33D49091D0968C1F381010229B2
:100C40004AD00228504607D0C8F8600000E03CE0D7
:100C5000FFF754FD04463BE04746C8F86000FFF745
:100C60004DFD064605E000BFFFF748FD801B02284A
:100C70002BD828688001F7D4D4E907010843A16A7A
:100C80002E4A490802EB0141626A41EA8211084397
:100C900094F82C1040EA0161C9F800100120386670
:100CA000FFF72CFD044606E03EE000BFFFF726FDFF
:100CB000001B022809D828688001F7D534E000BF5E
:100CC000FFF71CFD001B022802D90320BDE8F88FA6
:100CD00028688001F4D427E00128F7D0D9F8000073
:100CE000E26900F4800191421CD1226A00F03F01C8
:100CF000914217D147F6C071626A0140B1EB821F81
:100D000010D1A26A4FF0FF3300F4403103EB5202DE
:100D1000B1EB024F06D194F82C1000F07060B0EBEC
:100D2000016F01D00120D1E70020CFE70438024055
:100D300000004742800E4742007000400000FFFF65
:100D400010B5401EB0F1807F01D3012010BD4FF0DF
:100D5000E02460610F21601700F0ACFD0020A0616D
:100D600007202061002010BD7047704770B590F8D3
:100D70003C20012A2CD0012480F83C40022280F83B
:100D80003D2003685A689D6822F070060A68324365
:100D90005A60104B02689A420ED0B2F1804F0BD0CD
:100DA0000D4B9A4208D00D4B9A4205D00C4B9A42FB
:100DB00002D00C4B9A4204D1496825F080031943B4
:100DC000916080F83D40002180F83C10084670BDDD
:100DD000022070BD000001400004004000080040F7
:100DE000000C00400040014010B5040003D094F80E
:100DF0003D0010B107E0012010BD002084F83C0048
:100E0000204600F01FF8022084F83D00211D2068D4
:100E100000F01EFC012084F8460084F83E0084F8AF
:100E20003F0084F8400084F8410084F8420084F8D0
:100E3000430084F8440084F8450084F83D00002015
:100E400010BD000008B500680B49884212D10B485C
:100E5000016841F0040101600068002200F0040014
:100E6000009011461E20FFF7B7FCBDE808401E2089
:100E7000FFF7A4BC08BD0000000800404038024055
:100E800090F83D10012901D001207047022180F81F
:100E90003D100168CA6842F00102CA6000680E494C
:100EA00088420ED0B0F1804F0BD00C49884208D058
:100EB0000B49884205D00B49884202D00A49884232
:100EC00004D1816801F00701062903D0016841F0CF
:100ED0000101016000207047000001400004004053
:100EE00000080040000C00400040014070B504467E
:100EF00090F83C000025012817D0012684F83C60BA
:100F0000022084F83D002068826822F0770222F4F3
:100F10007F4282600868502838D00DDC20284FD0EE
:100F200005DC90B3102811D14AE0022070BD3028B2
:100F300046D040280AD13BE060282FD070280DD041
:100F4000B0F5805F03D0B0F5005F12D0012584F8C2
:100F50003D60002084F83C00284670BDCB68D1E994
:100F60000121206800F0CDFB2068816841F0770105
:100F700009E0CB68D1E90121206800F0C2FB2068BC
:100F8000816841F480418160E1E719E0CA684968FD
:100F9000206800F06BFC5021206806E0CA684968B0
:100FA000206800F074FC6021206800F0B4FBCEE7FC
:100FB000CA684968206800F059FC40212068F4E7BD
:100FC000226801461046F0E7704770B50446006895
:100FD00001694FF00005C943890715D4C168C943A9
:100FE000890711D4E91E01610120207720688069FA
:100FF0008007204602D0FFF7E7FF04E000F0D4F8B6
:10100000204600F079F9257720680169C94349072E
:1010100017D4C168C943490713D46FF004010161B3
:10102000022020772068806910F4407F204602D09B
:10103000FFF7CAFF04E000F0B7F8204600F05CF9C3
:10104000257720680169C943090716D4C168C943D7
:10105000090712D46FF0080101610420207720688D
:10106000C0698007204602D0FFF7AEFF04E000F021
:101070009BF8204600F040F9257720680169C943B4
:10108000C90617D4C168C943C90613D46FF010014B
:101090000161082020772068C06910F4407F204655
:1010A00002D0FFF791FF04E000F07EF8204600F048
:1010B00023F9257720680169C943C90708D1C168A8
:1010C000C943C90704D1891E0161204600F06EF9A9
:1010D00020680169C943090609D4C168C9430906E2
:1010E00005D46FF0800101612046FFF73DFE2068C6
:1010F0000169C943490609D4C168C943490605D4F1
:101100006FF040010161204600F0B2F920680169EA
:10111000C94389060BD4C168C943890607D46FF057
:10112000200101612046BDE87040FFF71EBE70BD82
:1011300030B587B0044614216846FFF77FF816499A
:101140002068884226D115480024016841F0010139
:101150000160016801F001010591016841F002019F
:1011600001600068022500F002000590C020009098
:10117000CDE9015469460A48CDE90345FFF7CEF9A8
:1011800001200090CDE9015469460648CDE90345A8
:10119000FFF7C4F907B030BD00040040303802400A
:1011A0000000024000040240704770B5044690F809
:1011B0003C0000260D4601280FD0012084F83C0099
:1011C0006AB1042A1DD0082A2FD00C2A3FD001264C
:1011D000002084F83C00304670BD022070BD2068BD
:1011E00000F0A2FA2068816941F00801816120685D
:1011F000816921F004018161206881692A691143B4
:1012000011E0206800F0B8FA2068816941F40061BB
:1012100081612068816921F4806181612068816930
:101220002A6941EA02218161D2E7206800F0D0FA00
:101230002068C16941F00801C1612068C16921F0DD
:101240000401C1612068C1692A69114311E0206865
:1012500000F0EAFA2068C16941F40061C1612068C8
:10126000C16921F48061C1612068C1692A6941EACC
:101270000221C161ACE710B5040003D094F83D0031
:1012800010B107E0012010BD002084F83C0020468A
:1012900000F01EF8022084F83D00211D206800F0B7
:1012A000D7F9012084F8460084F83E0084F83F0016
:1012B00084F8400084F8410084F8420084F8430038
:1012C00084F8440084F8450084F83D00002010BDF7
:1012D00008B500680649884208D10648016841F00F
:1012E00002010160006800F00200009008BD0000EB
:1012F00000040040403802407047000010B504462A
:10130000022249B104290ED0082913D094F84100D3
:10131000012816D0012010BD94F83E000128F9D113
:1013200084F83E200FE094F83F000128F2D184F8C1
:101330003F2008E094F840000128EBD184F84020D9
:1013400001E084F841200122206800F0CDF9124923
:101350002068884203D1426C42F400424264206813
:1013600088420ED0B0F1804F0BD00C49884208D093
:101370000B49884205D00B49884202D00A4988426D
:1013800004D1816801F00701062903D0016841F00A
:1013900001010160002010BD000001400004004078
:1013A00000080040000C0040004001402DE9F041E1
:1013B0002B492DED028B0068096888424BD1294CDE
:1013C0002088401C83B223806088401C82B26280E7
:1013D000A088401C81B20020A180F02B00D1208089
:1013E000F02A00D16080F02900D1A0801D4D208816
:1013F000083555F82000FEF79EFF9FED1B8B53EC40
:10140000182BFEF726FFFEF7A7FF4FF4167606FA15
:1014100080F0134F483F39684863608855F82000D2
:10142000FEF789FF53EC182BFEF713FFFEF794FF2E
:1014300006FA80F039688863A08855F82000FEF726
:101440007AFF53EC182BFEF704FFFEF785FF06FA30
:1014500080F03968C863BDEC028BBDE8F081000004
:1014600020040020000000209A9999999999E93F59
:101470007047FEE7094808B5016841F001010160C5
:10148000016801F001010091016841F00201016071
:10149000006800F00200009008BD000030380240F3
:1014A00010B58AB0002407941C2168460894FEF702
:1014B000C5FE1E481C49C0E9001441F26701C0E99D
:1014C0000241802104618161FFF7D5FE08B1FFF779
:1014D00022F8079407A915480894FFF747FC08B1BC
:1014E000FFF719F86020CDE9000402940022694654
:1014F0000E480494FFF759FE08B1FFF70CF80422D8
:1015000069460A48FFF751FE08B1FFF704F80822C0
:1015100069460648FFF749FE08B1FEF7FCFF03489D
:10152000FFF706FE0AB010BD00040040D8030020FB
:1015300010B586B0002416480094019402940394D8
:10154000049412490594C0E9001440F6AB51C0E977
:10155000024104618461FFF747FC08B1FEF7DBFF3D
:101560004FF48050009069460948FFF7BFFC08B16E
:10157000FEF7D1FF049404A905480594FFF7F6FB94
:10158000002801D0FEF7C7FF06B010BD00080040DC
:1015900020040020FEE7FEE770477047FFF7B4B86D
:1015A00030B593B030216846FEF748FE14210CA8F0
:1015B000FEF744FE1D480024016841F0805101609F
:1015C000006800F0805011901948016821F44041F2
:1015D00041F4004101600068022500F44040119090
:1015E0000120039010200490009506950820CDE975
:1015F00007405420CDE9090504200B906846FFF709
:10160000E9F908B172B6FEE70F20CDE90C054FF4F9
:101610008050CDE90E4002210CA81094FFF70EF97E
:10162000002801D072B6FEE713B030BD403802404A
:10163000007000400248016841F470010160704789
:1016400088ED00E00148FFF7C0BC00002004002046
:10165000F0B502681D4B1E4C9F031E4D1E4E984256
:1016600007D0B84205D0A04203D0A84201D0B04272
:1016700004D122F0700C4A6842EA0C02984210D061
:10168000B8420ED0A0420CD0A8420AD0B04208D036
:10169000124CA04205D0124CA04202D0114CA042E4
:1016A00003D122F44074CA6822434C6922F08002BC
:1016B000224302608A68C2620A688262984201D14B
:1016C0000969016301214161F0BD00000000014092
:1016D0000004004000080040000C004000400140B1
:1016E000004401400048014010B501F01F030121F2
:1016F000046A99408C430462016A9A401143016272
:1017000010BD10B5846842EA032224F47F440A43E2
:101710002243826010BD826822F070020A4342F0C8
:10172000070181607047000030B5026A22F00102B3
:101730000262026A4368846924F073050C682C43D2
:1017400022F002058A682A430A4DA8420BD122F0F2
:101750000805CA6823F440732A434D6922F0040245
:101760001D438B692B434360846149684163026276
:1017700030BD00000000014030B5026A22F01002C6
:101780000262026A436884690D6824F4E64444EA0C
:1017900005248D6822F0200242EA05120B4DA84272
:1017A0000ED1CD6822F0800242EA05124D6923F481
:1017B000406343EA85038D6922F0400243EA8503D2
:1017C0004360846149688163026230BD000001406A
:1017D00030B5026A22F480720262036A4268C46908
:1017E00023F4007324F073050C682C438D6843EADE
:1017F00005230C4DA8420ED1CD6823F4006343EAC3
:1018000005234D6922F4405242EA05128D6923F402
:10181000806342EA05124260C4614968C1630362A1
:1018200030BD00000000014030B5026A22F4805251
:101830000262046A4268C3690D6823F4E64343EA1E
:1018400005238D6824F4005444EA0534064DA8426B
:1018500004D14D6922F4804242EA85124260C3619C
:1018600049680164046230BD0000014010B5036A9C
:10187000046A24F001040462846924F0F00444EA58
:10188000021423F00A020A438461026210BD10B5FB
:10189000036A23F0100303628369046A23F470432C
:1018A00043EA023224F0A00343EA0111826101629B
:1018B00010BDFEE70907090E002804DB00F1E02057
:1018C00080F80014704700F00F0000F1E02080F86D
:1018D000141D704702E008C8121F08C1002AFAD17F
:1018E00070477047002001E001C1121F002AFBD1A0
:1018F00070470000FEF710FFFFF752FEFFF7BAFD3A
:10190000FFF7CEFDFFF714FE00210948FFF7F6FCB4
:1019100004210748FFF7F2FC08210548FFF7EEFC19
:101920000448FFF7ADFA0348FFF740FDFEE700006B
:10193000D803002020040020000000000000000068
:1019400001020304060708096819000800000020C6
:10195000D8030000B40400089C1B0008D803002032
:1019600090040000E4180008400700003C007800E4
:1019700001120F04121F04122F04123E04124E040F
:10198000125D04126D04127C04128C04129B04126A
:10199000AA0412B90412C80412D70412E50412F4FE
:1019A000401006020100001004121E04122B041243
:1019B0003904124604125304126004126D041279A1
:1019C00004128504129104129D0412A80412B30497
:1019D00012BD0412C80412D20412DC0412E504126F
:1019E000EE0412F70412FF58130702A01104121696
:1019F00004121D04122404122A04123004123504A5
:101A0000123A04123F04124304124704124A041209
:101A10004D04125004125204125404125604525728
:101A20000492580C525620525230524D4052475058
:101A3000523F60523570522A80521D90219821A049
:101A400052FFB052EEC052DCD052C8E052B3F05652
:101A50009D00568510566D205653302538562C481B
:101A60002550255856F46856D77856B988569B980D
:101A7000567CA8565DB8563EC8561FD825E01006BD
:101A8000F1FFFFFFE10412D10412C20412B20412EA
:101A9000A3041293041284041274041265041256EF
:101AA00004124704123804122904121B04120C3CBD
:101AB0001006FEFEFFFFF00412E20412D50412C766
:101AC0000412BA0412AD0412A00412930412870483
:101AD000127B04126F04126304125804124D041294
:101AE0004304123804122E04122404121B0412128E
:101AF000041209041201581006F9FDFFFFF1041247
:101B0000EA0412E30412DC0412D60412D00412CB4D
:101B10000412C60412C10412BD0412B90412B604A0
:101B200012B30412B00412AE0412AC0412AA04528E
:101B3000A90492A80C52AA2052AE3052B34052B916
:101B40005052C16052CB7052D68052E390219821FE
:101B5000A05201B05212C05224D05238E0524DF07F
:101B6000566300567B1056932056AD3056C74056EC
:101B7000E2502558560C685629785647885665987D
:101B80005684A856A3B856C2C825D025D819275FB1
:0C1B90000010C8030005000024F4000051
:040000050800019559
:00000001FF
