:040ABB0000DFFD2239
:100A1E007E017D09000000000000000000000000C3
:0E0A2E000000000000000000DDEADEE6DFE26E
:010A3C002297
:1009FD00202041443938353420544553542120208A
:100A0D00004672653A202020202020202020487AA0
:010A1D0000D8
:10074000120A9D7F06120A7D7BFF7A0979FD7D01E1
:100750007F0112093C7BFF7A0A790E7D017F02122C
:10076000093C1209AC900000120289000F42407F40
:10077000FF7EE07DF57C05900000E0F8A3E0F9A3A2
:10078000E0FAA3E0FBD3120245400A9000001202F7
:100790008905F5E0FF900000E0FCA3E0FDA3E0FE8A
:1007A000A3E0FF90000612027D7D067F021202BACE
:1007B000900000E0FCA3E0FDA3E0FEA3E0FF9000BA
:0D07C00008740FF0A374FFF012085980FEBA
:0F0A9D0075FFDE75FFAD120A6D120A3D02097E6C
:100A6D0075A4FF75A5FF75A6FF75B50C75E340223E
:100A3D0075B167E4FFFE0FBF00010EE4B507F7EED9
:0B0A4D00B401F3E5B130E7FB75B2889F
:010A5800227B
:0E0AAC00440025000E510A44001B4965109FAE
:100A5900E5A054C0FEEF543F4EF590AF058FA0C2FC
:040A690086D2862289
:1009AC00D286D287C285D284C284E4FD7F1D120A0E
:1009BC00597D0A7F1E120A59E4FD7F1F120A597DC8
:0B09CC00607F20120A59D285C28522EC
:0605210090000B12027DA8
:10052700900025E0FCA3E0FDA3E0FEA3E0FF900020
:100537001312027D90000BA3A3A3E0900017F09085
:10054700000BE0FCA3E0FDA3E0FEA3E0FF780812A8
:100557000269900018EFF090000BE0FCA3E0FDA308
:10056700E0FEA3E0FF7810120269900019EFF09007
:10057700000BE0FCA3E0FDA3E0FEA3E0FF78181268
:10058700026990001AEFF0900017E0FFE4FCFDFE0F
:10059700900013E0F8A3E0F9A3E0FAA3E0FB12014F
:1005A7002890000F12027D90000FA3A3A3E09000F4
:1005B7001FF090000FE0FCA3E0FDA3E0FEA3E0FF27
:1005C700780812025690000F12027D90000FE0F893
:1005D700A3E0F9A3E0FAA3E0FBC000C001C002C09A
:1005E70003900018E0FFE4FCFDFE900013E0F8A381
:1005F700E0F9A3E0FAA3E0FB120128D003D002D070
:1006070001D000EB2FFFEA3EFEE93DFDE83CFC9000
:10061700000F12027D90000FA3A3A3E0900020F02B
:1006270090000FE0FCA3E0FDA3E0FEA3E0FF780845
:1006370012025690000F12027D90000FE0F8A3E01F
:10064700F9A3E0FAA3E0FBC000C001C002C0039019
:100657000019E0FFE4FCFDFE900013E0F8A3E0F9C9
:10066700A3E0FAA3E0FB120128D003D002D001D007
:1006770000EB2FFFEA3EFEE93DFDE83CFC90000F52
:1006870012027D90000FA3A3A3E0900021F0900039
:100697000FE0FCA3E0FDA3E0FEA3E0FF7808120251
:1006A7005690000F12027D90000FE0F8A3E0F9A327
:1006B700E0FAA3E0FBC000C001C002C00390001A2B
:1006C700E0FFE4FCFDFE900013E0F8A3E0F9A3E0EF
:1006D700FAA3E0FB120128D003D002D001D000EB2F
:1006E7002FFFEA3EFEE93DFDE83CFC90000F1202B9
:1006F7007D90000FA3A3A3E0900022F090000FE0ED
:10070700FCA3E0FDA3E0FEA3E0FF780812025690E9
:10071700000F12027D90000FA3A3A3E0900023F027
:1007270090000FE0FCA3E0FDA3E0FEA3E0FF780844
:08073700120256900024EFF0BD
:01073F002297
:1008590090000A7404F01205217C06ECD394004040
:100869001990000AE0FF04F01C741F2CF582E4348F
:1008790000F583E0FD120A5980E1900008E0FD7F50
:1008890021120A59A3E0FD7F22120A59900008E0BB
:10089900FD7F23120A59A3E0FD7F24120A59D2854C
:0208A900C28506
:0108AB00222A
:1008AC00080F120F0A1F02020F090F090F0911007E
:1008BC001F11111F11111F00110A041F041F040026
:1008CC000E001F0A0A0A1300181807080808070068
:1008DC000F0F0F0A0F12071F00000E00001F000061
:0B08EC002020202020202020202020A1
:10097E009000047405F07F28120A7D900004E014A4
:10098E00F0E0D3940050EF7F01120A7D7F06120A29
:0E099E007D7F0F120A7D7F0C120A7D0209D7A1
:100A7D00900029EFF0A3F05385FD5385FB0208F795
:100A8D00900029EFF0A3F04385025385FB0208F790
:10093C00900004EDF0A3EBF0A3EAF0A3E9F0EF9044
:10094C000004B40105E0247F8003E024BFFF120AF9
:10095C007D900005E0FBA3E0FAA3E0F91200F9FF9B
:10096C00600F120A8D900006E475F00112011280DE
:02097C00E02277
:1008F70053850F900029E054F0F0428543850800A6
:100907007F02120ABB5385F7007F02120ABB538589
:100917000F90002AE0C454F0900029F054F0F04200
:1009270085438508007F02120ABB5385F75385F775
:050937007FC8020A1E4A
:1009D7007F40120A7DE4900005F0900005E0FFC318
:1009E70094405011EF9008AC93FF120A8D900005C8
:0509F700E004F080E5C2
:0109FC0022D8
:0802BA00900004EFF0A3EDF049
:1002C200780B7C007D017BFF7A0879EC7E007F0B46
:1002D2001200D3C200900004E0B40106A3E0247F20
:1002E2008006900005E024BFFF120A7DE4FFFEFDB8
:1002F200FC900006E0F8A3E0F9A3E0FAA3E0FBC358
:10030200120245700302051B7B007AE4790B7854D4
:10031200900006E0FCA3E0FDA3E0FEA3E0FF1201D3
:10032200B3AC00AD01AE02AF037B007ACA799A7812
:100332003B1201B3EF243090000BF07B007ACA79B4
:100342009A783B900006E0FCA3E0FDA3E0FEA3E068
:10035200FF1201B3AC00AD01AE02AF037B007AE144
:1003620079F578051201B3EF243090000CF07B0090
:100372007AE179F57805900006E0FCA3E0FDA3E0C0
:10038200FEA3E0FF1201B3AC00AD01AE02AF037BEE
:10039200807A96799878001201B3EF243090000D9C
:1003A200F07B807A9679987800900006E0FCA3E0D2
:1003B200FDA3E0FEA3E0FF1201B3AC00AD01AE026B
:1003C200AF037B407A42790F78001201B3EF2430F9
:1003D20090000EF07B407A42790F7800900006E0A0
:1003E200FCA3E0FDA3E0FEA3E0FF1201B3AC00AD6D
:1003F20001AE02AF037BA07A86790178001201B3C5
:10040200EF243090000FF07BA07A8679017800907B
:100412000006E0FCA3E0FDA3E0FEA3E0FF1201B3AF
:10042200AC00AD01AE02AF03E47B107A27F9F812FB
:1004320001B3EF2430900010F0E47B107A27F9F832
:10044200900006E0FCA3E0FDA3E0FEA3E0FF1201A2
:10045200B3AC00AD01AE02AF03E47BE87A03F9F876
:100462001201B3EF2430900011F0E47BE87A03F933
:10047200F8900006E0FCA3E0FDA3E0FEA3E0FF127B
:1004820001B3AC00AD01AE02AF03E47B64FAF9F84C
:100492001201B3EF2430900012F0E47B64FAF9F811
:1004A200900006E0FCA3E0FDA3E0FEA3E0FF120142
:1004B200B3AC00AD01AE02AF03E47B0AFAF9F81265
:1004C20001B3EF2430900013F0E47B0AFAF9F890BC
:1004D2000006E0FCA3E0FDA3E0FEA3E0FF1201B3EF
:1004E200EB2430900014F0E490000AF090000AE04F
:1004F200FFC3940A5028740B2FF582E43400F5836D
:10050200E0FF64306005200002D200300003120ACE
:0E0512008D90000AE004F080D37F30120A8D35
:0105200022B8
:030000000207CD27
:0C07CD00787FE4F6D8FD75812002081446
:10000300E709F608DFFA8046E709F208DFFA803EDF
:1000130088828C83E709F0A3DFFA8032E309F608CC
:10002300DFFA8078E309F208DFFA807088828C8334
:10003300E309F0A3DFFA806489828A83E0A3F608E8
:10004300DFFA805889828A83E0A3F208DFFA804CC2
:1000530080D280FA80C680D4806980F28033801099
:1000630080A680EA809A80A880DA80E280CA803302
:1000730089828A83ECFAE493A3C8C582C8CCC5837A
:10008300CCF0A3C8C582C8CCC583CCDFE9DEE7804A
:100093000D89828A83E493A3F608DFF9ECFAA9F0C9
:1000A300EDFB2289828A83ECFAE0A3C8C582C8CC1F
:1000B300C583CCF0A3C8C582C8CCC583CCDFEADE38
:1000C300E880DB89828A83E493A3F208DFF980CC9A
:1000D30088F0EF60010E4E60C388F0ED2402B40493
:1000E3000050B9F582EB2402B4040050AF2323453A
:0600F3008223900053730C
:1000F900BB010689828A83E0225002E722BBFE0205
:09010900E32289828A83E4932237
:10011200C5F0F8A3E028F0C5F0F8E5821582700278
:060122001583E038F02215
:10012800E88FF0A4CC8BF0A42CFCE98EF0A42CFC76
:100138008AF0EDA42CFCEA8EF0A4CDA8F08BF0A4F4
:100148002DCC3825F0FDE98FF0A42CCD35F0FCEB53
:100158008EF0A4FEA9F0EB8FF0A4CFC5F02ECD3918
:0F016800FEE43CFCEAA42DCE35F0FDE43CFC2285
:1001770075F008758200EF2FFFEE33FECD33CDCC3F
:1001870033CCC58233C5829BED9AEC99E5829840C2
:100197000CF582EE9BFEED9AFDEC99FC0FD5F0D69F
:1001A700E4CEFBE4CDFAE4CCF9A88222B800C1B9C9
:1001B7000059BA002DEC8BF084CFCECDFCE5F0CB07
:1001C700F97818EF2FFFEE33FEED33FDEC33FCEB40
:1001D70033FB10D703994004EB99FB0FD8E5E4F9FB
:1001E700FA227818EF2FFFEE33FEED33FDEC33FCE8
:1001F700C933C910D7059BE99A4007EC9BFCE99ADC
:10020700F90FD8E0E4C9FAE4CCFB2275F010EF2F20
:10021700FFEE33FEED33FDCC33CCC833C810D70720
:100227009BEC9AE899400AED9BFDEC9AFCE899F85B
:0E0237000FD5F0DAE4CDFBE4CCFAE4C8F922EE
:10024500EB9FF5F0EA9E42F0E99D42F0E89C45F00F
:010255002286
:10025600E8600FECC313FCED13FDEE13FEEF13FF86
:03026600D8F122AA
:10026900E86010ECA2E713FCED13FDEE13FEEF13AB
:04027900FFD8F02298
:0C027D00ECF0A3EDF0A3EEF0A3EFF022F4
:10028900A8828583F0D083D0821202A01202A01224
:1002990002A01202A0E473E493A3C583C5F0C58349
:1002A900C8C582C8F0A3C583C5F0C583C8C582C8BF
:0102B9002222
:1007D900020740E493A3F8E493A34003F68001F2EF
:1007E90008DFF48029E493A3F85407240CC8C33321
:1007F900C4540F4420C8834004F456800146F6DFF0
:10080900E4800B0102040810204080900AACE47EC9
:10081900019360BCA3FF543F30E509541FFEE493E4
:10082900A360010ECF54C025E060A840B8E493A3AB
:10083900FAE493A3F8E493A3C8C582C8CAC583CAD6
:10084900F0A3C8C582C8CAC583CADFE9DEE780BE8E
:010ABA00003B
:00000001FF
