:0C041E00042D000E510A04234965109FB4
:0B03910012039CE510FF12039CAF114B
:10039C007E08EF30E704D2908002C290EF25E0FF98
:0603AC00D2B6C2B6DEEC81
:0103B2002228
:1002F500C2B0C2B6C2B5D2B4C2B4C292C2B77F0749
:1003050012039C7F1012039C7F0A12039CE4FF12C8
:0C031500039C7F6012039CD2B5C2B5228D
:080003008F168E158D148C136D
:10000B0085301E852F1D852E1C852D1B8F1F780877
:10001B001201B08F20AF16AE15AD14AC13781012C1
:10002B0001B08F21AF16AE15AD14AC1378181201B9
:10003B00B08F22AF1FE4FCFDFEAB1EAA1DA91CA8AE
:10004B001B12013D8F1A8E198D188C178F2778086C
:10005B0012019D8F1A8E198D188C17AF20E4FCFDA1
:10006B00FEAB1EAA1DA91CA81B12013DE51A2FF5FC
:10007B001AE5193EF519E5183DF518E5173CF51786
:10008B00851A28AF1AAE19AD18FC780812019D8F8E
:10009B001A8E198D188C17AF21E4FCFDFEAB1EAA2E
:1000AB001DA91CA81B12013DE51A2FF51AE5193ED7
:1000BB00F519E5183DF518E5173CF517851A29AF25
:1000CB001AAE19AD18FC780812019D8F1A8E198D76
:1000DB00188C17AF22E4FCFDFEAB1EAA1DA91CA8B1
:1000EB001B12013DE51A2FF51AE5193EF519E51816
:1000FB003DF518E5173CF517851A2AAF1AAE19AD61
:10010B0018FC780812019D8F1A8E198D188C178F79
:08011B002B780812019D8F2CC6
:0101230022B9
:1002C100E4F5121200037D06EDD394004017E51208
:1002D10070057F0212039C1D74272DF8E6FF12039F
:1002E1009C051280E37F081203917F09120391D2CA
:0302F100B5C2B5DE
:0102F40022E7
:10040E0012036E75B0FF75A0FF7590FF7580FF2209
:03044200DFFE22B8
:1003E800AE07AF061EEF600C7FF51204427FF512D0
:0503F800044280EE222A
:0D042B00C290D291C2A500D2A5E580332277
:0C03B3007F381203BF7F051203E87F387B
:1003BF0012042B40FBC290C291D2A58F8000C2A520
:0103CF00220B
:1003FD0012042B40FBD290C291D2A58F8000C2A5D2
:01040D0022CC
:0A0438007F011203BF7F050203E8F5
:10034A00AE07ED7005EE24808003EE24C0FF120391
:10035A00BF120124FF600C1203FD740129F9E43A6B
:04036A00FA80EE2205
:1003D000AE07AC03ED7005EE24808003EE24C0FF71
:0803E0001203BFAF040203FD8C
:10036E001203B37F051203E81203B37F081203BF13
:10037E007F011203BF7F061203BF1F1203E87F0C1B
:03038E000203BFA8
:10032100202041443938353420544553542120206C
:10033100004672653A202020202020202020487A83
:0903410000313030303030300062
:1002500012040E1204387BFF7A037921E4FD7F013A
:1002600012034A7BFF7A0379327D017F0112034A30
:100270001202F5750B40750A4275090F7508007F6B
:10028000FF7EE07DF57C05AB0BAA0AA909A808D37F
:1002900012018C400C750BFF750AE07509F57508A5
:1002A000057BFF7A0379427D017F0612034AAF0B7B
:1002B000AE0AAD09AC0875100F7511FF1202C180AE
:0102C000FE3F
:030000000201C436
:0C01C400787FE4F6D8FD75813002020B54
:10012400BB010689828A83E0225002E722BBFE02D9
:09013400E32289828A83E493220C
:10013D00E88FF0A4CC8BF0A42CFCE98EF0A42CFC61
:10014D008AF0EDA42CFCEA8EF0A4CDA8F08BF0A4DF
:10015D002DCC3825F0FDE98FF0A42CCD35F0FCEB3E
:10016D008EF0A4FEA9F0EB8FF0A4CFC5F02ECD3903
:0F017D00FEE43CFCEAA42DCE35F0FDE43CFC2270
:10018C00EB9FF5F0EA9E42F0E99D42F0E89C45F0C9
:01019C002240
:10019D00E8600FECC313FCED13FDEE13FEEF13FF40
:0301AD00D8F12264
:1001B000E86010ECA2E713FCED13FDEE13FEEF1365
:0401C000FFD8F02252
:1001D000020250E493A3F8E493A34003F68001F2F3
:1001E00008DFF48029E493A3F85407240CC8C33330
:1001F000C4540F4420C8834004F456800146F6DFFF
:10020000E4800B010204081020408090041EE47E6C
:10021000019360BCA3FF543F30E509541FFEE493F3
:10022000A360010ECF54C025E060A840B8E493A3BA
:10023000FAE493A3F8E493A3C8C582C8CAC583CAE5
:10024000F0A3C8C582C8CAC583CADFE9DEE780BE9D
:01042A0000D1
:00000001FF
