:040ABC0000DFFD2238
:100A33007E017D09000000000000000000000000AE
:0E0A43000000000000000000DDEADEE6DFE259
:010A51002282
:100A12002020414439383534205445535421202074
:100A2200004672653A202020202020202020487A8B
:010A320000C3
:10074000120A9E7F06120A7E7BFF7A0A79127D01C9
:100750007F0112092B7BFF7A0A79237D017F021228
:10076000092B12099B900000120289000F42407F62
:10077000FF7EE07DF57C05900000E0F8A3E0F9A3A2
:10078000E0FAA3E0FBD3120245400A9000001202F7
:100790008905F5E0FF900000E0FCA3E0FDA3E0FE8A
:1007A000A3E0FF90000612027D7D067F021202BACE
:1007B000900000E0FCA3E0FDA3E0FEA3E0FF9000BA
:0D07C00008740FF0A374FFF01208E980FE2A
:0F0A9E0075FFDE75FFAD120A6E120A5202096D66
:100A6E0075A4FF75A5FF75A6FF75B50C75E340223D
:100A520075B167E4FFFE0FBF00010EE4B507F7EEC4
:0B0A6200B401F3E5B130E7FB75B2888A
:010A6D002266
:0E0AAD00440025000E510A44001B4965109FAD
:0E09ED001209FB900008E0FF1209FBA3E0FFD7
:1009FB007E08EF30E704D2908002C290EF25E0FF33
:060A0B00D286C286DEEC7B
:010A110022C2
:10099B00C280C286C285D284C284C292C2877F07BC
:1009AB001209FB7F101209FB7F0A1209FBE4FF12ED
:0C09BB0009FB7F601209FBD285C2852277
:0605210090000B12027DA8
:10052700900025E0FCA3E0FDA3E0FEA3E0FF900020
:100537001312027D90000BA3A3A3E0900017F09085
:10054700000BE0FCA3E0FDA3E0FEA3E0FF780812A8
:100557000269900018EFF090000BE0FCA3E0FDA308
:10056700E0FEA3E0FF7810120269900019EFF09007
:10057700000BE0FCA3E0FDA3E0FEA3E0FF78181268
:10058700026990001AEFF0900017E0FFE4FCFDFE0F
:10059700900013E0F8A3E0F9A3E0FAA3E0FB12014F
:1005A7002890000F12027D90000FA3A3A3E09000F4
:1005B7001FF090000FE0FCA3E0FDA3E0FEA3E0FF27
:1005C700780812025690000F12027D90000FE0F893
:1005D700A3E0F9A3E0FAA3E0FBC000C001C002C09A
:1005E70003900018E0FFE4FCFDFE900013E0F8A381
:1005F700E0F9A3E0FAA3E0FB120128D003D002D070
:1006070001D000EB2FFFEA3EFEE93DFDE83CFC9000
:10061700000F12027D90000FA3A3A3E0900020F02B
:1006270090000FE0FCA3E0FDA3E0FEA3E0FF780845
:1006370012025690000F12027D90000FE0F8A3E01F
:10064700F9A3E0FAA3E0FBC000C001C002C0039019
:100657000019E0FFE4FCFDFE900013E0F8A3E0F9C9
:10066700A3E0FAA3E0FB120128D003D002D001D007
:1006770000EB2FFFEA3EFEE93DFDE83CFC90000F52
:1006870012027D90000FA3A3A3E0900021F0900039
:100697000FE0FCA3E0FDA3E0FEA3E0FF7808120251
:1006A7005690000F12027D90000FE0F8A3E0F9A327
:1006B700E0FAA3E0FBC000C001C002C00390001A2B
:1006C700E0FFE4FCFDFE900013E0F8A3E0F9A3E0EF
:1006D700FAA3E0FB120128D003D002D001D000EB2F
:1006E7002FFFEA3EFEE93DFDE83CFC90000F1202B9
:1006F7007D90000FA3A3A3E0900022F090000FE0ED
:10070700FCA3E0FDA3E0FEA3E0FF780812025690E9
:10071700000F12027D90000FA3A3A3E0900023F027
:1007270090000FE0FCA3E0FDA3E0FEA3E0FF780844
:08073700120256900024EFF0BD
:01073F002297
:1008E900E490000AF01205217D06EDD3940040231F
:1008F90090000AE070057F021209FB1D741F2DF597
:1009090082E43400F583E0FF1209FB90000AE00459
:10091900F080D77F081209ED7F091209EDD285C24F
:010929008548
:01092A0022AA
:10085900080F120F0A1F02020F090F090F091100D1
:100869001F11111F11111F00110A041F041F040079
:100879000E001F0A0A0A13001818070808080700BB
:100889000F0F0F0A0F12071F00000E00001F0000B4
:0B0899002020202020202020202020F4
:10096D009000047405F07F28120A7E900004E014B4
:10097D00F0E0D3940050EF7F01120A7E7F06120A39
:0E098D007E7F0F120A7E7F0C120A7E0209C7BF
:100A7E00900029EFF0A3F05385FD5385FB0208A4E7
:100A8E00900029EFF0A3F04385025385FB0208A4E2
:10092B00900004EDF0A3EBF0A3EAF0A3E9F0EF9055
:10093B000004B40105E0247F8003E024BFFF120A0A
:10094B007E900005E0FBA3E0FAA3E0F91200F9FFAB
:10095B00600F120A8E900006E475F00112011280EE
:02096B00E02288
:1008A40053850F900029E054F0F0428543850800F9
:1008B4007F02120ABC5385F7007F02120ABC5385DB
:1008C4000F90002AE0C454F0900029F054F0F04254
:1008D40085438508007F02120ABC5385F75385F7C8
:0508E4007FC8020A3389
:1009C7007F40120A7EE4900005F0900005E0FFC327
:1009D70094405011EF90085993FF120A8E9000052A
:0509E700E004F080E5D2
:0109EC0022E8
:0802BA00900004EFF0A3EDF049
:1002C200780B7C007D017BFF7A0879997E007F0B99
:1002D2001200D3C200900004E0B40106A3E0247F20
:1002E2008006900005E024BFFF120A7EE4FFFEFDB7
:1002F200FC900006E0F8A3E0F9A3E0FAA3E0FBC358
:10030200120245700302051B7B007AE4790B7854D4
:10031200900006E0FCA3E0FDA3E0FEA3E0FF1201D3
:10032200B3AC00AD01AE02AF037B007ACA799A7812
:100332003B1201B3EF243090000BF07B007ACA79B4
:100342009A783B900006E0FCA3E0FDA3E0FEA3E068
:10035200FF1201B3AC00AD01AE02AF037B007AE144
:1003620079F578051201B3EF243090000CF07B0090
:100372007AE179F57805900006E0FCA3E0FDA3E0C0
:10038200FEA3E0FF1201B3AC00AD01AE02AF037BEE
:10039200807A96799878001201B3EF243090000D9C
:1003A200F07B807A9679987800900006E0FCA3E0D2
:1003B200FDA3E0FEA3E0FF1201B3AC00AD01AE026B
:1003C200AF037B407A42790F78001201B3EF2430F9
:1003D20090000EF07B407A42790F7800900006E0A0
:1003E200FCA3E0FDA3E0FEA3E0FF1201B3AC00AD6D
:1003F20001AE02AF037BA07A86790178001201B3C5
:10040200EF243090000FF07BA07A8679017800907B
:100412000006E0FCA3E0FDA3E0FEA3E0FF1201B3AF
:10042200AC00AD01AE02AF03E47B107A27F9F812FB
:1004320001B3EF2430900010F0E47B107A27F9F832
:10044200900006E0FCA3E0FDA3E0FEA3E0FF1201A2
:10045200B3AC00AD01AE02AF03E47BE87A03F9F876
:100462001201B3EF2430900011F0E47BE87A03F933
:10047200F8900006E0FCA3E0FDA3E0FEA3E0FF127B
:1004820001B3AC00AD01AE02AF03E47B64FAF9F84C
:100492001201B3EF2430900012F0E47B64FAF9F811
:1004A200900006E0FCA3E0FDA3E0FEA3E0FF120142
:1004B200B3AC00AD01AE02AF03E47B0AFAF9F81265
:1004C20001B3EF2430900013F0E47B0AFAF9F890BC
:1004D2000006E0FCA3E0FDA3E0FEA3E0FF1201B3EF
:1004E200EB2430900014F0E490000AF090000AE04F
:1004F200FFC3940A5028740B2FF582E43400F5836D
:10050200E0FF64306005200002D200300003120ACE
:0E0512008E90000AE004F080D37F30120A8E33
:0105200022B8
:030000000207CD27
:0C07CD00787FE4F6D8FD75812002081446
:10000300E709F608DFFA8046E709F208DFFA803EDF
:1000130088828C83E709F0A3DFFA8032E309F608CC
:10002300DFFA8078E309F208DFFA807088828C8334
:10003300E309F0A3DFFA806489828A83E0A3F608E8
:10004300DFFA805889828A83E0A3F208DFFA804CC2
:1000530080D280FA80C680D4806980F28033801099
:1000630080A680EA809A80A880DA80E280CA803302
:1000730089828A83ECFAE493A3C8C582C8CCC5837A
:10008300CCF0A3C8C582C8CCC583CCDFE9DEE7804A
:100093000D89828A83E493A3F608DFF9ECFAA9F0C9
:1000A300EDFB2289828A83ECFAE0A3C8C582C8CC1F
:1000B300C583CCF0A3C8C582C8CCC583CCDFEADE38
:1000C300E880DB89828A83E493A3F208DFF980CC9A
:1000D30088F0EF60010E4E60C388F0ED2402B40493
:1000E3000050B9F582EB2402B4040050AF2323453A
:0600F3008223900053730C
:1000F900BB010689828A83E0225002E722BBFE0205
:09010900E32289828A83E4932237
:10011200C5F0F8A3E028F0C5F0F8E5821582700278
:060122001583E038F02215
:10012800E88FF0A4CC8BF0A42CFCE98EF0A42CFC76
:100138008AF0EDA42CFCEA8EF0A4CDA8F08BF0A4F4
:100148002DCC3825F0FDE98FF0A42CCD35F0FCEB53
:100158008EF0A4FEA9F0EB8FF0A4CFC5F02ECD3918
:0F016800FEE43CFCEAA42DCE35F0FDE43CFC2285
:1001770075F008758200EF2FFFEE33FECD33CDCC3F
:1001870033CCC58233C5829BED9AEC99E5829840C2
:100197000CF582EE9BFEED9AFDEC99FC0FD5F0D69F
:1001A700E4CEFBE4CDFAE4CCF9A88222B800C1B9C9
:1001B7000059BA002DEC8BF084CFCECDFCE5F0CB07
:1001C700F97818EF2FFFEE33FEED33FDEC33FCEB40
:1001D70033FB10D703994004EB99FB0FD8E5E4F9FB
:1001E700FA227818EF2FFFEE33FEED33FDEC33FCE8
:1001F700C933C910D7059BE99A4007EC9BFCE99ADC
:10020700F90FD8E0E4C9FAE4CCFB2275F010EF2F20
:10021700FFEE33FEED33FDCC33CCC833C810D70720
:100227009BEC9AE899400AED9BFDEC9AFCE899F85B
:0E0237000FD5F0DAE4CDFBE4CCFAE4C8F922EE
:10024500EB9FF5F0EA9E42F0E99D42F0E89C45F00F
:010255002286
:10025600E8600FECC313FCED13FDEE13FEEF13FF86
:03026600D8F122AA
:10026900E86010ECA2E713FCED13FDEE13FEEF13AB
:04027900FFD8F02298
:0C027D00ECF0A3EDF0A3EEF0A3EFF022F4
:10028900A8828583F0D083D0821202A01202A01224
:1002990002A01202A0E473E493A3C583C5F0C58349
:1002A900C8C582C8F0A3C583C5F0C583C8C582C8BF
:0102B9002222
:1007D900020740E493A3F8E493A34003F68001F2EF
:1007E90008DFF48029E493A3F85407240CC8C33321
:1007F900C4540F4420C8834004F456800146F6DFF0
:10080900E4800B0102040810204080900AADE47EC8
:10081900019360BCA3FF543F30E509541FFEE493E4
:10082900A360010ECF54C025E060A840B8E493A3AB
:10083900FAE493A3F8E493A3C8C582C8CAC583CAD6
:10084900F0A3C8C582C8CAC583CADFE9DEE780BE8E
:010ABB00003A
:00000001FF
