:020000040800F2
:1000000088040020450100084D0100084F01000848
:1000100051010008530100085501000800000000CC
:100020000000000000000000000000005701000870
:1000300059010008000000005B0100085D01000894
:100040005F0100085F0100085F0100085F01000810
:100050005F0100085F0100085F0100085F01000800
:100060005F0100085F0100085F0100085F010008F0
:100070005F0100085F0100085F0100085F010008E0
:100080005F0100085F0100085F0100085F010008D0
:100090005F0100085F0100085F0100085F010008C0
:1000A0005F0100085F0100085F0100085F010008B0
:1000B0005F0100085F0100085F0100085F010008A0
:1000C0005F0100085F0100085F0100085F01000890
:1000D0005F0100085F0100085F0100085F01000880
:1000E0005F0100085F0100085F0100085F01000870
:1000F0005F0100085F0100085F0100085F01000860
:100100005F0100085F0100085F0100085F0100084F
:100110005F0100085F0100085F0100085F0100083F
:100120005F0100085F0100085F0100085F0100082F
:10013000DFF80CD000F076F800480047750B000897
:10014000880400200648804706480047FEE7FEE78F
:10015000FEE7FEE7FEE7FEE7FEE7FEE7FEE7FEE777
:10016000E1070008310100082DE9F041002425468F
:10017000002905DA01240027D0EB070067EB010115
:10018000002B05DA0027D2EB0702012567EB0303FA
:1001900000F017F886460E4617469C46AC4204D03F
:1001A0000025D0EB050E65EB010624B10020D2EB53
:1001B000000760EB030C704631463A466346BDE8E3
:1001C000F0812DE9F05F0546002092469B46884667
:1001D0000646814640241BE02846414647462246C3
:1001E00000F041F853465A46C01A914110D31146C7
:1001F0001846224600F028F82D1A67EB01084F46F2
:1002000022460120002100F01FF817EB00094E41A3
:10021000201EA4F10104DFDC484631462A4643464D
:10022000BDE8F09F064C074D06E0E06840F0010392
:1002300094E8070098471034AC42F6D3FFF77CFFF0
:10024000E80B0008080C0008202A04DB203A00FA1A
:1002500002F1002070479140C2F1200320FA03F31D
:10026000194390407047202A04DB203A21FA02F01B
:100270000021704721FA02F3D040C2F120029140E0
:10028000084319467047000010B54FF400711D482F
:1002900000F008FA4FF480711A4800F003FA4FF4A6
:1002A0008061184800F0FCF94FF40061154800F037
:1002B000F9F90A2000F09EF84FF40061114800F0AF
:1002C000EFF94FF480510F4800F0ECF900211D20A8
:1002D00000F050F80A211E2000F04CF801211F20E8
:1002E00000F048F86021202000F044F84FF48061CD
:1002F000044800F0D7F94FF48061024800F0D0F9CB
:1003000010BD0000001001402DE9F04106460C46EA
:100310000427304600F0ACF8062509E06A1ED2B288
:100320001546124B995C38467B1CDFB200F022F870
:10033000002DF3DC210A212000F01CF8E1B222207C
:1003400000F018F8210A232000F014F8E1B224206C
:1003500000F010F84FF48061054800F0A3F94FF465
:100360008061034800F09CF9BDE8F0818100002025
:100370000010014070B504460D46124800F08CF99B
:10038000064604F03F004FF6C072324040EA0201D8
:100390000C4800F089F90C4800F07EF9064630461A
:1003A00065F31F200146084800F07EF94FF4007104
:1003B000064800F075F94FF40071044800F072F936
:1003C00070BD000000080140000C01400010014019
:1003D00010B5402000F034FA002405E00449085D1F
:1003E00000F046FA601CC4B2402CF7DB10BD0000E0
:1003F0000000002000BF072100BF0B2200BF531EDA
:100400009BB21A00FBD14B1E9BB21900F5D1431EC3
:10041000DBB21800EFD1704700BF772100BF432245
:1004200000BF531E9BB21A00FBD14B1E9BB219009A
:10043000F5D1431EDBB21800EFD1704700BF4FF477
:100440007A7100BF40F2012200BF531E9BB21A0016
:10045000FBD14B1E9BB21900F4D1431EDBB2180036
:10046000EDD1704700BF411EC9B20800FBD17047F3
:1004700018B50146144ACBB28DF800300B0A8DF83E
:1004800001300B0C8DF802300B0E8DF803309DF807
:10049000003003FB02F00D4C2070000A9DF8013083
:1004A00002FB03006070000A9DF8023002FB0300AB
:1004B000A070000A9DF8033002FB0300E070000A00
:1004C0002071030A637118BD0A510E0081000020DB
:1004D00008B501211C2000F00BF93F20ADF8000009
:1004E00002208DF8020010208DF8030069461048A4
:1004F00000F024F84FF47F40ADF8000002208DF8A2
:10050000020010208DF8030069460A4800F016F832
:100510004FF4FE40ADF8000002208DF802001020DC
:100520008DF803006946044800F008F808BD000093
:1005300000080140000C0140001001402DE9F0418D
:10054000024600250026002000230024002791F801
:1005500003C00CF00F0591F803C01CF0100F03D07E
:1005600091F802C04CEA050591F800C0BCF1000FFB
:1005700031D0146800202BE04FF0010C0CFA00F38E
:10058000B1F800C00CEA03069E4220D183004FF070
:100590000F0C0CFA03F7BC4305FA03FC4CEA040405
:1005A00091F803C0BCF1280F06D14FF0010C0CFAF2
:1005B00000FCC2F814C00AE091F803C0BCF1480F77
:1005C00005D14FF0010C0CFA00FCC2F810C0401C21
:1005D0000828D1D31460B1F800C0BCF1FF0F34DD9E
:1005E000546800202EE000F1080C4FF0010808FAD2
:1005F0000CF3B1F800C00CEA03069E4221D183003F
:100600004FF00F0C0CFA03F7BC4305FA03FC4CEA5D
:10061000040491F803C0BCF1280F05D100F1080CC7
:1006200008FA0CF8C2F8148091F803C0BCF1480F26
:1006300007D100F1080C4FF0010808FA0CF8C2F8D5
:100640001080401C0828CED35460BDE8F081000023
:1006500008B50121042000F04BF80121202000F012
:1006600047F8F320ADF8000003208DF802001020B9
:100670008DF8030069460648FFF760FF4FF480706D
:10068000ADF8000069460348FFF758FF08BD0000B9
:1006900000140140000801400146C86880B270475C
:1006A0004161704701617047C160704710B50A2011
:1006B000FFF7C4FEFFF7CCFF052404E0282000F07C
:1006C000BFF8601EC4B2002CF8DC012000F0B8F8BE
:1006D000062000F0B5F80F2000F0B2F80C2000F072
:1006E000AFF8FFF775FE10BD10B5FFF7DFFF10BDC7
:1006F00029B1064A92690243044B9A6104E0034A15
:1007000092698243014B9A617047000000100240D9
:1007100010B500F001F810BD002100202E4A12682B
:1007200042F480322C4B1A6000BF2B4A126802F44C
:100730000030491C10B9B1F5A06FF6D1264A1268F5
:1007400012F4003F01D0012000E00020012842D136
:10075000224A126842F01002204B1A601A461268B0
:1007600022F003021A601A46126842F002021A606E
:10077000194A5268184B5A601A4652685A601A460B
:10078000526842F480625A601A46526822F47C121F
:100790005A601A46526842F4E8125A601A461268C1
:1007A00042F080721A6000BF0B4A126812F0007F9C
:1007B000FAD0094A526822F00302074B5A601A46DF
:1007C000526842F002025A6000BF034A526802F0C7
:1007D0000C02082AF9D170470010024000200240A4
:1007E00010B51348006840F0010011490860084640
:1007F0004068104908400E494860084600680E49A4
:1008000008400B4908600846006820F48020086012
:100810000846406820F4FE0048604FF41F008860DE
:10082000FFF776FF4FF000600449086010BD00003C
:10083000001002400000FFF8FFFFF6FE08ED00E0A8
:1008400010B50446074804700748047001210748A2
:10085000FFF726FF02210548FFF722FF00F0F2F81C
:1008600010BD00007F000020800000200014014027
:1008700010B5044607480470074804700121074872
:10088000FFF710FF02210548FFF70AFF00F0DAF832
:1008900010BD00007F0000208000002000140140F7
:1008A0002DE9FE4F81460E4614465DA207CA8DE82B
:1008B00007004FF0000AB9F1010F05D106F17F01E1
:1008C000C8B2FFF7BDFF04E006F1BF01C8B2FFF7F1
:1008D000B7FF002C7ED0554A022320460021FFF7A7
:1008E00043FC17461946524A00233846FFF73CFCA2
:1008F00030214018C0B28DF800004D48B4FBF0F133
:1009000000FB11404B49B0FBF1F000F13000C0B2E8
:100910008DF801000846B4FBF0F100FB1140464998
:10092000B0FBF1F000F13000C0B28DF802000846D3
:10093000B4FBF0F100FB11404049B0FBF1F000F1D5
:100940003000C0B28DF803000846B4FBF0F100FBA4
:1009500011403B49B0FBF1F000F13000C0B28DF81E
:1009600004000846B4FBF0F100FB114042F21071A4
:10097000B0FBF1F000F13000C0B28DF80500084680
:10098000B4FBF0F100FB11404FF47A71B0FBF1F0D1
:1009900000F13000C0B28DF806000846B4FBF0F15B
:1009A00000FB11404FF06401B0FBF1F000F13000AA
:1009B000C0B28DF807000846B4FBF0F100FB11400F
:1009C0004FF00A01B0FBF1F000F130008DF80800A3
:1009D000084600E01FE0B4FBF0F100FB114000F11D
:1009E00030008DF809004FF0000511E01DF80500FA
:1009F000302804D0BAF1000F01D14FF0010ABAF14A
:100A0000010F03D11DF80500FFF732FF681CC5B2C6
:100A10000A2DEBDB02E03020FFF72AFFBDE8FE8F56
:100A200020202020202020202020200000E40B5423
:100A300000CA9A3B00E1F5058096980040420F00FD
:100A4000A086010010B5324800684FF60F710840CB
:100A50002F4908602F48007800F0F0002D490870F9
:100A60002B48006809780843294908602A4800682B
:100A70004FF6FF610840284908600120FFF7F2FCAB
:100A80004FF4807124480C38FFF70CFE0120FFF76B
:100A9000E9FC4FF4807120480C38FFF701FE01207B
:100AA000FFF7E0FC1A4800684FF60F71084018493C
:100AB00008601A48007800F00F00184908700846CE
:100AC00000780007000E0870114800680978084394
:100AD0000F490860104800684FF6FF6108400E4952
:100AE00008600120FFF7BEFC4FF480710A480C3803
:100AF000FFF7D8FD0120FFF7B5FC4FF480710648E1
:100B00000C38FFF7CDFD0520FFF786FC10BD000077
:100B10000C1401407F0000200C08014080000020E0
:100B200070B506460D461446012E05D105F17F012C
:100B3000C8B2FFF785FE04E005F1BF01C8B2FFF7B8
:100B40007FFE03E02078FFF793FE641C20780028E6
:100B5000F8D170BD02E008C8121F08C1002AFAD1FE
:100B600070477047002001E001C1121F002AFBD12D
:100B700070470000FFF7B8FDFFF7AAFC0620FFF75B
:100B80005FFE0FA201210846FFF7CAFF11A2012153
:100B90000220FFF7C5FFFFF777FB4FF47A74114887
:100BA000844200D90446224606210220FFF778FE3F
:100BB00040F6FF712046FFF7A7FB00BFFEE70000ED
:100BC00020204144393835342054455354212020C5
:100BD000000000004672653A2020202020202020BE
:100BE00020487A00FFE0F505080C0008000000200E
:100BF00088000000540B0008900C000888000020BA
:100C000000040000640B0008080F120F0A1F020204
:100C10000F090F090F0911001F11111F11111F00DA
:100C2000110A041F041F04000E001F0A0A0A130001
:100C300018180708080807000F0F0F0A0F12071FE0
:100C400000000E00001F000057656C636F6D65208B
:100C5000746F20757365212054656C3A31333931D6
:100C6000323334353637384D44442D312020033368
:100C700035382E30300420323031340032013037F4
:100C80000220543D31350500000000000000000046
:0400000508000131BD
:00000001FF
